:020000040000FA
:10000000880B002089010000690A00006B0A0000CB
:1000100000000000000000000000000000000000E0
:10002000000000000000000000000000830A000043
:100030000000000000000000870A0000890A00009C
:10004000D91D0000DD1D0000E11D0000E51D0000C0
:100050000000000000000000970100009701000070
:100060009701000000000000A94D0000970100006A
:100070003B5D0000970100003B1C00009701000061
:10008000FB1F000000000000970100009701000026
:100090000000000097010000970100009701000098
:1000A000F53D0000970100009701000000000000EE
:1000B0007B3F0000970100009701000097010000BE
:1000C00000F002F800F034F80CA030C8083824180A
:1000D0002D18A246671EAB4654465D46AC4201D180
:1000E00000F026F87E460F3E0FCCB646012633427E
:1000F00000D0FB1AA246AB46334318477CA600004B
:100100009CA600000023002400250026103A01D3FD
:1001100078C1FBD8520700D330C100D50B607047BF
:100120001FB50098019908F0C6FD1FBD10B510BDA0
:1001300008F06DFE1146FFF7F3FF02F023F808F018
:1001400085FE03B4FFF7F2FF03BC08F0E5FE0000F4
:1001500070B505460C46164602E00FCC0FC5103EA2
:10016000102EFAD2082E02D303CC03C5083E042E6B
:1001700007D301CC01C5361F03E021782970641C28
:100180006D1C761EF9D270BD06480047FEE7FEE7FB
:10019000FEE7FEE7FEE7FEE703480449044A054B95
:1001A00070470000C100000088030020880B002079
:1001B000880700208807002070B50122824D540373
:1001C0002146284600F016FE00222146284600F06F
:1001D00011FE70BD10B50268FF231B019A4318C9B8
:1001E0000968234311430B43036010BD00210160E4
:1001F00081604160704710B54268D30A14C9DB02C0
:1002000022430C681C432243426082686F4B1A40B1
:100210004B6889680B431343836010BD0021016064
:1002200041608160C160016170470029016802D0AE
:100230000122114301E0490849000160704730B5CF
:10024000046807252D02AC43046004680C43046075
:10025000816801242404A143816081681143816085
:100260008168FF2212029143816081681943816095
:1002700030BD0168022211430160704701460968E0
:100280000020890700D50120704701229202002931
:10029000416801D0114300E0914341607047002A5A
:1002A000826801D00A4300E08A43826070470122DD
:1002B000D2030029016801D0114300E0914301609D
:1002C0007047012292020029416801D0914300E069
:1002D000114341607047C06A80B2704700290ED058
:1002E000CA1FF93A09D0CA1FFF3AFA3A09D00322C5
:1002F0001202914207D18069704700697047C06857
:1003000070474069704701229202914201D1C06951
:10031000704705221202914201D1006A7047032200
:100320005202914203D007221202914201D1406A47
:1003300070470020704741630020704781630020B0
:100340007047002A426801D00A4300E08A434260B5
:100350000020704742681F235B019A4352095201F3
:100360000A4342607047002A426C01D00A4300E011
:100370008A43426470470122D2020029416801D0B9
:10038000114300E09143416070470122D2030029EC
:10039000416801D0114300E0914341607047006B18
:1003A00070470246D26C00200A4200D001207047FC
:1003B0000246126D00200A4200D001207047826C74
:1003C0000A4382647047000000000240FF00FEFF05
:1003D00010B5026810231A400B684C681B0289682C
:1003E0006401234311430B43036010BD1022002915
:1003F000016801D0114300E0914301607047026839
:1004000060239A43026002680A43026070474160B9
:1004100070470121C16070478B78002B036A01D0BF
:10042000134300E093430362CB78002B436A01D06F
:10043000134300E0934343620B79002B836A01D09E
:10044000134300E0934383624B78002BC36901D0D0
:10045000134300E09343C36109780029016901D087
:10046000114300E091430161704700008A49002078
:100470000968490700D50120704708B50020694682
:100480000870FFF7F3FF6946087008780128F8D074
:10049000087808BDF0B50746420AFFF7EEFF7E492F
:1004A00001257E4B7E4C402ACB60CC6006D94E693C
:1004B000403A520895402E434E6104E00E695208BE
:1004C00095402E430E61002809D1CB60CC600868AE
:1004D00002221043086000203860FFF7CEFFF0BD15
:1004E00030B5FFF7CAFF6C4A6C4CD4606C4DD560D8
:1004F0000021C9431161D460D560516100280BD13E
:10050000D460D56003201060FFF7B7FFD460D560DA
:100510001168090A0902116030BDF0B50E460746A0
:10052000FFF7ABFF5C4A5D4CD4605D4DD56011694F
:10053000012319431161002813D1D460D5601068DC
:10054000000A00021060D460D56010681843106083
:100550003E60FFF792FFD460D5601168090A090276
:100560001160F0BDF0B50E460746FFF786FF4A4A18
:100570004A4CD4604A4DD560116901231943116179
:10058000002813D1D460D5601068000A0002106002
:10059000D460D5601068184310603E80FFF76DFF8F
:1005A000D460D5601168090A09021160F0BDF0B588
:1005B0000E460746FFF761FF374A384CD460384D86
:1005C000D5601169012319431161002813D1D4604A
:1005D000D5601068000A00021060D460D560106811
:1005E000184310603E70FFF748FFD460D560116873
:1005F000090A09021160F0BD70B50C460546FFF707
:100600003CFF264E2449264B402D0BD3002808D111
:10061000002ACE60CB60486901D0204300E0A043AF
:10062000486170BD0028FCD1002ACE60CB6008690B
:1006300001D0204300E0A043086170BD1649174A6D
:10064000CA60174ACA60174A8A6170471249134A3A
:10065000CA60134ACA60134A8A6170470E4A0F4B38
:10066000D3600F4BD3600029116801D0014300E033
:10067000814311607047084A0146526800200A42CF
:1006800000D0012070470449044ACA60044ACA6085
:100690008A6882438A607047000402405A5A000008
:1006A000A5A500000100695A70B57549754C8842CE
:1006B00002D10122150604E0734988420BD10122C0
:1006C00055062946204600F095FB00222946204683
:1006D00000F090FB70BD6D49884202D10122950661
:1006E000EFE76B498842F5D10122D506E9E7644975
:1006F000002040318860644940318860634940315E
:1007000088606349403188607047F0B50022012756
:100710003B460C6893401C409C4232D1846C96004E
:100720000F25B540AC4384640C79012C04D0022C15
:1007300002D0002C0FD011E004689C4304600468D0
:100740001C43046044689C43446044688D79954030
:100750002C43446002E004689C430460C56B540071
:100760000326A640B543C563CD79A540C46B254398
:10077000C563046C9C430464036C4C79944023432C
:100780000364521C082AC3D3F0BDFF21016000217D
:100790000171012242718171C17170470246D268B4
:1007A00000200A4200D001207047C068C0B27047E4
:1007B000FF2201320029416B01D0114300E0914337
:1007C00041637047002A426B01D00A4300E08A432C
:1007D0004263704710220029816B01D0114300E071
:1007E000914381637047826B120912018263826BAD
:1007F0000A43826370470246926800200A4200D092
:10080000012070478068C0B27047C16270470163C1
:100810007047002A01D0C162704701637047816050
:10082000704782684A408260704710B5C36B4900C8
:1008300003248C40A343C363C36B8A401343C36345
:1008400010BD01238B40416C002A02D099434164C2
:1008500070471943FBE710B5836C0F249440920056
:10086000A34391401943816410BD10B54907C90ED7
:10087000836C8A400F248C40A3431343836410BDD0
:100880000010024000000240001402400018024024
:10089000001C02406D4910B588420AD16C4C0122FF
:1008A0000421204600F0A6FA00220421204600F090
:1008B000A1FA10BDF8B50D4604460968654A002046
:1008C000654F012691421BD8C800083007F03BFF56
:1008D00002460B460020394607F0C4FC00225F4B5D
:1008E00007F090FC00225E4B07F099FC07F0DEFE5B
:1008F00080B2042800D204202188FE2211401CE08E
:10090000584A914217D8C800083007F01CFF024629
:100910000B460020394607F0A5FC00224F4B07F09C
:1009200071FC00224E4B07F07AFC07F0BFFE80B24C
:10093000042800D20420218831432180A08221880C
:10094000A8882A89104308432080A888442803D116
:10095000E888698908432081F8BD3E490160442147
:1009600081800021C18001810121418170474022A5
:100970000029018801D0114300E0914301807047B4
:1009800020220029018A05D0012319430182018810
:10099000114304E0490849000182018811400180A7
:1009A000704720220029018801D0114300E09143C3
:1009B0000180704710220029018801D0114300E016
:1009C00091430180704704220029018801D011431E
:1009D00000E09143018070470289FE2349081A40D4
:1009E00049001143018170470029018902D0012289
:1009F000114301E049084900018170478180704737
:100A00008088C0B27047002A02D00122114301E061
:100A1000490849008180704708B540180090006877
:100A200008BD04220429018802D091430180704747
:100A30001143FBE708220029018801D0114300E09F
:100A40009143018070478089C0B27047000C00401C
:100A500000000240A086010060E376410000E03F14
:100A60000000F03F801A0600704701F0DAF900F04C
:100A70000CF801F0D6F900F008F800F006F800F0E4
:100A800004F87047704770477047BFF34F8F0449B1
:100A90000248C860BFF34F8F00BFFDE70400FA05AE
:100AA00000ED00E03048006870474368022293433D
:100AB0000A681A4304239A434B6813433022934332
:100AC0008A681A4340239A43CB6813438022934396
:100AD0000A6949691A4301235B029A431143416041
:100AE00070470029416802D00122114301E0490802
:100AF00049004160704708220029416801D0114334
:100B000000E0914341607047FF22013200294168B3
:100B100001D0114300E091434160704701464968AC
:100B20000020C90300D50120704708B50022012329
:100B30001B04009242681A409A42FBD0416108BDF2
:100B400008B5002201231B04009242681A409A4211
:100B5000FBD0816008BD0246D26800200A4200D066
:100B6000012070470161704700440040BD48816822
:100B70004909490181608168490D490581607047D3
:100B8000B94ABA4B03660A438262591E016670472E
:100B9000B54AB64B03660A430263591E01667047A5
:100BA0001143B24A0266B04A1143C162AF49491EBD
:100BB000016670471143AD4A0266AB4A1143416377
:100BC000AA49491E0166704718B50021052424036F
:100BD00001231B030091816A009A1940521C009264
:100BE000A24201D09942F6D0994201D1012018BD0C
:100BF000002018BD18B5002200929C4A02669A4A4D
:100C00008918C162402205242403C16A009B114057
:100C10005B1C0093A34202D04029F6D001E040299A
:100C200005D00021914A521E0266084618BD0121D6
:100C3000F8E718B5002200928C4A02668A4A8918A1
:100C400001630524240301231B03016B009A19404F
:100C5000521C0092A24201D09942F6D0994201D191
:100C6000012100E00021814A521E0266084618BD9B
:100C700018B5002100917D49016640230524240315
:100C8000416B009A1940521C0092A24202D04029A6
:100C9000F6D001E0402905D00021744A521E0266B8
:100CA000084618BD0121F8E710B54B684A699B0258
:100CB0001A430B688C68DB02640223431A43CB6837
:100CC00009691B021A4309010A4367490A43674934
:100CD00001664263491E016610BD644A026600292E
:100CE00001D0634900E0604941636049491E0166E3
:100CF00070475E4A02668163511E01667047C36B8E
:100D00005B0E5B06C363C36B09060B43C363C16B16
:100D10001143C1637047C36B012252069343C363FF
:100D20000029C16B01D0114300E09143C1637047BA
:100D300030B5036A446B4C4D9BB2A4B22B432C4399
:100D400001290BD0022910D004290ED0FF2501352E
:100D5000A94211D1002A0ED02C430DE0002A01D067
:100D6000012104E05B085B0006E0002A01D00B4390
:100D700002E08B4300E0AC433C49016603624463FC
:100D8000491E016630BD384A1143384A0266416245
:100D9000511E01667047026907231B029A430A43EA
:100DA00002617047026901231B03002901D01A4325
:100DB00000E09A43026170470269120A12020A4374
:100DC00002617047006A4007400F7047016070473A
:100DD00041607047002A826801D00A4300E08A43DC
:100DE00082607047002AC26801D00A4300E08A434B
:100DF000C26070471D4B0366002A426C01D00A4353
:100E000000E08A4342641949491E01667047174A47
:100E10000266002902D01449491C00E0124981648D
:100E20001249491E01667047104B10B55B1E1943ED
:100E30005C1C0466002A826901D00A4300E08A43F0
:100E40008261036610BD0246D26900200A4200D0CA
:100E500001207047044A0A43044901660264491E9E
:100E600001667047000002400000695A9966AA5561
:100E70000008695A10B51C4C012210212046FFF7CA
:100E8000B9FF002210212046FFF7B4FF10BD0A88E9
:100E90004B881A438B88C9880B431A4302607047FA
:100EA0000021018041808180C1807047402200295B
:100EB000016801D0114300E0914301607047C160B7
:100EC0007047C068C0B270470029416801D0002156
:100ED00001E0012211434160704702469268002000
:100EE0000A4200D0012070470000024010B55B4C60
:100EF000012280212046FFF77DFF0022802120462D
:100F0000FFF778FF10BD564A02650029016802D03C
:100F10000122114301E04908490001605049491E7E
:100F200001657047002904D041680021C943416030
:100F300070470168002101607047002904D04168B2
:100F4000490849004160704701680122114301606E
:100F50007047826812091201826082680A438260C7
:100F60007047826830239A43826082680A438260B5
:100F700070478268C0239A43826082680A43826015
:100F80007047826803231B029A43826082680A4387
:100F90008260704710B5C368490003248C40A343A6
:100FA000C360C3688A401343C36010BD10B50369B2
:100FB000890007248C40A343036103698A401343DB
:100FC000036110BD02690F231B049A430261026989
:100FD0000A43026170470269012109058A430261DF
:100FE00002690A43026170470169012212059143B7
:100FF0000161704710B54369890007248C40A34301
:10100000436143698A401343436110BD42690F2322
:101010001B049A43426142690A4342617047104A85
:10102000026582690F4B92B2D218920892000A436D
:1010300082610B49491E01657047094A0265826950
:10104000084B92B2D2181023002901D01A4300E0B5
:101050009A4382610249491E0165704700000240BF
:101060009966AA550000695A454910B5884202D0D0
:10107000444988420AD1444C012240212046FFF7CE
:10108000B9FE002240212046FFF7B4FE10BD30B566
:1010900002680523DB011A4018C94D6823438C6898
:1010A0002C4323430C682343CC68096923430B4337
:1010B0001343036030BD0021FF2201328161826051
:1010C0004160D10001604021C160082141611021CF
:1010D0000161704780220029016801D0114300E0BE
:1010E000914301607047012252020029016801D03A
:1010F000114300E0914301607047202200290168FC
:1011000001D0114300E09143016070470268FF2362
:1011100001339A43026002680A4302607047026822
:101120000123DB029A4302600268C9430A4302605A
:1011300070470268D208D200026002680A43026067
:10114000704700684007400F7047416081617047F9
:101150004068704781607047806870470246D26877
:1011600000200A4200D00120704702461269002088
:101170000A4200D001207047C907C90F416170477A
:1011800000180040001900400000024022490843B6
:101190002249C860704770B5C2780F2301240178D6
:1011A000002A1AD01D4AD568520D1540521B120A4A
:1011B0000425AE1AD34045788278B5401A402A43B8
:1011C000174B12018900C9180A600078C106C90EC0
:1011D0008C4040098000134906E0C806C00E8440D8
:1011E00048091049800080314018046070BD704784
:1011F0000A4A0029116901D0014300E081431161CD
:101200007047042208490428086902D09043086105
:1012100070471043FBE700000000FA0500ED00E016
:1012200000E400E000E100E000E000E0704730B5DD
:101230000268FD4DFD4B92B2A84201D0984203D105
:101240007024A2434C882243A84201D0984203D183
:10125000F74C1440CA88224302608A88C2620A8816
:101260008262A84201D0984201D1097A016301212A
:10127000416130BD30B5026AEE4B1A400262026A2B
:1012800093B24268846992B2A4B27025AC43A408B8
:101290000D88A40025430224A3430C891C434B88DA
:1012A0002343E14CA04202D0E04CA0420DD10824DF
:1012B000A3434C891C4304239C438B882343DC4C6D
:1012C00022408C891443CA89224342608561C988BF
:1012D0004163036230BD70B5026AD64B0F3B1A40C2
:1012E0000262026A95B24268836992B2D24C9BB2A2
:1012F00023400C782406240C1C4320239D430B8997
:101300001B051E0C4B882E431B051B0CC64D33437F
:10131000A84202D0C54DA84215D18025AB434D89C6
:101320002D052D0C1D4340239D438B881B051B0C55
:101330002B43C24D2A408D89AD042D0C1543CA891B
:101340009204120C2A4342608461C988816303625B
:1013500070BD30B5026AB74BFF3B1A400262026AA9
:1013600093B24268C46992B2A4B27025AC43A40897
:101370000D88A4002543B24C23400C7A2406240C8B
:101380001C438B781B061B0C2343A74CA04202D0A6
:10139000A64CA04215D1AB4C23408C7A2406240CD9
:1013A0001C43A94B1C400B791B061B0C2343A74C69
:1013B00022408C892405240C1443CA891205120C7E
:1013C00022434260C561C988C163036230BD30B544
:1013D000026A9F4B1A400262026A94B24268C36971
:1013E00092B2954D9BB22B400D782D062D0C1D43CE
:1013F000984B1C400B7A1B071B0C23438C7824074B
:10140000240C1C43884B984202D0884B984205D14B
:10141000914B1A408B899B051B0C1A434260C56196
:10142000C9880164046230BDC269844B1A40C2613C
:10143000C2690906090C0A43C2617047C2697D4B43
:101440000B3B1A40C261C2690A43C261704782699C
:101450007A4B1A40826182690906090C0A4382614B
:101460007047F0B5046A734D0F3D2C4004628469E7
:10147000A6B2046A794F1B073E401B0C3343120689
:10148000120C0D051A43684E2D0C1023A4B2B04265
:1014900002D0664EB04203D120218C432C4302E09F
:1014A000A025AC430C431C4382610462F0BD8269F9
:1014B000604B0B3B1A40826182690A43826170472C
:1014C00070B5046A5B4D2C4004628469A5B2046A5D
:1014D0001B05F3261B0CB54313432B43524D01222E
:1014E000A4B2A84202D0514DA84201D1022500E089
:1014F0000A25AC430C4314438361046270BDF8B504
:101500000C4605460888484E4988A2882389002849
:1015100022D0042828D008282ED0286A94464C4A85
:1015200010402862E86987B2286A0A07120C9646BA
:101530004A4A1B07174062461206120C17431B0C3F
:101540003B43B71480B2B54202D0384A95423DD1F0
:101550004049084071463BE02846FFF7B1FFE1886B
:101560002846FFF7A4FFF8BD2846FFF77AFFE18879
:101570002846FFF76CFFF8BD286A96462D4FFF3FBF
:1015800038402862E86987B2286A0A06120C944635
:10159000F32297431B051B0C724613433B43FF2763
:1015A000013780B2B54202D0204A954203D1244986
:1015B0000840614601E02A4A104008433843EB6185
:1015C0002862E1882846FFF739FFF8BD254A104018
:1015D00008433843EB612862E1882846FFF724FF7F
:1015E000F8BDF8B50C4649880026012507460029B4
:1015F00000D10226A288012A00D102252088238951
:101600000028384630D0FFF72CFFE1883846FFF736
:101610001EFF23892A4631463846FFF751FFE188ED
:101620003846FFF744FFF8BD00100040003C004082
:10163000FFFC0000FEFF0000FF8C0000FFF3000035
:10164000FFFD0000FFF70000FFFB0000FFCF0000E0
:10165000FFEF0000FFDF0000FFBF0000FF0C0000F5
:10166000FFF50000FF7D0000FFF72AFFE188384604
:10167000FFF71DFF23892A4631463846FFF7F1FE62
:10168000E1883846FFF7E3FECDE710B50A884B88BE
:10169000CC881A438B8823431A430B891A434B89FE
:1016A00089891A430A43426410BD0021C9438180DD
:1016B00000210180C18041800172704700210180BA
:1016C00041808180C180018141818181C1817047D8
:1016D00000210180418001228280C1800181704708
:1016E0000021018041808180C1800181418181810F
:1016F00070470029016802D00122114301E0F64A37
:101700001140016070470029416C03D00122D203CF
:10171000114301E04904490C41647047002AC26842
:1017200001D00A4302E0C94389B20A40C26070474F
:1017300041617047114381647047002AC26801D03B
:101740000A4302E0C94389B20A40C2607047816817
:10175000E14A921F1140816070478268702392B203
:101760009A430A438260704710B50446FFF7F5FFBD
:10177000A06807210843A06010BD70B516460D464D
:10178000044660290CD001223146FFF799FE294614
:101790002046FFF7E2FFA06807210843A06070BD64
:1017A00001223146FFF75DFEF1E710B584681B06A4
:1017B0001B0C1343E4B20B432343836010BD10B5ED
:1017C0000446FFF7F2FFA06880B2C108C9000720F5
:1017D0000143702081430143A16010BD10B5044650
:1017E000FFF7E3FFA068012189030843A06010BD53
:1017F0008162426170470268702392B29A430A4341
:101800000260704770B58468A5B28469066AA4B2A4
:10181000ED08ED000D43B149B6B20C40FF21023195
:101820000C4322218E431905090C11433143856075
:101830008461016270BD8269702392B29A430A4347
:10184000826170478269A64B92B209061A40090C60
:10185000114381617047C269702392B29A430A436F
:10186000C2617047C2699E4B92B209061A40090CC8
:101870001143C16170470029016802D080221143E1
:1018800002E0954A7F3A11400160704700294168A3
:1018900002D00422114302E08F4AD21E114041605F
:1018A00070470029416802D00822114302E08A4AA9
:1018B000D21F1140416070470029416802D00122C7
:1018C000114301E0844A1140416070478269082356
:1018D00092B29A430A43826170478269814B92B205
:1018E00009061A40090C114381617047C269082337
:1018F00092B29A430A43C2617047C269794B92B26D
:1019000009061A40090C1143C1617047826904231A
:1019100092B29A430A438261704782696F4B92B2D6
:10192000FD3B09061A40090C114381617047C269E9
:10193000042392B29A430A43C2617047C269674B5B
:1019400092B2FD3B09061A40090C1143C161704770
:101950008269802392B29A430A4382617047826906
:1019600009065204520C090C114381617047C26987
:10197000802392B29A430A43C2617047C269090642
:101980005204520C090C1143C1617047026A0223D0
:1019900092B29A430A4302627047026A082392B2E3
:1019A0009A430A4302627047026A202392B20905F1
:1019B0009A43090C114301627047026A802392B274
:1019C00009059A43090C114301627047026A464BAC
:1019D00092B209061A40090C114301627047026A6B
:1019E000404B92B209061A40090C1143016270473C
:1019F000026A3E4B92B209071A40090C1143016278
:101A0000704710B50123046A8B40DB439BB21C4036
:101A10000462036A8A4091B20B43036210BD10B5A1
:101A20000423046A8B40DB439BB21C400462036ABC
:101A30008A4091B20B43036210BD30B503461833A0
:101A40000124056A8C40E443A4B2254005620029C4
:101A500010D008290ED0091F0804400CC0180168D6
:101A600007231B039943016001681206120C1143FE
:101A7000016030BD4808C0180168702399430160B7
:101A80000168F4E70029016802D00222114302E054
:101A9000114A521E1140016070470029016802D0AE
:101AA0000422114302E00C4AD21E1140016070472B
:101AB0000029416802D08022114302E0064A7F3AA1
:101AC0001140416070470268034BDB1F1A400260FF
:101AD00002680A4302607047FEFF0000FCFC000041
:101AE000FF8F0000FFF70000FFFD0000FFDF000098
:101AF00042682D4B1A40426042680A434260704778
:101B00008268294B69331A40826082680A43826086
:101B100070478268244B103B1A40826082680A43F7
:101B20008260704741627047C1627047416370478D
:101B300081637047C16370470164704702681B4B43
:101B40001A40026002680A4302607047406B80B22C
:101B50007047806B80B27047C06B80B27047006C7A
:101B600080B27047406A80B27047806A80B2704726
:101B70000246126900200A4200D001207047C94382
:101B800089B201617047024613690020D2680B4098
:101B90000A40002B02D0002A00D001207047C94320
:101BA00089B20161704700008FFF0000FFFC000058
:101BB00030B589B0044600211020059040200490E3
:101BC000244807910691039102910191844223D107
:101BD00001A92046FFF75BFA1F4D20462946FFF773
:101BE000B4FA29462046FFF7B0FA07200002FFF7B3
:101BF000CDFA0E20694608700320487088700120D5
:101C0000C8706846FFF7C7FA684600F02BF8012154
:101C10002046FFF772FA0AE005200591079001A916
:101C20002046FFF734FA00212046FFF78EFA012103
:101C30002046FFF74FFA09B030BD10B50121054825
:101C4000FFF79AFA0549C888401CC880044901205A
:101C5000086010BD0018004040A2FFFFCC0100202A
:101C60000000002010B50278407894079308E20E37
:101C70000021921D002802D0401E90400146032002
:101C80009040C24358489B001818036813400360F3
:101C900002680A43026010BDFEB503267602304694
:101CA000FFF774FA00256846057201244472C47275
:101CB00002A8FFF770FA02A8FFF7D4FF3046FFF73B
:101CC00065FA684604724472C47202A8FFF763FAA8
:101CD0003046FFF75BFA0221684601724472C47213
:101CE00002A8FFF758FA05200002FFF74FFA032178
:101CF000684601724472C47202A8FFF74CFA684643
:101D000004708570C57005714470082269463748B3
:101D1000FEF782FBFEBD10B5044600F06BFD606966
:101D2000C00705D0A069C00702D0E069012107E023
:101D30006069800707D5A069800704D5E0690221A2
:101D40000843E06110BD6069400711D5A0694007F4
:101D50000ED5E06904210843E06125488442F1D1B1
:101D6000244800780028EDD023491E20088010BDAB
:101D7000606900070CD5A069000709D5E069082152
:101D80000843E06119488442F1D100F052FB10BDD4
:101D90006069C00605D5A069C00602D5E0691021BA
:101DA000CEE76069800605D5A069800602D5E069A6
:101DB0002021C5E76069400605D5A069400602D527
:101DC000E0694021BCE760690006E0D5A069000633
:101DD000DDD5E0698021B3E704489CE707489AE72E
:101DE000074898E7024896E700E400E00010024048
:101DF000001C0240F00000200201002000140240FC
:101E000000180240006870470088704700787047EB
:101E100010B50320FEF737FC7F204002FEF73AFBA7
:101E200010BD70B51A250026284605F0E9FE0446C7
:101E300019212F4805F0D3FE01462D480176090AE5
:101E40004176002C0DD02B490170090A41700146E2
:101E50002A46002003F0FAFF204605F002FF304634
:101E600070BD012070BDF1B51A250026284605F089
:101E7000C7FE04000DD001462A46002004F03CF8BD
:101E800020881C49884206D0204605F0EAFE012041
:101E9000F8BD0320F8BD617E207E0F02074300BF1E
:101EA0001921204605F09BFEB84204D0204605F0DB
:101EB000D8FE0220F8BD2A462146009805F0F7FE1C
:101EC000204605F0CEFE3046F8BD10B50848FFF7B5
:101ED000CAFF002809D1064841780278080205495E
:101EE0001043884201D1002010BD012010BD000028
:101EF000F40100203A5A000010B500215E48FEF7B8
:101F0000F0FD5E48016904221143016130BF10BD3C
:101F100010B500215848FEF7E4FD58480169042235
:101F20009143016130BF10BD10B5554C00280ED053
:101F3000544B012812D002281BD0032818D10522A7
:101F400006215148FEF791FC032109020DE0012210
:101F500004214E48FEF789FC002106E005220321FA
:101F60001846FEF782FCFF2101312046FFF709F8F1
:101F700010BD052206211846FEF777FC0121490213
:101F8000F3E7F0B589B002263020002405900396CF
:101F90003002394F089004940694079403A93846F8
:101FA000FEF783FD01256846057184710096C471B2
:101FB000457169463348FEF7A8FB05200002FFF78C
:101FC000E5F810216846017245728572C57202A853
:101FD000FFF7E1F82E4C38462146FEF7B1FD2146C9
:101FE0003846FEF7A2FD01213846FEF78DFD01219E
:101FF0003846FEF776FD09B0F0BD70B501211E48E8
:10200000FEF7B0FD234C2088401C20806088401CD7
:1020100060802089401C208120890A2105F088FEEB
:102020000125002900D1A5722089142105F080FE28
:10203000002900D1E5722089642105F079FE00298C
:1020400000D125732089C82105F072FE002902D134
:10205000657300202081608819218901884208D396
:10206000BFF34F8F05490C48C860BFF34F8F00BFC7
:10207000FDE70A48057070BD0044004000ED00E037
:10208000001C0040001C02400018024000140240E6
:102090003FFF0000CC0100200400FA0504000020EE
:1020A000F8B5354E07460122324D00241146304620
:1020B000FEF73EFE31483B0006F07FFF05040608B0
:1020C0000A0C0D00048806E0448804E0848802E0DD
:1020D000C48800E004892A492005000D05432648EC
:1020E00040300162B562491E0162F8BD70B5224CF4
:1020F0000646204D012204212046FEF719FE002E3F
:1021000011D01E481430FFF77FFEC005C00D0543F7
:1021100019481B49403001622563491E0162206B4A
:10212000C004FCD570BD15481030ECE71149144AC5
:1021300001431148403002620F4A51621049491E62
:102140000162704710B50020FFF7AAFF0120FFF7DA
:10215000CDFF09480A494030016207490A6A054B28
:1021600085331A430A620649491E01620120FFF7BE
:10217000DDFF10BD0000695A00000240A0000018F9
:102180009966AA5500205349C0438860C860FFF78C
:10219000D9FF514F01243C70FFF7F3FE01F05EFCC4
:1021A00000F0A2FA4D4D68882828FCD300266E80E6
:1021B00001F04BFC00F085FFFFF76EFD4848FFF78C
:1021C000F7FC4949474808804849474803F008FF59
:1021D00002F0A0FE002002F007FF002002F018FF2E
:1021E00000F0F8FA6E8068881428FCD33B484680DB
:1021F0003E7000F075FD3E4908603E490860FFF7FB
:1022000064FE3D4D00280AD1E87DA97D0002084307
:10221000FF216931884202D8687D642801D900F025
:1022200050FF3648374F01783548002904D13149ED
:10223000354A0968914224DB3E7004702E48E979E2
:102240000C30095C3148E970002909D08021FEF783
:10225000DCFA08212E48FEF7A1FA002804D006E097
:102260008021FEF7D4FAF4E72A48052101702248BC
:1022700000F045FF21480078002804D00420A87110
:1022800001E03C70067002F0FFFA23480470234816
:1022900006703878002801D001F0A2FB20481D4EBE
:1022A00004700E4C387800280BD100F0B8F800F01C
:1022B000FFF93078002804D0A878042801D001F074
:1022C000BDF960880028EDD06088401E608001F074
:1022D000EFF8E7E700000240FD000020CC010020FD
:1022E00000180040AF040000DC0100200010004096
:1022F0000801002014010020F4010020E800002063
:10230000FE000020F0000020CDCC4C400018024020
:10231000001002400B000020FA000020FC0000200A
:10232000EB000020EE4903788A789A438A70C268ED
:102330000021118040680178890889000170704788
:10234000E849098801221204511AC26811800178F3
:10235000E3488278114381707047E14A01789378AD
:10236000194210D00169C968838A19420BD04168AB
:102370000978CB0706D0890704D4017F002901D151
:10238000017AD170CEE7704770B40169C968828A5A
:1023900011421ED1D24C0178A27811422AD0C168D4
:1023A0000B88002B26D04168CE4D0A78D60712D074
:1023B00092070ED42A889A18438B92B29A4208D96F
:1023C000427AE2700A7802231A430A70C068002138
:1023D000018070BC70472D885B19058B9BB2AB42A6
:1023E000F7D901231A430A70017F0029F1D0007A3E
:1023F000E070EEE770BCA3E7B94994314868027811
:10240000920892000270C9680020088070474168F5
:102410000978890702D5B249007AC8707047B04878
:1024200000B59430FFF799FFAD489430FFF7ACFF4B
:1024300000BDAB48943083E7C36A00221A80836AE8
:1024400000291A80036A1A80436A1A8043691A7045
:1024500083681A7043681A7003691A7083691A7066
:10246000C3681A70C3691A7003D0416C0A80006C8B
:1024700002707047F0B50446C369226B1E780120D4
:10248000A18E984DD268002E0AD00A42A16825D0AC
:10249000097800292BD0E1680A78002A19D026E0B3
:1024A0000A4207D11870E988226AC943491C118081
:1024B000A1680870A16BC968A28F114208D1E169B7
:1024C0000870E988E26AC943491C11806169087093
:1024D000F0BD0870E988626AC94306E00A78002AFC
:1024E00005D10870E988226AC943491C1180A16B93
:1024F000C968A28F114261690BD00978002911D0F7
:10250000A1690A78002A0DD10870E888A16AC04341
:1025100006E00A78002A05D10870E888E16AC0431D
:10252000401C0880A16BCA68A08F02427ED0226B3B
:10253000D268A38E1A4279D062691278002A75D0C7
:10254000A2681278002A71D0A2691278002A6DD090
:10255000E2681278002A69D0606AE9880088401829
:1025600080B20128B4D9A06AE9880088401880B2F6
:102570000128ADD9206AE9880088411889B2052967
:1025800006D8E16AEA880988891889B205295FD9DD
:10259000E988EB8841188AB2E16A09888027CB185C
:1025A0009BB24F4E9A4224D900212046FFF744FFA8
:1025B0002078F070606C018800290ED0226CF378CE
:1025C00012785206520E9A4207D12A88891889B287
:1025D0000A2902D2F1783943F1702A8801210904CD
:1025E000891A0180F078216C08707078401C707036
:1025F000F0BDEA888918EA8889B2801880B28142E1
:1026000026D900212046FFF717FF6078F070606C34
:102610000188002910D0226CF37812785206520EED
:102620009A4209D12A88891889B200E015E00A295E
:1026300002D2F1783943F1702A8801210904891AFC
:102640000180F078216C08703078401C3070F0BD4B
:1026500001212046FFF7F0FEF0BDC9680142FBD022
:10266000206BC068A18E0842F6D0E0680078002890
:102670000ED06069007800280AD1606AE988008875
:10268000401880B2012803D901212046FFF7D4FE6B
:10269000A06900780028DFD0A06800780028DBD18E
:1026A000A06AE9880088401880B20128D0D8F0BD1F
:1026B0000B4800B5001DFFF7DDFE09484C30FFF761
:1026C000D9FE00BD06484C30C0690078002805D10D
:1026D0000348001DC0690078002800D00120704721
:1026E00008000020CC010020FEB5002568460571D9
:1026F000012444718471C47108266946F748009624
:10270000FEF703F868460096F54FC47169463846EF
:10271000FDF7FBFF1020009069463846FDF7F5FFF6
:102720002020009069463846FDF7EFFF40200090DA
:1027300069463846FDF7E9FF02216846C1716946DE
:10274000E8480096FDF7E1FF684604718571802036
:1027500000906846C57169463846FDF7D6FF80216E
:102760003846FEF754F868460471847130200090B2
:102770006846DD4CC57169462046FDF7C6FF10214D
:102780002046FEF742F820212046FEF73EF8D348C7
:1027900040308168D54A11408160D348403081681B
:1027A000FF221204914381608168D243114381600A
:1027B000CB4840308168CE4A11408160C9484030E2
:1027C0008168CC4A114081608168FF221202114366
:1027D0008160FEBDC848017A002901D0032100E0D4
:1027E000C64941837047C448017A002901D10621B6
:1027F000C175704710B50121C148FEF772F9FFF7A6
:10280000E9FF10BDBC480021C1738173704770B5EA
:10281000B94C0120207201F0E9FB0025A57502F0FA
:10282000B7FA03F095FD8021AD48FDF7F0FFFFF703
:10283000E3FDE573E5722575E571A573FFF75CFBB4
:1028400070BD7047AC49487B002801D0401E4873DA
:10285000704710B5A849C87C002806D0401E000665
:10286000000EC87401D1FFF7DCFA10BD70B5A24CA0
:10287000207A002803D1FFF7ECFFFFF7E3FF0821E0
:102880009648FDF78BFF002802D02078002801D061
:10289000FFF7A0FF207A00280BD1FFF79BFFE07D18
:1028A000002806D0401E0006000EE07501D1FFF79B
:1028B000B8FA608B0025002817D0401E0004000CD9
:1028C000608312D18F488570207A00280BD0E07B7E
:1028D000002803D0FFF796FF01F088FBFFF78CFD7F
:1028E000FFF70AFB01E0FFF792FF207A00280ED0E5
:1028F000A07B03280BD1E07B002808D0401E0006F7
:10290000000EE07303D1A573E57101F06FFB70BD9C
:10291000704710B578488178012904D10021817071
:10292000407801F02EFC10BD10B505F00CFF764A82
:10293000764B05F097FC05F0B9FE4B2180B20901FA
:10294000884200D9084610BD10B571494878020781
:1029500073D5F72210404870488905F0F4FE002234
:102960006C4B05F0F3FE0B22D24306F013F805F092
:102970008FFA6949884201DB042010BD674988420B
:1029800001DB092010BD6649884201DD0E2010BD23
:102990006449884201DD132010BD6349884201DD8E
:1029A000162010BD6149884201DB182010BD604926
:1029B000884201DD1B2010BD5E49884201DB1D20DD
:1029C00010BD5D49884201DB202010BD5B49884273
:1029D00001DB222010BD5A49884201DD252010BDAF
:1029E0005849884201DD272010BD5749884201DD42
:1029F0002A2010BD5549884201DB2C2010BD5449C6
:102A0000884201DB2F2010BD5249884201DD312070
:102A100010BD5149884201DB342010BD4F49884226
:102A200001DD362010BD4E49884201DD392010BD40
:102A30004C49884202DD3B2010BDB8E04A4988423B
:102A400001DD3E20F8E74949884201DD4020F3E7F7
:102A50004749884201DB4320EEE74649884201DBD3
:102A60004520E9E74449884201DB4820E4E743493F
:102A7000884201DB4A20DFE74149884201DB4D20E3
:102A8000DAE74049884201DB4F20D5E73E498842DA
:102A900001DB5220D0E73D49884201DB5420CBE7DF
:102AA0003B49884201DD5720C6E73A49884201DBAD
:102AB0005920C1E73849884201DD5C20BCE737492D
:102AC000884201DB5E20B7E73549884201DD61209D
:102AD000B2E73449884268DB6320ADE7001002406A
:102AE00000180240001C0240001402400F00FFFFCB
:102AF000FF0F00F00F0000F0E8000020E02E0000C3
:102B000000440040F40100209A9999999999E93F6D
:102B10005C02002000000440F4FD1440C1CA1140D2
:102B2000B6F30D40AE470940022B07406DE7034066
:102B300010580140D122FB3F9CC40040CDCCEC3F5B
:102B40002B87E63F560EDD3F6666D63F7F6ACC3F59
:102B50004260C53F83C0BA3F46B6B33F8716A93F20
:102B60000E2DA23F14AE973F60E5903FB4C8863F5C
:102B70004E62803FF2D26D3F6F12633FC520503FDF
:102B80004260453F7D3F353FA8C62B3F1B2F1D3F71
:102B90006ABC143F9EEF073F1283003FFA7EEA3E75
:102BA0002DB2DD3E713DCA3EFFE7682044E7FE4896
:102BB000807A41E710B5FC48007EC00701D101F0E2
:102BC000FFF839E710B57F21F748C90541630021B7
:102BD00041718172407801F0D4FA2DE710B5F249C5
:102BE00001200872FFF7EEFF01F0F4F9FFF70FFE86
:102BF00022E770B5FFF7A8FEEB4C0025A072A07D80
:102C0000002805D08021E948FDF7F5FD002800D116
:102C1000A572A07D01280CD1A07A002809D0012638
:102C2000552807D37F206571C00560636672FFF782
:102C3000D5FF70BD4B2802D36179002907D03C280D
:102C4000F7D860790028F4D0FFF7BCFF70BD66713B
:102C5000D74CE578284605F076FDD64AD64B05F0E8
:102C600075FD05F023FD0006000EE07000D1E67052
:102C7000E57070BD10B501F0A1F8FFF79BFF01F002
:102C800090FCC948C17A002901D001214174D3E6E2
:102C900010B5CA494878C20620D5EF2210404870C6
:102CA000888905F050FDC64AC64B05F04FFD0B2242
:102CB000D24305F06FFE05F0EBF8C34906F0D0F9FA
:102CC000C24905F0C1FE01218907884201DCC048E4
:102CD000B2E60121C94305F0AFFFADE60020ABE647
:102CE00010B501F06BF8B24C283CFFF7D1FF410062
:102CF000090E02D161881429F7D300216180FF22D7
:102D0000D205D04203D3A84A01231370517293E62F
:102D100010B5A54AAF4C5378A04206DB0420002929
:102D200001D1042B00D3507086E6AB4CA04205DBEA
:102D300003200029F7D1032BF5D27DE6A74CA04252
:102D400005DD02200029EED1022BECD274E6A44C62
:102D5000A04205DD01200029E5D1002BE3D16BE67F
:102D60000020E0E7FEB507468F480025847D3868DF
:102D7000064605F03FFE00910190012C17D19948BD
:102D800001788B48002909D0C07A022801D9082887
:102D90007ED33146944805F057FE72E08249C079EF
:102DA0008C6B012804D0022802D000283BD069E0B7
:102DB0002088009E019D05F0C6FC8C4A8C4B05F0D6
:102DC000C5FC2A46334605F04DFA02460B46002064
:102DD000014605F017FA05F05BF802906088009E46
:102DE000019D05F0B0FC834A834B05F0AFFC3346F0
:102DF0002A4605F037FA05460E46029805F0FAFD18
:102E00002A46334605F0FEF905F042F80290A08804
:102E1000009E019D05F097FC784A794B05F096FCE1
:102E20002A46334620E0208A009E019D05F08BFC57
:102E30000022744B05F08AFC2A46334605F012FA4C
:102E400002460B460020014605F0DCF905F020F8AB
:102E50000290608A009E019D05F075FC0022694B7E
:102E600005F074FC33462A4605F0FCF904460D468D
:102E7000029805F0BFFD22462B4605F0C3F905F088
:102E800007F80546484C607900280BD0284600E03A
:102E900019E005F0AFFD474A474B05F057FC04F039
:102EA000F7FF0546284605F0A5FD574A574B05F0A4
:102EB0004DFC009B019A05F0A5F904F0E9FF38608C
:102EC000A062E062FEBD4D484D49009B019A05F0AD
:102ED000C9F9D4E746E731B5334C607D617B0843DF
:102EE00015D12078002802D0042060700CE06846DC
:102EF000FFF738FF00210098FFF70AFF44490098C8
:102F0000884201DA0120607229496078887138BDF1
:102F1000F1B534483F4D00780024234900281CD0E7
:102F200008790022401CC0B208710A2813D9204F2A
:102F300008460271503FA600B959284606F0E8F845
:102F400000D2BD59641C0A2CF5DB009816490560B7
:102F500001208871F8BD8A71F8BD0120F9E770B5CC
:102F6000114CE07A00286CD1FFF792FEFF21C905D1
:102F700000250126C84202D32670657204E0410094
:102F8000090E5ED0606225700748A6712430FFF7F5
:102F9000BFFF217C064B8A00503B491C606AC9B2C6
:102FA000985021740A2937E0E800002000180240F8
:102FB000F40100209A9999999999E93F5C020020BF
:102FC0003333333333330B400060834400004C42CF
:102FD000000080BF9A9979400000704066666640A4
:102FE0003D0A57408801002000002041EC51B81EE6
:102FF00085EB05408FC2F5285C8F084048E17A14C4
:10300000AE470740000024407B14AE47E17AA43F5E
:10301000CDCC4C400000A04000D32574A1790029FC
:103020000FD02062A062E062E0616178042901D9DA
:1030300004216170CDB2FFF74EFF6078A84200D046
:10304000A67070BDF74928204873704770B5F64CDC
:103050002078002834D06088401C80B260801F280F
:1030600023D205F0E5FDA16805F0FAFF26460546E6
:103070008E36308905F0DCFD294605F0ABFF05F002
:1030800093FD80B201F0C4FF608805F0D1FD616856
:1030900005F0E6FF0446F08805F0CAFD214605F07C
:1030A00099FF05F081FD80B208E00020207060806B
:1030B000DD4C8434208901F0ABFFE08801F094FFFF
:1030C00070BDD949D94848310880D74800216030BF
:1030D00081700522C27041712C230371C171C182BC
:1030E000642343750623837102734273C273CD4810
:1030F0004370C17281717F21C90501637047F8B5C2
:103100000546C078002803D18021C948FDF77DFB22
:10311000C5486030C17900290BD0022932D003297B
:1031200034D0012904D101F0D2FF284602F01EFA62
:10313000F8BD02F057F9BC4C207800281ED021467B
:103140008431284602F0B6F90020608025462646E4
:1031500084357A3628893189401A05F061FDB54FEA
:10316000394605F071FCA060E888F188401A05F046
:1031700057FD394605F068FC6060F8BD284602F04E
:103180003CF9F8BD284602F017FAF8BD284604F0CD
:1031900083FCF8BDF8B5A44C6034A078042838D17D
:1031A000A04EC8273C36718830460078002500299B
:1031B00004D0491E0904090C718009D0030005F0F0
:1031C000FCFE0BE075E0E0B3E0E0B9E0E0C0E00059
:1031D000030005F0F2FE0C4F1E07121F30421E4680
:1031E000484C1E610320307077807820E0828E4842
:1031F0006030FFF784FF012009E004203070778001
:10320000F020E08288486030FFF779FF022001F06B
:1032100037FCF8BD052030707780032001F030FCCA
:1032200001F0FFFB4B202071032060717E4860306D
:10323000FFF765FFF8BD06203070778020202071F1
:1032400079486030FFF75BFF042001F019FC01F0C2
:10325000E8FB7448807AF072F8BD07203070758002
:10326000F8BD092000E00A203070022000E01E2096
:103270007080F8BD6B4CA06A01F098FC6E49A06AA2
:10328000884202DD6D49884206DB0C2001F0F8FB24
:10329000A06A01F08BFCFEE73078401C30700720FC
:1032A00001F0EEFB5F487580C572F8BD08216448E7
:1032B000FDF774FA002802D1B0790F2806D0082152
:1032C0005F48FDF76BFA00281AD05AE03078401CAE
:1032D00030707780002001F0D3FB64206075E070CF
:1032E000E5826571F571357275724F48B572B571C9
:1032F0006030FFF704FF534805705348057040E005
:10330000B079C043800704D050A20221682001F0A8
:10331000DDF8B0790007800F032832D04BA20221DC
:10332000082001F0D3F82CE088B2C82829D101F098
:1033300078FB26E0082030707780052001F0A0FBA4
:10334000D9E7F07A133815280AD300F043FE354840
:10335000F17A81720B2001F093FB01F062FBFEE732
:10336000314838304580A57075803571757135707C
:103370003448B571057034480570FFF7A2FEFFF7B9
:103380002DFC314C207800288FD03078401E052845
:103390008BD8207863274006400E11281AD1707907
:1033A000401CC0B27071632801D9777103E00A280C
:1033B00001D20A20707172790221682001F044F86C
:1033C000707A0A2802D2401C707203E0B0790121A1
:1033D0000843B07120784006400E212815D170793D
:1033E000411E71710A2801D80A2070717279022178
:1033F000682001F029F8B07A0A2802D2401CB07285
:1034000003E0B07902210843B07120784006400EF5
:10341000312830D13079401CC0B23071632817D9BF
:10342000377119E0E800002094010020AF0400008B
:10343000001802400000F041333353409A9989400C
:10344000001002400A0000200B0000204E47000040
:103450000A2801D20A20307132790221082000F0B6
:10346000F3FFF0790A2802D2401CF07103E0B17931
:1034700004200143B17120784006400E412815D147
:103480003079411E31710A2801D80A203071327911
:103490000221082000F0D8FF307A0A2802D2401C0E
:1034A000307203E0B17908200143B1712570F8BD95
:1034B00070B5FFF754FDFA4DFA4E287A002816D160
:1034C00002F021FFFFF7C2FD687A002807D0287AB2
:1034D000002804D12878002801D1FFF77FFBFFF7EF
:1034E00088FB3088C00701D1FFF754FE308800F018
:1034F00069FCB07A0024012802D1B472FFF7B6F952
:10350000287A002819D1F07A012800D1F472307B92
:10351000012802D13473FFF7FCF9707B01280CD12C
:103520007473288B401C2883FFF7A4FBA87C002819
:1035300003D0288B0A2800D9AC7470BD10B503786D
:103540005418A34208D3012B06D0591AC9B20170EE
:10355000914200D8027010BDA342FBD910BD30B516
:103560000478551A6D1CAC4209DA5A1C944203D8EF
:10357000012901D0591800E06118017030BD0270B6
:1035800030BD10B5C74C2834E278642A22D00146F9
:1035900000236422E01CFFF7E2FFE2792046E17895
:1035A0000C3011540C3800F0FDFE8021BE48FDF7B0
:1035B0002CF9E07900280DD12146012060390870EE
:1035C00008467A3002898E310A81C088C880204638
:1035D000FFF795FD10BD10B5B24C2834E278002AF3
:1035E00026D001460022E01CFFF7A8FFE279204622
:1035F000E1780C3011540C3800F0D4FEE078AA4A7F
:10360000002816D080211046FDF7FFF8E079002849
:103610000ED1A44901203839087008467A30028951
:103620008E310A81C088C88008462E38FFF767FDB2
:1036300010BD80211046FDF7EAF8E7E7FEB598488F
:10364000007A00287ED1994A01241178954E2836B7
:10365000B07851298446F07934D011460978944ADB
:103660004F0631460B790293537801939378009378
:10367000D378CA7A8D7A7F0E497A112F33D08B4F47
:103680003F787F067F0E212F73D0884A1278530629
:103690003246174615370297FF1E0197577D009750
:1036A000977A5B0ED7191237D28ABC46312B70D06D
:1036B0007E4F3B785B065B0E412B6BD0387805283C
:1036C00069D063E161460029FBD1411CF1710328F7
:1036D00003D30020F07102F03BFE72480021283035
:1036E00000F0C3FF3FE06746002FEAD100280BD06F
:1036F000012828D002282ED0521CD0B2F072984255
:1037000042D30020F0723FE068480078000600D500
:10371000022402994B2909D020234B222146301D37
:10372000FFF71DFF5F48283000F0BFFE5D49012014
:10373000383908707A3108460A8914300281C988FC
:10374000C18010E024E1491CC8B27072019988421E
:103750004CD3002042E06D1CE8B2B0720099884260
:1037600044D3002041E04F482830FFF7C8FCF2E086
:10377000FFE7002810D001282BD0022830D0501E9F
:10378000F07201D25B1EF3724648283000F02BFF26
:10379000E9E730E095E0E5E044480078000600D530
:1037A00002240299202908D020222146301DFFF74B
:1037B000C5FE3C48283000F078FE3A4901203839EF
:1037C000087008467A3002898E310A81C088C88024
:1037D000C9E7481E707209D20198401E707205E058
:1037E000681EB07202D20098401EB0722D48283078
:1037F00000F0EEFCB7E72D4B1F783F0600D50524FF
:10380000002806D0012808D0022839D0032851D03A
:10381000A1E02046FFF7B5FE9DE000290FD0187803
:10382000012918D0000600D50524009864289AD2F2
:103830000023642221460298FFF791FE5EE018788B
:10384000000600D50A241019FF2180B2693104F066
:103850006FFAF18262E0000600D50524F078642852
:1038600081D0002364222146F01CFFF778FE0D482A
:10387000F279F178343011540C3800F093FD72E78E
:103880001878000600D508240198285CFF289FD0EE
:1038900060460023FF222146FFF761FE53E000004F
:1038A000E8000020CC010020001802400B0000209E
:1038B000400100202046FFF764FEF078A04287D048
:1038C00049E03B781B0600D50524002840D001289C
:1038D00004D002282AD003283AD03CE0002911D095
:1038E00001291FD03878000600D50524009800284B
:1038F000C5D0002221460298FFF720FE824800F042
:1039000003FD30E73878000600D50A24A24203D22E
:10391000101BFF30693000E0101BF0827A4800F085
:103920007EFC20E72046FFF756FE1CE738780006AD
:1039300000D508240198285C0028A0D06046002209
:103940002146FFF7FBFD29466F4800F0ADFC0AE772
:103950002046FFF740FEFEF746FF6C48007A00283D
:1039600014D015E00420B07068480121817502F080
:10397000EFFC01F048F8654800213C300170A022BE
:1039800042803222027142718171FEBDFEF722FF38
:103990005E480A21C1745E4900200870FEBD70B502
:1039A0005A4C207A00280FD00220A07300F02EFB82
:1039B00000255549A575032088700121524800F063
:1039C00054FE25730120E07070BD5048817B0229B0
:1039D00005D1017A002902D003218173C173704798
:1039E00010B5FFF7FBF810BD10B50A46904201D99B
:1039F000032101E00321104604F09AF910BD88422A
:103A000001D9401A00E0081A80B2704710B5044688
:103A10004048814201DA404815E0084604F0EAFFD8
:103A20003E4A3F4B04F0FBFB14223E4B04F08EFE5B
:103A300000223D4B04F0FEFB384A3C4B524204F05E
:103A400085FE04F025FA206010BD3A48384901622D
:103A5000394901603649491E016270473548344989
:103A600001623549491C01603149491E01627047B4
:103A70001CB5012069460871002088712021009141
:103A800069462E4CC8712046FCF73FFE2021204697
:103A9000FCF7BDFE1CBD1CB5012069460871002065
:103AA0008871022100916946254CC8712046FCF7B7
:103AB0002CFE02212046FCF7AAFE1CBD1CB50120ED
:103AC00069460871002088711021009169461B4CDD
:103AD000C8712046FCF719FE10212046FCF797FE1E
:103AE0001CBD1CB501206946087100208871402169
:103AF00000916946114CC8712046FCF706FE402132
:103B00002046FCF784FE1CBDF4010020E8000020E4
:103B10000B000020CDCC84403333F33F9A99999920
:103B200099991040000034400000F03F6666FE3F67
:103B30009966AA55400002400000695A001C0240E4
:103B40000010024070B50446EF4DC00704D00F22AC
:103B500006212846FCF789FEA00704D50F22032181
:103B60002846FCF782FE600704D50F220421284670
:103B7000FCF77BFEE54D200704D50F2202212846E5
:103B8000FCF773FEE00604D50F2203212846FCF75C
:103B90006CFEA00604D50F2205212846FCF765FE21
:103BA000600604D50F2206212846FCF75EFE70BD94
:103BB00008B503204002FDF7E9FA182069460870AD
:103BC000012048708870C8706846FDF7E4FA08BDA7
:103BD00001460020CA0704D1401C4908C0B2082889
:103BE000F8D3704700B5FFF7F3FF000200BD30B512
:103BF00089B00446FFF7F6FF83B200220F200002CF
:103C0000049001200192C002039200920693029256
:103C1000102C1ED02021BE4D0591079005A92846E5
:103C2000FCF7D8FA69462846FCF7E5FA2046FFF784
:103C300089FFFFF7BDFF012221462846FCF793FBD1
:103C400001212846FCF7F1FA2846FCF712FB09B0DF
:103C500030BD6021DFE770B588B00446FFF7C2FFD2
:103C6000AC4B81B2187800280AD01C752046FFF7AB
:103C7000AFFF8000C018A8498161002008B070BD66
:103C8000187D0122A04318751C700020920200923A
:103C90000F220390120201900290012504926020ED
:103CA000ED0205AE23C69A4E05A93046FCF792FAFE
:103CB00069463046FCF79FFA2046FFF743FF21464E
:103CC0003046FCF77CFB012221463046FCF7E7FA40
:103CD000FFF76EFF01213046FCF74DFB29463046C9
:103CE000FCF76DFB012229463046FCF73CFB012125
:103CF0003046FCF74AFB01213046FCF7D8FA002198
:103D00003046FCF7D4FA01213046FCF78EFA3046F3
:103D1000FCF7AFFA0120B1E770B588B00546012085
:103D20008002009000210F200002049001240391E2
:103D3000019102916020E40205AA13C2744E05A904
:103D40003046FCF747FA69463046FCF754FA2846F5
:103D5000FFF7F8FE29463046FCF731FB01222946E1
:103D60003046FCF79CFAFFF723FF01213046FCF7B1
:103D700002FB21463046FCF722FB01222146304659
:103D8000FCF7F1FA01213046FCF7FFFA0121304639
:103D9000FCF78DFA00213046FCF789FA0121304604
:103DA000FCF743FA3046FCF764FA67E700B5FFF723
:103DB0000FFF5A4940004018408800BD10204AE7D4
:103DC000082048E730B4534B1A7D002A10D0002158
:103DD000012420468840024206D08C408900C91840
:103DE000E0B2896930BC0847491CC9B20829F0D340
:103DF00030BC7047F8B5464F01213846FCF7D8FA79
:103E0000012846D002213846FCF7D2FA012842D0D8
:103E100004213846FCF7CCFA01283ED00821384668
:103E2000FCF7C6FA01283AD010213846FCF7C0FA50
:103E3000012836D020213846FCF7BAFA012832D0C2
:103E400040213846FCF7B4FA01282ED080213846AC
:103E5000FCF7AEFA01282AD0BC1521463846FCF7FB
:103E6000A7FA012825D0640021463846FCF7A0FABD
:103E700001281ED0640021463846FCF799FA012833
:103E800017D0640021463846FCF792FA012815D075
:103E900034E001210EE002210CE004210AE00821B7
:103EA00008E0102106E0202104E0402102E080210A
:103EB00000E021463846FCF782FA1FE021463846EA
:103EC000FCF77DFA3846FCF76AFA124D06092978A4
:103ED00000240846E040C00703D1641CE4B2082C6B
:103EE000F7D300223846FCF7DAF9600040198680E3
:103EF00068782978084368700020287000213846C7
:103F0000FCF793F9F8BD000000180240001C0240C5
:103F1000002C00405C020020573C00002C020020D6
:103F20007FB5BC2000900F20174D01240290019412
:103F300069462846FCF74CFA03204002FDF726F9B3
:103F40001C206A461073002151739173D47303A827
:103F5000FDF721F901212846FCF759FA01212846ED
:103F6000FCF744FA20212846FCF749FA7FBD10B53A
:103F700001210548FCF74BFA10BD10B50248FCF7CB
:103F800048FAFEF737FC10BD0028004010B50221AA
:103F9000F948FCF73AFC10BD10B50446B031C8B280
:103FA00001F035FF2009103001F031FF2007000F2C
:103FB00001F02DFF10BD70B515460024FFF7ECFF92
:103FC000002D284601F02CFF2146641CE4B2832911
:103FD000F6D370BD10B50024002221461046FFF72D
:103FE000EAFF641CE4B2082CF6D310BD10B5FFF74D
:103FF000F1FFAE2001F00BFF8D2001F008FF102033
:1040000001F005FF052000F02AFE10BD70B5DB4C65
:104010000025658060881428FCD96580AE2001F0F9
:10402000F6FE8D2001F0F3FE142001F0F0FEAF202B
:1040300001F0EDFE60881428FCD9658070BDF8B5EC
:1040400015460E460746FFF7A7FFCD490024680135
:104050004518285D01F0E4FE641CE4B2102CF8D38E
:10406000761CF1B23846FFF797FF00242819007C30
:1040700001F0D6FE641CE4B2102CF7D3F8BDF7B5FE
:10408000203A009800240F46D5B27F2803D900209B
:104090008F1CFFB200903946FFF77EFFB94E2D010D
:1040A0002819305C01F0BCFE641CE4B2082CF7D384
:1040B0007F1CF9B20098FFF76FFF002428198019C0
:1040C000007A01F0ADFE641CE4B2082CF6D3FEBD0C
:1040D00010B5040008D0642C20D020220021362006
:1040E000FFF7CDFF39221FE0202200213620FFF705
:1040F000C6FF202200213E20FFF7C1FF2022002121
:104100004620FFF7BCFF202200214E20FFF7B7FF1B
:10411000202200215620FFF7B2FF10BD31220021DE
:104120003620FFF7ACFF302200213E20FFF7A7FF2B
:104130000A21204603F0FCFD0A46303200214620C9
:10414000FFF79DFF192200214E20FFF778FF10BDD9
:104150008D488F4A03788D48002B017810780AD05B
:10416000002807D10120002903D08A498978032932
:1041700000D1107070470028FCD00029FAD100202F
:10418000F7E710B50024042800D90420030004F048
:1041900014FF070507090B0D0F1112000B240AE08D
:1041A0000D2408E00F2406E0112404E0132402E0AB
:1041B000152400E01724224600216020FFF73FFF6E
:1041C000621C00217020FFF73AFFFFF7C1FF10BD0E
:1041D000F8B50546C079022820D800281ED06E49BF
:1041E00080000F46303F085800242E4608363860BD
:1041F0000EE039686300C85C5918925D4978A242A4
:1042000001D13E2200E02022FFF739FF641CE4B216
:104210006148EA792C38805CA042EAD8F8BD10B534
:104220000446C07DA17D00020843642822D3FF21FB
:104230006931884202D3A175080AE075E07DA17D4D
:1042400000020843642103F073FD3030C2B2022142
:104250005220FFF714FFE07DA17D000208430A28E9
:104260000AD30A2103F064FD0A2103F061FD0A4626
:10427000303202E02022EAE7202202215A20FFF712
:10428000FEFEE07DA17D000208430A2103F050FDFF
:104290000A46303202216220FFF7F1FE3D22022160
:1042A0006A20FFF7ECFE10BD70B54018847C480012
:1042B000801CC5B2642C06D36421204603F038FD6F
:1042C0003030C2B200E0202229465220FFF7D7FE4C
:1042D0000A2C09D30A21204603F02AFD0A2103F003
:1042E00027FD0A46303200E0202229465A20FFF7F7
:1042F000C6FE0A21204603F01BFD0A46303229463D
:104300006220FFF7BCFE70BD10B50446407D6428F6
:1043100005D3642103F00CFD3030C2B200E020224E
:1043200006215220FFF7ABFE607D0A2808D30A2140
:1043300003F0FEFC0A2103F0FBFC0A46303200E0E9
:10434000202206215A20FFF79AFE607D0A2103F001
:10435000EFFC0A46303206216220FFF790FE25224C
:1043600006216A20FFF78BFE10BDC079022815D008
:10437000012815D003207047001C0240CC0100200A
:104380004F9800009F920000F3000020F0000020F2
:10439000EF000020F40100206C0100200020EAE77B
:1043A0000420E8E770B50446FFF7DFFF0546E07834
:1043B00064280DD36420E070312229465220FFF793
:1043C0005EFE302229465A20FFF759FE30221BE0BC
:1043D000202229465220FFF752FEE0780A2808D30F
:1043E0000A2103F0A5FC0A2103F0A2FC0A463032A0
:1043F00000E0202229465A20FFF741FEE0780A21FA
:1044000003F096FC0A46303229466220FFF737FE59
:10441000252229466A20FFF732FE70BD034601209F
:1044200000E058430A46491EC9B2002AF9D1A2E762
:1044300010B501240A2801D2204610BD0A2103F03C
:1044400077FC641CE4B2F5E7F7B50746002602984E
:10445000FFF7EEFF0546002423E0281B401EC1B2F3
:104460000A20FFF7DBFF0146029803F061FC0A21F6
:1044700003F05EFC002E05D1681E844202DA00299A
:1044800006D001263031E000C019CAB2C0B203E044
:10449000E000C019C0B220220199FFF7F0FD641CB2
:1044A000E4B2AC42D9D32846FEBD10B502796420EF
:1044B000424306214A20FFF7C7FFC0004A30C0B27E
:1044C0004B220621FFF7DBFD10BD54E7F8B5174678
:1044D0000E46044600250CE031462046FFF7CFFD8E
:1044E0000834E4B2782C02D90024B61CF6B26D1C54
:1044F000EDB27A5D002AEFD1F8BDFFB581B0044678
:104500001E46039804F050FB82B220460299FFF742
:104510009BFFC0000019F700C5B2002E2DD02E223F
:1045200028460299FFF7ABFD012419E021460A2035
:10453000FFF774FF04F07CFB039904F091FD04F095
:1045400033FB80B20A2103F0F3FBE0000A46401976
:10455000C01E3032C0B20299FFF791FD641CE4B274
:10456000B442E3D97819401DC0B20A9A0299FFF704
:1045700086FD022E0DD905B0F0BD28460A9A029993
:10458000FFF77DFD28460830C0B220220299FFF7D0
:1045900076FD78190D30C0B2FDA20299FFF796FFA3
:1045A000E9E710B5FB48007800280FD0FA4C2078D6
:1045B00000280CD00B2200216020FFF740FD0C22C8
:1045C00000217020FFF73BFD0020207010BD1C2251
:1045D00000216020FFF733FD1D2200217020FFF72E
:1045E0002EFD0120F1E710B5C47AEC49A0000A586D
:1045F00006211A20FFF76AFF641CE4B20A2C09D3D3
:104600000A21204603F094FB0A2103F091FB0A469D
:10461000303200E0202200213220FFF730FD0A2155
:10462000204603F085FB0A46303200213A20FFF78E
:1046300026FD10BD70B5164605460024FFF7ACFCFC
:10464000002001F0EDFB2819641CE4B2B042F7D958
:1046500070BD10B5422200213220FFF7EBFF42224D
:1046600001213220FFF7E6FF10BD70B50446002996
:1046700002D0FFF7AFFC01E0FFF7EBFFA079FFF7F7
:1046800080FDA078002815D0012812D12046FFF720
:104690006CFE014602223220FFF7D1FC2046FFF7D4
:1046A00081FE032206213220FFF7C9FC2046FFF7D6
:1046B000FCFE70BDB9482146283040680C310578B1
:1046C000E079415CE170002806D0012838D002284A
:1046D00073D0032833D1AFE0B1A200210220FFF74D
:1046E000F5FE722202212846FFF7A4FF7222032161
:1046F0002846FFF79FFF722204212846FFF79AFF02
:10470000022203213220FFF79AFC2046FFF74AFEDF
:10471000722205212846FFF78DFF702206211A20FC
:10472000FFF788FF702207211A20FFF783FF03227B
:1047300006213220FFF783FC2046FFF7B6FE9FE0FC
:1047400099A200210220FFF7C1FE7222042128460F
:10475000FFF770FF722205212846FFF76BFF022248
:1047600004213220FFF76BFC2046FFF71BFE72226C
:1047700002212846FFF75EFF722203212846FFF739
:1047800059FF482202213620FFF779FC2046FFF727
:1047900046FD702206212846FFF74CFF70220721B4
:1047A0002846FFF747FF532206213620FFF767FC14
:1047B0002046FFF7A9FD63E0FFE77DA2002102206C
:1047C000FFF784FE722202212846FFF733FF722290
:1047D00003212846FFF72EFF522202213620FFF741
:1047E0004EFC00212046FFF75FFD7222042128467F
:1047F000FFF720FF722205212846FFF71BFF472203
:1048000004213620FFF73BFC01212046FFF74CFD39
:10481000702206212846FFF70DFF70220721284647
:10482000FFF708FF422206213620FFF728FC02216D
:104830002046FFF739FD23E05FA200210220FFF7A9
:1048400045FE722202212846FFF7F4FE7222032160
:104850002846FFF7EFFE722204212846FFF7EAFE02
:10486000022203213220FFF7EAFB2046FFF79AFDE0
:10487000722205212846FFF7DDFE2046FFF7B3FE32
:104880002046FFF7A5FC70BD10B5FFF77FFB4C4C31
:1048900002212046FBF7B9FF0A2000F0E0F90221CF
:1048A0002046FBF7B4FF0A2000F0D9F90221204688
:1048B000FBF7ABFF0A2000F0D2F9AE2001F0A7FA17
:1048C000D52001F0A4FA802001F0A1FAA82001F07F
:1048D0009EFA3F2001F09BFAD32001F098FA0020C5
:1048E00001F095FA402001F092FAAD2001F08FFA24
:1048F0008B2001F08CFAA12001F089FAC82001F088
:1049000086FADA2001F083FA122001F080FA812081
:1049100001F07DFAFF2001F07AFAD92001F077FA50
:104920001F2001F074FADB2001F071FA402001F041
:104930006EFA332001F06BFAA62001F068FAFFF757
:1049400049FBAF2001F063FA1E48002242804188F3
:104950001429FCD942801C480078002803D1012189
:104960001A48FFF782FE10BDF8B51E4617460C46E2
:104970000546FFF711FB384601F052FA641CE1B21C
:104980002846FFF709FB304601F04AFAF8BD00005F
:1049900020000000ED000020300100204401002034
:1049A00043435420200000004853492020000000C9
:1049B00052474220200000005343454E450000006E
:1049C000001C0240CC010020F0000020F401002077
:1049D00070B5164612090D460446092A01D8303230
:1049E00000E03732FFF74BFB3207120F0834092A79
:1049F00003D8E0B22946303202E0E0B2294637322D
:104A0000FFF73DFB70BD10B5FFF7E4FA82A202216B
:104A10000820FFF75BFD84A204210820FFF756FD64
:104A200010BD10B5834C0A21207803F081F9303095
:104A3000C2B200210846FFF722FB0A21207803F0CA
:104A400077F90A46303200210820FFF718FB3D2293
:104A500000211020FFF713FB10BDFFB581B01D46EC
:104A600016460746002408E02001C019325DC0B296
:104A70000299FFF7E4FA641CE4B2AC42F4D37AE59D
:104A800010B5030004F099FA0D080D13171B1F252C
:104A90002B3C5C80868C3B00FFF79CFA0423664A23
:104AA00002E0654A0423121D0421202025E0624A09
:104AB00004230832F8E7604A04230C32F4E75E4A24
:104AC00004231032F0E7FFF785FA5B4A042314321F
:104AD000EAE7FFF77FFA584A04231832E4E7FFF7C2
:104AE00079FA554A06232D3204211020FFF7B5FF2D
:104AF000514A0223921E06211020FFF7AEFF10BD7F
:104B0000FFF768FA4C4A0723333202211020FFF7DF
:104B1000A4FF494A0223921E04211020FFF79DFFA3
:104B2000454A0423143219463020FFF796FF424AC3
:104B30000523283206211020FFF78FFF3FA21EE039
:104B4000FFF748FA3C4A07233A3202211020FFF7C8
:104B500084FF394A0223921E04211020FFF77DFFB3
:104B6000354A0423183219463020FFF776FF324ABF
:104B70000523283206211020FFF76FFF30A20621FF
:104B80006020FFF7A3FC10BDFFF724FA2A4A042394
:104B90001C3289E7FFF71EFA274A0423203283E7F5
:104BA000FFF718FA244A042324327DE710B504469F
:104BB00003F0FAFF3030C2B202215820FFF75FFA4B
:104BC0002E2202216020FFF75AFA1E49204604F0E7
:104BD00047FA03F0E9FFC0B20A2103F0A9F80A4638
:104BE000303202216520FFF74AFA1749204604F0C7
:104BF00037FA03F0D9FF80B20A2103F099F80A4688
:104C0000303202216D20FFF73AFA56220221752038
:104C1000FFF735FA10BD000053573A323032312DCC
:104C200031312D313100000048573A564552303667
:104C300000000000F20000205E9200003A6D41008A
:104C40003A754100000020410000C842002805D00C
:104C50000022491E02D30270401CFAE77047E62387
:104C6000002207E0002101E0491C89B29942FBD3F0
:104C7000521C92B28242F5D37047000010B5014633
:104C80005148FCF71CF9514B51491878002802D1C2
:104C90004A88C82AFAD30020187010BDF8B54A4FC8
:104CA0000D46064601213846FCF70EF9002404E0C3
:104CB000305DFFF7E3FF641CE4B2AC42F8D300219F
:104CC0003846FCF701F9F8BD70477CB50124684609
:104CD000047100258571042000906846C4713D4E22
:104CE000447169463046FBF710FD684604718571D2
:104CF000022000906846C471447169463046FBF753
:104D000004FD684601948571402000906846C47196
:104D10004471314C69462046FBF7F7FC032202211F
:104D20003046FBF7A2FD032204213046FBF79DFD30
:104D3000032240212046FBF798FD00212248FCF782
:104D4000C3F87CBDFEB5FFF7C0FF102168460180A7
:104D50000025458085800321C1801B4E6946304671
:104D6000FCF795F805200002FCF710FA0A216846C6
:104D70000172012444728472C47202A8FCF70BFA17
:104D800001213046FCF792F8104884700570FEBD92
:104D900010B500210C48FCF789F810BD10B50121B1
:104DA0000948FCF783F810BD0749084801E0CA68C4
:104DB00042708A681206FAD48278002A01D1FF2252
:104DC000CA6001210170704700080040780100208E
:104DD000CC01002000100240001C024010B5FE482B
:104DE00081680F22120491438160816801221204BC
:104DF0001143816081680F22120591438160FEF7A3
:104E000037FEF6490020087010BD10B5F2488168E1
:104E10000F2212069143816081680122120611431C
:104E20008160EF488168F02291438160FEF733FE94
:104E3000EC490020087010BD10B5E74881680F22CA
:104E4000120591438160816801221205114381603E
:104E500081680F22120491438160FEF72FFEDF4923
:104E60000120087010BD10B5DD488168F022914323
:104E700081608168102211438160D74881680F22C8
:104E8000120691438160FEF72CFED649012008707E
:104E900010BD10B5FFF7D0FFFFF7E5FF10BD1CB543
:104EA000002069460871C871CB4C6220403C0090DC
:104EB0002046FBF72AFC1021009169462046FBF7AB
:104EC00024FC04200090C64869464038FBF71DFCCE
:104ED0001CBD1CB50020694608710220C871BE4C7B
:104EE0006220403C00902046FBF70FFC102100910F
:104EF00069462046FBF709FC04200090B848694643
:104F00004038FBF702FC802000906946B648FBF76A
:104F1000FCFB1CBD10B5FFF7BCFFB14881680F2238
:104F2000120291438160816882151143816010BD36
:104F300010B5AA49044640000978000E02D00029A5
:104F400003D004E0012902D010BDFFF775FF7F21D7
:104F5000C905204604F008F90146A44A012001F0E1
:104F6000B3F810BD10B504464000010E9D4802780C
:104F700002D0002A03D004E0012A02D010BDFFF7BE
:104F800072FF9A4A2146022001F09EF810BD10B52A
:104F9000044643009148190E027802D1180E1043BE
:104FA00008D1012A01D1FFF719FF904A21460120BB
:104FB00001F08AF810BD70B504468A487F25ED05DA
:104FC0000278AC4202D1002A04D070BD012A01D17E
:104FD000FFF71BFF2946204604F0C6F80146834A26
:104FE000022001F071F870BD10B504464B2000019D
:104FF000844200D30446204603F01AFE7C4903F0A5
:1050000023FDFFF795FF7B48C4807B48048210BDD9
:1050100010B504464B200001844200D304462046CC
:1050200003F006FE724903F00FFDFFF79BFF714886
:1050300004817148448210BD10B501466B4A0420BA
:1050400001F042F810BD10B504464B200001844227
:1050500000D30446204603F0EBFD654903F0F4FC61
:105060000146624A042001F02FF862480480624839
:10507000048010BD10B504464B200001844200D3CB
:105080000446204603F0D4FD594903F0DDFC0146F7
:105090007F20C00504F074F8FFF78DFF5548448069
:1050A0005548448010BD10B504464B200001844291
:1050B00000D30446204603F0BBFD4D4903F0C4FC79
:1050C000FFF765FF4B4884804B48848010BD10B5C6
:1050D0004A4900200870FFF79BFF0020FFF784FF7C
:1050E00010BD70B50446FFF7F2FF208803F0A0FD65
:1050F000434D296803F0B4FF03F056FD80B2FFF77B
:10510000A2FF608803F094FD296803F0A9FF03F073
:105110004BFD80B2FFF7AEFFA08803F089FD296840
:1051200003F09EFF03F040FD80B2FFF7BCFF70BDAF
:10513000F1B586B006980027C088009006983D46D5
:10514000C4683E4680682F4903F08AFF03F02CFDB7
:1051500000062D49800D08580290FF210098693102
:10516000884201D3002000907F200299C00581422F
:1051700000DB02907F20C005844200DB04463C2116
:10518000009802F0D5FD062102F0D2FD08460491F8
:1051900003F046FD0190009803F04AFD1B4903F01F
:1051A00053FC019903F0ECFF03907F20C0050299A6
:1051B00003F0E6FF214603F053FF009002990398A5
:1051C00003F04EFF7F21C90503F0CEFF214603F017
:1051D00047FF01907F201BE0401C02403901002066
:1051E000401002403A010020001802400010004028
:1051F000000096440E020020480200209401002086
:105200001C0100200000C84260A2000000007042A3
:10521000C005039903F0B4FF029903F021FF7F2139
:10522000C90503F0A1FF214603F01AFF04990B0002
:1052300003F0C3FE0604070B0F1216192746054696
:1052400001E0019F2546009E0DE025460646009F91
:1052500009E0009F019D01E0009D0746264602E00F
:10526000019E009D27462946384603F0B3FE31468D
:1052700003F0B0FE01460290384603F0E5FB0190D2
:105280002846029903F0E0FB00903046029903F0B3
:10529000DBFB0546F848844217DAF84EF84F0198D0
:1052A00003F0A8FB32463B4603F050FA02F0F0FD53
:1052B00001907608F34F284603F09CFB32463B46AC
:1052C00003F044FA02F0E4FD05460099019803F06A
:1052D00081FE294603F07EFE07462146019803F031
:1052E000BFFE394603F0B0FB01902146009803F061
:1052F000B7FE394603F0A8FB06462146284603F0D0
:10530000AFFE394603F0A0FB0746019803F072FB9D
:10531000DD4ADE4B03F01AFA02F0BAFD04463046CD
:1053200003F068FBD84AD94B03F010FA02F0B0FD45
:105330000546384603F05EFBD34AD44B03F006FA29
:1053400002F0A6FD06466000D14F000E0DD02046AB
:1053500003F050FB3A46CF4B03F0F8F9CE4ACF4B5F
:1053600002F050FF02F094FD04466800000E0DD0DC
:10537000284603F03FFB3A46C64B03F0E7F9C64A1E
:10538000C64B02F03FFF02F083FD05467000000EA1
:105390000DD0304603F02EFB3A46BE4B03F0D6F953
:1053A000BD4ABE4B02F02EFF02F072FD0646BC4F16
:1053B0002046394603F054FE03F0F6FB06990880B8
:1053C0003946304603F04CFE03F0EEFB0699888028
:1053D0003946284603F044FE03F0E6FB0699488070
:1053E00007B0F0BD10B50020FFF72DFE0020FFF73D
:1053F00041FE0020FFF757FE10BDF8B504460079C6
:10540000A84A4100A748583208184038891800882F
:1054100040390D88002822D0E17800291FD01838A3
:1054200086B2084603F004FC9F4903F019FE9F4929
:1054300003F00AFB9E4903F0CDFD0746304603F01A
:10544000F7FB394603F00CFE9A4903F0C3FD9A4975
:10545000096803F005FE03F0A7FB80B200E000201E
:10546000FFF7C2FD002D21D0E07800281ED0183DA6
:10547000ADB203F0DDFB8C4903F0F2FD8B4903F084
:10548000E3FA8B4903F0A6FD0446284603F0D0FB5F
:10549000214603F0E5FD874903F09CFD8649096834
:1054A00003F0DEFD03F080FB80B200E00020FFF798
:1054B000AFFDF8BDFEB5054600790C4641007948C0
:1054C000784A08185832891840390E8840387A4985
:1054D000008809680091002821D0E97800291ED0B1
:1054E000183880B20190084603F0A2FB6E4903F021
:1054F000B7FD6E4903F0A8FA6D4903F06BFD07464E
:10550000019803F095FB394603F0AAFD694903F0C1
:1055100061FD009903F0A4FD03F046FB00E00020CC
:10552000E080002E1FD0E87800281CD0183EB6B2CC
:1055300003F07EFB5C4903F093FD5C4903F084FAC1
:105540005B4903F047FD0546304603F071FB2946F1
:1055500003F086FD574903F03DFD009903F080FDFF
:1055600003F022FB00E000202081FEBD70B505465F
:10557000C07D524EA97D000234680843E080687DFA
:1055800003F056FB4E4903F05FFAA060E87800286C
:105590000AD003F04DFB444903F062FD434903F098
:1055A00053FA434903F016FDE0602046FFF7C0FDC3
:1055B0003068FFF796FD70BDF8B505463F49807C21
:1055C000404F00260C68002819D003F0BCF83A467A
:1055D0003D4B03F0BBF800223C4B02F043FE2C4A4B
:1055E0002C4B03F0B3F82C4A2C4B02F00BFE00229C
:1055F000374B03F0ABF803F059F8208000E0268029
:10560000E87C002819D003F09EF83A462E4B03F0B0
:105610009DF800222D4B02F025FE1D4A1D4B03F084
:1056200095F81D4A1D4B02F0EDFD0022284B03F0BA
:105630008DF803F03BF8608000E06680287D00284C
:1056400048D003F080F83A461F4B03F07FF8002261
:105650001E4B02F007FE0E4A0E4B03F077F80E4A7F
:105660000E4B02F0CFFD0022194B03F06FF803F050
:105670001DF8A0802FE00000CDCCCC3ECDCCCCCC12
:10568000CCCCEC3F6666F23F666666666666EE3FC9
:10569000AE47E17A14AEEF3F7B14AE47E17A843F28
:1056A00000009644B0A100000000C04200401C462B
:1056B0000AD7233D0000C0411C010020200100202A
:1056C0000000C8421D5A643BDF4FD53F00E06F40E9
:1056D00000C09240A6802046FFF703FDF8BD000001
:1056E000FD48826820218A438260FB484038026876
:1056F0008A430260C16B032292029143C1637047E7
:10570000F548826820218A438260F3484038026865
:105710008A43026002680A43026042680A434260A8
:10572000C16B032292029143C1637047002800D0ED
:10573000E6E7D5E710B5E84C403C2068202120463C
:10574000FBF763F810212046FBF75FF800BF00BFAE
:1057500000BF00BF00BF20212046FBF758F800BF64
:1057600000BF00BF00BF00BF10212046FBF74FF86D
:1057700010BD10B5FFF7C4FFD74C2021403C204698
:10578000FBF745F800BF00BF00BF00BF00BF1021FE
:105790002046FBF73CF800BF00BF00BF00BF00BFC2
:1057A00010212046FBF731F800BF00BF00BF00BF4B
:1057B00000BF20212046FBF728F810BD10B50120BE
:1057C000FFF7B4FF00BF00BF00BF00BF00BF102144
:1057D000C14C403C2046FBF71AF800BF00BF00BF99
:1057E00000BF00BF20212046FBF711F800BF00BF1B
:1057F00000BF00BF00BF10212046FBF706F800BF26
:1058000000BF00BF00BF00BF10212046FAF7FFFF16
:1058100010BD10B50120FFF789FF00BF00BF00BF1A
:1058200000BF00BF1021AC4C403C2046FAF7EFFF10
:1058300000BF00BF00BF00BF00BF20212046FAF715
:10584000E4FF00BF00BF00BF00BF00BF1021204623
:10585000FAF7DBFF00BF00BF00BF00BF00BF102191
:105860002046FAF7D4FF10BD70B59B4D0024403D93
:1058700020212846FAF7C9FF00BF00BF00BF00BFC4
:1058800000BF00BF0020FFF751FF00BF00BF00BFF7
:1058900000BF00BF10212846FAF7B7FF07E0641CDD
:1058A000E4B2FA2C03D9FFF764FF012070BD202178
:1058B0002846FAF773FF0028F1D100BF00BF00BFF0
:1058C00000BF00BF10212846FAF7A1FFFFF718FF1D
:1058D000002070BD70B5804E0546403E1021304618
:1058E000FAF795FF0024E80904D020213046FAF7A2
:1058F0008CFF03E020213046FAF789FF6806050E89
:1059000000BF00BF00BF00BF00BF10213046FAF744
:105910007CFF00BF00BF00BF00BF00BF00BF00BFD3
:1059200000BF00BF00BF00BF00BF00BF00BF00BF7F
:1059300000BF00BF00BF00BF00BF00BF1021304646
:10594000FAF765FF641CE4B2082CCCD370BDF8B53F
:10595000074600242046FFF7E9FE5F4E0025403E43
:105960006006040E10213046FAF751FF00BF00BF59
:1059700000BF00BF00BF10213046FAF746FF00BF4E
:1059800000BF00BF00BF00BF20213046FAF706FF6E
:10599000002801D0641CE4B200BF00BF00BF00BFFC
:1059A00000BF10213046FAF732FF6D1CEDB2082D12
:1059B000D6D3002F03D0FFF701FF2046F8BDFFF735
:1059C00028FFFAE770B50D46FFF7B4FE0024434EFA
:1059D0000DE0305DFFF77EFFFFF746FF002804D0A3
:1059E000FFF7C7FE0020C04370BD641CE4B2AC42A8
:1059F000EFD3FFF7BEFE002070BDFFB581B01D469E
:105A00000F460024FFF796FE344E08E0305DFFF7A6
:105A100061FFFFF729FF00280CD1641CE4B2BC42EF
:105A2000F4D3FFF787FEF05DFFF754FFFFF71CFF8D
:105A3000002805D0FFF79DFE0020C04305B0F0BD53
:105A40006F1E039C09E0BC4201D1002000E0012050
:105A5000FFF77DFF3055641CE4B2AC42F3D3FFF78F
:105A600088FE0020EAE71E4A50701C48D1700121D0
:105A7000153001800021418070477FB504206946C0
:105A8000088101244C811748009040208880A42080
:105A9000154DC8802846FAF70DFFA002FBF776FBEC
:105AA0000C2069460873022048738C73CC7303A8DA
:105AB000FBF771FB03A8FCF7D5F801212846FAF79C
:105AC00056FF0A210020FFF7CEFF05480321001DE5
:105AD000FFF7BCF87FBD0000401402409F02002089
