:020000040000FA
:10000000500B002089010000690A00006B0A000003
:1000100000000000000000000000000000000000E0
:10002000000000000000000000000000830A000043
:100030000000000000000000870A0000890A00009C
:10004000E51D0000E91D0000ED1D0000F11D000090
:100050000000000000000000970100009701000070
:100060009701000000000000794D0000970100009A
:10007000F75C0000970100003B1C000097010000A6
:100080001720000000000000970100009701000009
:100090000000000097010000970100009701000098
:1000A000C93D00009701000097010000000000001A
:1000B0004F3F0000970100009701000097010000EA
:1000C00000F002F800F034F80CA030C8083824180A
:1000D0002D18A246671EAB4654465D46AC4201D180
:1000E00000F026F87E460F3E0FCCB646012633427E
:1000F00000D0FB1AA246AB46334318479CA600002B
:10010000BCA600000023002400250026103A01D3DD
:1001100078C1FBD8520700D330C100D50B607047BF
:100120001FB50098019908F0B2FD1FBD10B510BDB4
:1001300008F059FE1146FFF7F3FF02F031F808F01E
:1001400071FE03B4FFF7F2FF03BC08F0D1FE00001C
:1001500070B505460C46164602E00FCC0FC5103EA2
:10016000102EFAD2082E02D303CC03C5083E042E6B
:1001700007D301CC01C5361F03E021782970641C28
:100180006D1C761EF9D270BD06480047FEE7FEE7FB
:10019000FEE7FEE7FEE7FEE703480449044A054B95
:1001A00070470000C100000050030020500B0020E9
:1001B000500700205007002070B50122824D5403E3
:1001C0002146284600F016FE00222146284600F06F
:1001D00011FE70BD10B50268FF231B019A4318C9B8
:1001E0000968234311430B43036010BD00210160E4
:1001F00081604160704710B54268D30A14C9DB02C0
:1002000022430C681C432243426082686F4B1A40B1
:100210004B6889680B431343836010BD0021016064
:1002200041608160C160016170470029016802D0AE
:100230000122114301E0490849000160704730B5CF
:10024000046807252D02AC43046004680C43046075
:10025000816801242404A143816081681143816085
:100260008168FF2212029143816081681943816095
:1002700030BD0168022211430160704701460968E0
:100280000020890700D50120704701229202002931
:10029000416801D0114300E0914341607047002A5A
:1002A000826801D00A4300E08A43826070470122DD
:1002B000D2030029016801D0114300E0914301609D
:1002C0007047012292020029416801D0914300E069
:1002D000114341607047C06A80B2704700290ED058
:1002E000CA1FF93A09D0CA1FFF3AFA3A09D00322C5
:1002F0001202914207D18069704700697047C06857
:1003000070474069704701229202914201D1C06951
:10031000704705221202914201D1006A7047032200
:100320005202914203D007221202914201D1406A47
:1003300070470020704741630020704781630020B0
:100340007047002A426801D00A4300E08A434260B5
:100350000020704742681F235B019A4352095201F3
:100360000A4342607047002A426C01D00A4300E011
:100370008A43426470470122D2020029416801D0B9
:10038000114300E09143416070470122D2030029EC
:10039000416801D0114300E0914341607047006B18
:1003A00070470246D26C00200A4200D001207047FC
:1003B0000246126D00200A4200D001207047826C74
:1003C0000A4382647047000000000240FF00FEFF05
:1003D00010B5026810231A400B684C681B0289682C
:1003E0006401234311430B43036010BD1022002915
:1003F000016801D0114300E0914301607047026839
:1004000060239A43026002680A43026070474160B9
:1004100070470121C16070478B78002B036A01D0BF
:10042000134300E093430362CB78002B436A01D06F
:10043000134300E0934343620B79002B836A01D09E
:10044000134300E0934383624B78002BC36901D0D0
:10045000134300E09343C36109780029016901D087
:10046000114300E091430161704700008A49002078
:100470000968490700D50120704708B50020694682
:100480000870FFF7F3FF6946087008780128F8D074
:10049000087808BDF0B50746420AFFF7EEFF7E492F
:1004A00001257E4B7E4C402ACB60CC6006D94E693C
:1004B000403A520895402E434E6104E00E695208BE
:1004C00095402E430E61002809D1CB60CC600868AE
:1004D00002221043086000203860FFF7CEFFF0BD15
:1004E00030B5FFF7CAFF6C4A6C4CD4606C4DD560D8
:1004F0000021C9431161D460D560516100280BD13E
:10050000D460D56003201060FFF7B7FFD460D560DA
:100510001168090A0902116030BDF0B50E460746A0
:10052000FFF7ABFF5C4A5D4CD4605D4DD56011694F
:10053000012319431161002813D1D460D5601068DC
:10054000000A00021060D460D56010681843106083
:100550003E60FFF792FFD460D5601168090A090276
:100560001160F0BDF0B50E460746FFF786FF4A4A18
:100570004A4CD4604A4DD560116901231943116179
:10058000002813D1D460D5601068000A0002106002
:10059000D460D5601068184310603E80FFF76DFF8F
:1005A000D460D5601168090A09021160F0BDF0B588
:1005B0000E460746FFF761FF374A384CD460384D86
:1005C000D5601169012319431161002813D1D4604A
:1005D000D5601068000A00021060D460D560106811
:1005E000184310603E70FFF748FFD460D560116873
:1005F000090A09021160F0BD70B50C460546FFF707
:100600003CFF264E2449264B402D0BD3002808D111
:10061000002ACE60CB60486901D0204300E0A043AF
:10062000486170BD0028FCD1002ACE60CB6008690B
:1006300001D0204300E0A043086170BD1649174A6D
:10064000CA60174ACA60174A8A6170471249134A3A
:10065000CA60134ACA60134A8A6170470E4A0F4B38
:10066000D3600F4BD3600029116801D0014300E033
:10067000814311607047084A0146526800200A42CF
:1006800000D0012070470449044ACA60044ACA6085
:100690008A6882438A607047000402405A5A000008
:1006A000A5A500000100695A70B57549754C8842CE
:1006B00002D10122150604E0734988420BD10122C0
:1006C00055062946204600F095FB00222946204683
:1006D00000F090FB70BD6D49884202D10122950661
:1006E000EFE76B498842F5D10122D506E9E7644975
:1006F000002040318860644940318860634940315E
:1007000088606349403188607047F0B50022012756
:100710003B460C6893401C409C4232D1846C96004E
:100720000F25B540AC4384640C79012C04D0022C15
:1007300002D0002C0FD011E004689C4304600468D0
:100740001C43046044689C43446044688D79954030
:100750002C43446002E004689C430460C56B540071
:100760000326A640B543C563CD79A540C46B254398
:10077000C563046C9C430464036C4C79944023432C
:100780000364521C082AC3D3F0BDFF21016000217D
:100790000171012242718171C17170470246D268B4
:1007A00000200A4200D001207047C068C0B27047E4
:1007B000FF2201320029416B01D0114300E0914337
:1007C00041637047002A426B01D00A4300E08A432C
:1007D0004263704710220029816B01D0114300E071
:1007E000914381637047826B120912018263826BAD
:1007F0000A43826370470246926800200A4200D092
:10080000012070478068C0B27047C16270470163C1
:100810007047002A01D0C162704701637047816050
:10082000704782684A408260704710B5C36B4900C8
:1008300003248C40A343C363C36B8A401343C36345
:1008400010BD01238B40416C002A02D099434164C2
:1008500070471943FBE710B5836C0F249440920056
:10086000A34391401943816410BD10B54907C90ED7
:10087000836C8A400F248C40A3431343836410BDD0
:100880000010024000000240001402400018024024
:10089000001C02406D4910B588420AD16C4C0122FF
:1008A0000421204600F0A6FA00220421204600F090
:1008B000A1FA10BDF8B50D4604460968654A002046
:1008C000654F012691421BD8C800083007F027FF6A
:1008D00002460B460020394607F0B0FC00225F4B71
:1008E00007F07CFC00225E4B07F085FC07F0CAFE97
:1008F00080B2042800D204202188FE2211401CE08E
:10090000584A914217D8C800083007F008FF02463D
:100910000B460020394607F091FC00224F4B07F0B0
:100920005DFC00224E4B07F066FC07F0ABFE80B288
:10093000042800D20420218831432180A08221880C
:10094000A8882A89104308432080A888442803D116
:10095000E888698908432081F8BD3E490160442147
:1009600081800021C18001810121418170474022A5
:100970000029018801D0114300E0914301807047B4
:1009800020220029018A05D0012319430182018810
:10099000114304E0490849000182018811400180A7
:1009A000704720220029018801D0114300E09143C3
:1009B0000180704710220029018801D0114300E016
:1009C00091430180704704220029018801D011431E
:1009D00000E09143018070470289FE2349081A40D4
:1009E00049001143018170470029018902D0012289
:1009F000114301E049084900018170478180704737
:100A00008088C0B27047002A02D00122114301E061
:100A1000490849008180704708B540180090006877
:100A200008BD04220429018802D091430180704747
:100A30001143FBE708220029018801D0114300E09F
:100A40009143018070478089C0B27047000C00401C
:100A500000000240A086010060E376410000E03F14
:100A60000000F03F801A0600704701F0E8F900F03E
:100A70000CF801F0E4F900F008F800F006F800F0D6
:100A800004F87047704770477047BFF34F8F0449B1
:100A90000248C860BFF34F8F00BFFDE70400FA05AE
:100AA00000ED00E03048006870474368022293433D
:100AB0000A681A4304239A434B6813433022934332
:100AC0008A681A4340239A43CB6813438022934396
:100AD0000A6949691A4301235B029A431143416041
:100AE00070470029416802D00122114301E0490802
:100AF00049004160704708220029416801D0114334
:100B000000E0914341607047FF22013200294168B3
:100B100001D0114300E091434160704701464968AC
:100B20000020C90300D50120704708B50022012329
:100B30001B04009242681A409A42FBD0416108BDF2
:100B400008B5002201231B04009242681A409A4211
:100B5000FBD0816008BD0246D26800200A4200D066
:100B6000012070470161704700440040BD48816822
:100B70004909490181608168490D490581607047D3
:100B8000B94ABA4B03660A438262591E016670472E
:100B9000B54AB64B03660A430263591E01667047A5
:100BA0001143B24A0266B04A1143C162AF49491EBD
:100BB000016670471143AD4A0266AB4A1143416377
:100BC000AA49491E0166704718B50021052424036F
:100BD00001231B030091816A009A1940521C009264
:100BE000A24201D09942F6D0994201D1012018BD0C
:100BF000002018BD18B5002200929C4A02669A4A4D
:100C00008918C162402205242403C16A009B114057
:100C10005B1C0093A34202D04029F6D001E040299A
:100C200005D00021914A521E0266084618BD0121D6
:100C3000F8E718B5002200928C4A02668A4A8918A1
:100C400001630524240301231B03016B009A19404F
:100C5000521C0092A24201D09942F6D0994201D191
:100C6000012100E00021814A521E0266084618BD9B
:100C700018B5002100917D49016640230524240315
:100C8000416B009A1940521C0092A24202D04029A6
:100C9000F6D001E0402905D00021744A521E0266B8
:100CA000084618BD0121F8E710B54B684A699B0258
:100CB0001A430B688C68DB02640223431A43CB6837
:100CC00009691B021A4309010A4367490A43674934
:100CD00001664263491E016610BD644A026600292E
:100CE00001D0634900E0604941636049491E0166E3
:100CF00070475E4A02668163511E01667047C36B8E
:100D00005B0E5B06C363C36B09060B43C363C16B16
:100D10001143C1637047C36B012252069343C363FF
:100D20000029C16B01D0114300E09143C1637047BA
:100D300030B5036A446B4C4D9BB2A4B22B432C4399
:100D400001290BD0022910D004290ED0FF2501352E
:100D5000A94211D1002A0ED02C430DE0002A01D067
:100D6000012104E05B085B0006E0002A01D00B4390
:100D700002E08B4300E0AC433C49016603624463FC
:100D8000491E016630BD384A1143384A0266416245
:100D9000511E01667047026907231B029A430A43EA
:100DA00002617047026901231B03002901D01A4325
:100DB00000E09A43026170470269120A12020A4374
:100DC00002617047006A4007400F7047016070473A
:100DD00041607047002A826801D00A4300E08A43DC
:100DE00082607047002AC26801D00A4300E08A434B
:100DF000C26070471D4B0366002A426C01D00A4353
:100E000000E08A4342641949491E01667047174A47
:100E10000266002902D01449491C00E0124981648D
:100E20001249491E01667047104B10B55B1E1943ED
:100E30005C1C0466002A826901D00A4300E08A43F0
:100E40008261036610BD0246D26900200A4200D0CA
:100E500001207047044A0A43044901660264491E9E
:100E600001667047000002400000695A9966AA5561
:100E70000008695A10B51C4C012210212046FFF7CA
:100E8000B9FF002210212046FFF7B4FF10BD0A88E9
:100E90004B881A438B88C9880B431A4302607047FA
:100EA0000021018041808180C1807047402200295B
:100EB000016801D0114300E0914301607047C160B7
:100EC0007047C068C0B270470029416801D0002156
:100ED00001E0012211434160704702469268002000
:100EE0000A4200D0012070470000024010B55B4C60
:100EF000012280212046FFF77DFF0022802120462D
:100F0000FFF778FF10BD564A02650029016802D03C
:100F10000122114301E04908490001605049491E7E
:100F200001657047002904D041680021C943416030
:100F300070470168002101607047002904D04168B2
:100F4000490849004160704701680122114301606E
:100F50007047826812091201826082680A438260C7
:100F60007047826830239A43826082680A438260B5
:100F700070478268C0239A43826082680A43826015
:100F80007047826803231B029A43826082680A4387
:100F90008260704710B5C368490003248C40A343A6
:100FA000C360C3688A401343C36010BD10B50369B2
:100FB000890007248C40A343036103698A401343DB
:100FC000036110BD02690F231B049A430261026989
:100FD0000A43026170470269012109058A430261DF
:100FE00002690A43026170470169012212059143B7
:100FF0000161704710B54369890007248C40A34301
:10100000436143698A401343436110BD42690F2322
:101010001B049A43426142690A4342617047104A85
:10102000026582690F4B92B2D218920892000A436D
:1010300082610B49491E01657047094A0265826950
:10104000084B92B2D2181023002901D01A4300E0B5
:101050009A4382610249491E0165704700000240BF
:101060009966AA550000695A454910B5884202D0D0
:10107000444988420AD1444C012240212046FFF7CE
:10108000B9FE002240212046FFF7B4FE10BD30B566
:1010900002680523DB011A4018C94D6823438C6898
:1010A0002C4323430C682343CC68096923430B4337
:1010B0001343036030BD0021FF2201328161826051
:1010C0004160D10001604021C160082141611021CF
:1010D0000161704780220029016801D0114300E0BE
:1010E000914301607047012252020029016801D03A
:1010F000114300E0914301607047202200290168FC
:1011000001D0114300E09143016070470268FF2362
:1011100001339A43026002680A4302607047026822
:101120000123DB029A4302600268C9430A4302605A
:1011300070470268D208D200026002680A43026067
:10114000704700684007400F7047416081617047F9
:101150004068704781607047806870470246D26877
:1011600000200A4200D00120704702461269002088
:101170000A4200D001207047C907C90F416170477A
:1011800000180040001900400000024022490843B6
:101190002249C860704770B5C2780F2301240178D6
:1011A000002A1AD01D4AD568520D1540521B120A4A
:1011B0000425AE1AD34045788278B5401A402A43B8
:1011C000174B12018900C9180A600078C106C90EC0
:1011D0008C4040098000134906E0C806C00E8440D8
:1011E00048091049800080314018046070BD704784
:1011F0000A4A0029116901D0014300E081431161CD
:101200007047042208490428086902D09043086105
:1012100070471043FBE700000000FA0500ED00E016
:1012200000E400E000E100E000E000E0704730B5DD
:101230000268FD4DFD4B92B2A84201D0984203D105
:101240007024A2434C882243A84201D0984203D183
:10125000F74C1440CA88224302608A88C2620A8816
:101260008262A84201D0984201D1097A016301212A
:10127000416130BD30B5026AEE4B1A400262026A2B
:1012800093B24268846992B2A4B27025AC43A408B8
:101290000D88A40025430224A3430C891C434B88DA
:1012A0002343E14CA04202D0E04CA0420DD10824DF
:1012B000A3434C891C4304239C438B882343DC4C6D
:1012C00022408C891443CA89224342608561C988BF
:1012D0004163036230BD70B5026AD64B0F3B1A40C2
:1012E0000262026A95B24268836992B2D24C9BB2A2
:1012F00023400C782406240C1C4320239D430B8997
:101300001B051E0C4B882E431B051B0CC64D33437F
:10131000A84202D0C54DA84215D18025AB434D89C6
:101320002D052D0C1D4340239D438B881B051B0C55
:101330002B43C24D2A408D89AD042D0C1543CA891B
:101340009204120C2A4342608461C988816303625B
:1013500070BD30B5026AB74BFF3B1A400262026AA9
:1013600093B24268C46992B2A4B27025AC43A40897
:101370000D88A4002543B24C23400C7A2406240C8B
:101380001C438B781B061B0C2343A74CA04202D0A6
:10139000A64CA04215D1AB4C23408C7A2406240CD9
:1013A0001C43A94B1C400B791B061B0C2343A74C69
:1013B00022408C892405240C1443CA891205120C7E
:1013C00022434260C561C988C163036230BD30B544
:1013D000026A9F4B1A400262026A94B24268C36971
:1013E00092B2954D9BB22B400D782D062D0C1D43CE
:1013F000984B1C400B7A1B071B0C23438C7824074B
:10140000240C1C43884B984202D0884B984205D14B
:10141000914B1A408B899B051B0C1A434260C56196
:10142000C9880164046230BDC269844B1A40C2613C
:10143000C2690906090C0A43C2617047C2697D4B43
:101440000B3B1A40C261C2690A43C261704782699C
:101450007A4B1A40826182690906090C0A4382614B
:101460007047F0B5046A734D0F3D2C4004628469E7
:10147000A6B2046A794F1B073E401B0C3343120689
:10148000120C0D051A43684E2D0C1023A4B2B04265
:1014900002D0664EB04203D120218C432C4302E09F
:1014A000A025AC430C431C4382610462F0BD8269F9
:1014B000604B0B3B1A40826182690A43826170472C
:1014C00070B5046A5B4D2C4004628469A5B2046A5D
:1014D0001B05F3261B0CB54313432B43524D01222E
:1014E000A4B2A84202D0514DA84201D1022500E089
:1014F0000A25AC430C4314438361046270BDF8B504
:101500000C4605460888484E4988A2882389002849
:1015100022D0042828D008282ED0286A94464C4A85
:1015200010402862E86987B2286A0A07120C9646BA
:101530004A4A1B07174062461206120C17431B0C3F
:101540003B43B71480B2B54202D0384A95423DD1F0
:101550004049084071463BE02846FFF7B1FFE1886B
:101560002846FFF7A4FFF8BD2846FFF77AFFE18879
:101570002846FFF76CFFF8BD286A96462D4FFF3FBF
:1015800038402862E86987B2286A0A06120C944635
:10159000F32297431B051B0C724613433B43FF2763
:1015A000013780B2B54202D0204A954203D1244986
:1015B0000840614601E02A4A104008433843EB6185
:1015C0002862E1882846FFF739FFF8BD254A104018
:1015D00008433843EB612862E1882846FFF724FF7F
:1015E000F8BDF8B50C4649880026012507460029B4
:1015F00000D10226A288012A00D102252088238951
:101600000028384630D0FFF72CFFE1883846FFF736
:101610001EFF23892A4631463846FFF751FFE188ED
:101620003846FFF744FFF8BD00100040003C004082
:10163000FFFC0000FEFF0000FF8C0000FFF3000035
:10164000FFFD0000FFF70000FFFB0000FFCF0000E0
:10165000FFEF0000FFDF0000FFBF0000FF0C0000F5
:10166000FFF50000FF7D0000FFF72AFFE188384604
:10167000FFF71DFF23892A4631463846FFF7F1FE62
:10168000E1883846FFF7E3FECDE710B50A884B88BE
:10169000CC881A438B8823431A430B891A434B89FE
:1016A00089891A430A43426410BD0021C9438180DD
:1016B00000210180C18041800172704700210180BA
:1016C00041808180C180018141818181C1817047D8
:1016D00000210180418001228280C1800181704708
:1016E0000021018041808180C1800181418181810F
:1016F00070470029016802D00122114301E0F64A37
:101700001140016070470029416C03D00122D203CF
:10171000114301E04904490C41647047002AC26842
:1017200001D00A4302E0C94389B20A40C26070474F
:1017300041617047114381647047002AC26801D03B
:101740000A4302E0C94389B20A40C2607047816817
:10175000E14A921F1140816070478268702392B203
:101760009A430A438260704710B50446FFF7F5FFBD
:10177000A06807210843A06010BD70B516460D464D
:10178000044660290CD001223146FFF799FE294614
:101790002046FFF7E2FFA06807210843A06070BD64
:1017A00001223146FFF75DFEF1E710B584681B06A4
:1017B0001B0C1343E4B20B432343836010BD10B5ED
:1017C0000446FFF7F2FFA06880B2C108C9000720F5
:1017D0000143702081430143A16010BD10B5044650
:1017E000FFF7E3FFA068012189030843A06010BD53
:1017F0008162426170470268702392B29A430A4341
:101800000260704770B58468A5B28469066AA4B2A4
:10181000ED08ED000D43B149B6B20C40FF21023195
:101820000C4322218E431905090C11433143856075
:101830008461016270BD8269702392B29A430A4347
:10184000826170478269A64B92B209061A40090C60
:10185000114381617047C269702392B29A430A436F
:10186000C2617047C2699E4B92B209061A40090CC8
:101870001143C16170470029016802D080221143E1
:1018800002E0954A7F3A11400160704700294168A3
:1018900002D00422114302E08F4AD21E114041605F
:1018A00070470029416802D00822114302E08A4AA9
:1018B000D21F1140416070470029416802D00122C7
:1018C000114301E0844A1140416070478269082356
:1018D00092B29A430A43826170478269814B92B205
:1018E00009061A40090C114381617047C269082337
:1018F00092B29A430A43C2617047C269794B92B26D
:1019000009061A40090C1143C1617047826904231A
:1019100092B29A430A438261704782696F4B92B2D6
:10192000FD3B09061A40090C114381617047C269E9
:10193000042392B29A430A43C2617047C269674B5B
:1019400092B2FD3B09061A40090C1143C161704770
:101950008269802392B29A430A4382617047826906
:1019600009065204520C090C114381617047C26987
:10197000802392B29A430A43C2617047C269090642
:101980005204520C090C1143C1617047026A0223D0
:1019900092B29A430A4302627047026A082392B2E3
:1019A0009A430A4302627047026A202392B20905F1
:1019B0009A43090C114301627047026A802392B274
:1019C00009059A43090C114301627047026A464BAC
:1019D00092B209061A40090C114301627047026A6B
:1019E000404B92B209061A40090C1143016270473C
:1019F000026A3E4B92B209071A40090C1143016278
:101A0000704710B50123046A8B40DB439BB21C4036
:101A10000462036A8A4091B20B43036210BD10B5A1
:101A20000423046A8B40DB439BB21C400462036ABC
:101A30008A4091B20B43036210BD30B503461833A0
:101A40000124056A8C40E443A4B2254005620029C4
:101A500010D008290ED0091F0804400CC0180168D6
:101A600007231B039943016001681206120C1143FE
:101A7000016030BD4808C0180168702399430160B7
:101A80000168F4E70029016802D00222114302E054
:101A9000114A521E1140016070470029016802D0AE
:101AA0000422114302E00C4AD21E1140016070472B
:101AB0000029416802D08022114302E0064A7F3AA1
:101AC0001140416070470268034BDB1F1A400260FF
:101AD00002680A4302607047FEFF0000FCFC000041
:101AE000FF8F0000FFF70000FFFD0000FFDF000098
:101AF00042682D4B1A40426042680A434260704778
:101B00008268294B69331A40826082680A43826086
:101B100070478268244B103B1A40826082680A43F7
:101B20008260704741627047C1627047416370478D
:101B300081637047C16370470164704702681B4B43
:101B40001A40026002680A4302607047406B80B22C
:101B50007047806B80B27047C06B80B27047006C7A
:101B600080B27047406A80B27047806A80B2704726
:101B70000246126900200A4200D001207047C94382
:101B800089B201617047024613690020D2680B4098
:101B90000A40002B02D0002A00D001207047C94320
:101BA00089B20161704700008FFF0000FFFC000058
:101BB00030B589B0044600211020059040200490E3
:101BC000244807910691039102910191844223D107
:101BD00001A92046FFF75BFA1F4D20462946FFF773
:101BE000B4FA29462046FFF7B0FA07200002FFF7B3
:101BF000CDFA0E20694608700320487088700120D5
:101C0000C8706846FFF7C7FA684600F02BF8012154
:101C10002046FFF772FA0AE005200591079001A916
:101C20002046FFF734FA00212046FFF78EFA012103
:101C30002046FFF74FFA09B030BD10B50121054825
:101C4000FFF79AFA0549C888401CC880044901205A
:101C5000086010BD0018004040A2FFFF980100205E
:101C60000000002010B50278407894079308E20E37
:101C70000021921D002802D0401E90400146032002
:101C80009040C2435B489B001818036813400360F0
:101C900002680A43026010BDFEB503267602304694
:101CA000FFF774FA00256846057201244472C47275
:101CB00002A8FFF770FA02A8FFF7D4FF3046FFF73B
:101CC00065FA684604724472C47202A8FFF763FAA8
:101CD0003046FFF75BFA0221684601724472C47213
:101CE00002A8FFF758FA05200002FFF74FFA032178
:101CF000684601724472C47202A8FFF74CFA684643
:101D000004708570C57005714470202269463A4898
:101D1000FEF782FBFEBD10B5044600F078FD606959
:101D2000C00705D0A069C00702D0E069012107E023
:101D30006069800707D5A069800704D5E0690221A2
:101D40000843E06110BD6069400711D5A0694007F4
:101D50000ED5E06904210843E06128488442F1D1AE
:101D6000274800780028EDD026491E20088010BDA5
:101D70006069000705D5A069000702D5E069082160
:101D8000DEE76069C00605D5A069C00602D5E06936
:101D90001021D5E76069184980060BD5A069800637
:101DA00008D5E06920221043E0618C42DFD100F0C9
:101DB00066FB10BD606940060BD5A069400608D5DA
:101DC000E06940221043E0618C42F2D100F05AFBFE
:101DD00010BD60690006FBD5A0690006F8D5E06972
:101DE0008021ADE7084896E7084894E7024892E763
:101DF000024890E700E400E000180240001C0240A6
:101E0000B8000020CA000020001002400014024068
:101E100000687047008870470078704710B503204D
:101E2000FEF731FC7F204002FEF734FB10BD08B501
:101E3000002069460870012203F0E6FF08BD70B576
:101E40001A250026284605F0C7FE044619212F480A
:101E500005F0B1FE01462D480176090A4176002CB5
:101E60000DD02B490170090A417001462A46002015
:101E700003F0CAFF204605F0E0FE304670BD0120A9
:101E800070BDF1B51A250026284605F0A5FE040010
:101E90000DD001462A46002004F014F820881C4981
:101EA000884206D0204605F0C8FE0120F8BD032078
:101EB000F8BD617E207E0F02074300BF1921204636
:101EC00005F079FEB84204D0204605F0B6FE0220A7
:101ED000F8BD2A462146009805F0D5FE204605F0BB
:101EE000ACFE3046F8BD10B50848FFF7CAFF002821
:101EF00009D1064841780278080205491043884212
:101F000001D1002010BD012010BD0000C001002043
:101F10003A5A000010B500215E48FEF7E2FD5E4827
:101F2000016904221143016130BF10BD10B50021C9
:101F30005848FEF7D6FD58480169042291430161D3
:101F400030BF10BD10B5554C00280ED0544B0128A1
:101F500012D002281BD0032818D10522062151488F
:101F6000FEF783FC032109020DE0012204214E4803
:101F7000FEF77BFC002106E0052203211846FEF750
:101F800074FCFF2101312046FEF7FBFF10BD052246
:101F900006211846FEF769FC01214902F3E7F0B576
:101FA00089B0022630200024059003963002394F74
:101FB000089004940694079403A93846FEF775FD2B
:101FC00001256846057184710096C47145716946A2
:101FD0003348FEF79AFB05200002FFF7D7F81021DF
:101FE0006846017245728572C57202A8FFF7D3F880
:101FF0002E4C38462146FEF7A3FD21463846FEF713
:1020000094FD01213846FEF77FFD01213846FEF799
:1020100068FD09B0F0BD70B501211E48FEF7A2FDB4
:10202000234C2088401C20806088401C60802089D0
:10203000401C208120890A2105F066FE0125002927
:1020400000D1A5722089142105F05EFE002900D17F
:10205000E5722089642105F057FE002900D125731F
:102060002089C82105F050FE002902D165730020A7
:102070002081608819218901884208D3BFF34F8FDE
:1020800005490C48C860BFF34F8F00BFFDE70A4801
:10209000057070BD0044004000ED00E0001C0040F1
:1020A000001C024000180240001402403FFF0000E4
:1020B000980100200400FA0504000020F8B5354E10
:1020C00007460122324D002411463046FEF730FE0D
:1020D00031483B0006F05DFF050406080A0C0D00C0
:1020E000048806E0448804E0848802E0C48800E0B4
:1020F00004892A492005000D054326484030016225
:10210000B562491E0162F8BD70B5224C0646204DED
:10211000012204212046FEF70BFE002E11D01E489E
:102120001430FFF777FEC005C00D054319481B4961
:10213000403001622563491E0162206BC004FCD55A
:1021400070BD15481030ECE71149144A014311489D
:10215000403002620F4A51621049491E01627047C5
:1021600010B50020FFF7AAFF0120FFF7CDFF0948B7
:102170000A494030016207490A6A054B85331A4310
:102180000A620649491E01620120FFF7DDFF10BD0A
:102190000000695A00000240A00000189966AA5584
:1021A00000215948C9438160C160FFF7D9FF574FEB
:1021B00001253D70FFF7F3FE01F03AFC00F0B0FAA4
:1021C000534E70882828FCD30024748001F027FC2B
:1021D00000F092FFFFF760FD4E48FFF7E9FC4F4922
:1021E0004D4808804E494D4803F0E6FE02F07AFE65
:1021F000002002F0E1FE002002F0F2FE00F0F7FA0B
:10220000748070881428FCD3414844803C7000F0EE
:1022100073FD4449086044490860FFF764FE434E7B
:1022200000280AD1F07DB17D00020843FF21693109
:10223000884202D8707D642801D900F05DFF3C48D7
:102240003E4F05703B4801783B48002904D1364990
:102250003B4A0968914230DB3C7005703348F179A4
:102260000C30085CF07000280AD080213548FEF759
:10227000CCFA20213348FEF791FA002805D007E078
:1022800080213048FEF7C3FAF3E72F48052101709B
:10229000F079002807D12D480481C4802C480570AE
:1022A0002C480481C480214800F044FF2148007874
:1022B000002804D00420B07101E03D70047002F0E9
:1022C000CDFA25480570254804703878002804D0D8
:1022D00001F07BFB387800280CD100F0BEF800F04C
:1022E00010FA19480078002804D0B078042801D0EA
:1022F00001F0B2F9064841880029EBD04188491E17
:10230000418001F0E3F8E5E700000240C50000204D
:102310009801002000180040AF040000A801002030
:1023200000100040D0000020DC000020C001002090
:10233000B3000020B0000020C6000020B80000203C
:102340009A995940001802400B000020DA01002041
:1023500060010020EE010020C2000020C400002027
:10236000ED4903788A789A438A70C2680021118007
:10237000406801788908890001707047E749098839
:1023800001221204511AC26811800178E248827851
:10239000114381707047E04A01789378194210D058
:1023A0000169C968838A19420BD041680978CB0753
:1023B00006D0890704D4017F002901D1017AD170A8
:1023C000CEE7704770B40169C968828A11421ED194
:1023D000D14C0178A27811422AD0C1680B88002B19
:1023E00026D04168CD4D0A78D60712D092070ED478
:1023F0002A889A18438B92B29A4208D9427AE2709C
:102400000A7802231A430A70C0680021018070BC58
:1024100070472D885B19058B9BB2AB42F7D901231E
:102420001A430A70017F0029F1D0007AE070EEE7CC
:1024300070BCA3E7B8494C31486802789208920012
:102440000270C968002008807047416809788907D0
:1024500002D5B149007AC8707047AF4800B54C301A
:10246000FFF799FFAC484C30FFF7ACFFAA486C303F
:10247000FFF791FFA8486C30FFF7A4FF00BDA64806
:102480004C307BE7A4486C3078E7C36A00221A809E
:10249000836A00291A80036A1A80436A1A80436992
:1024A0001A7083681A7043681A7003691A70836916
:1024B0001A70C3681A70C3691A7003D0416C0A801D
:1024C000006C02707047F0B50446C369226B1E7839
:1024D0000120A18E914DD268002E0AD00A42A16837
:1024E00025D0097800292BD0E1680A78002A19D074
:1024F00026E00A4207D11870E988226AC943491CBC
:102500001180A1680870A16BC968A28F114208D11F
:10251000E1690870E988E26AC943491C1180616970
:102520000870F0BD0870E988626AC94306E00A785D
:10253000002A05D10870E988226AC943491C118024
:10254000A16BC968A28F114261690BD0097800297B
:1025500011D0A1690A78002A0DD10870E888A16A13
:10256000C04306E00A78002A05D10870E888E16ACD
:10257000C043401C0880A16BCA68A08F02427DD076
:10258000226BD268A38E1A4278D062691278002A30
:1025900074D0A2681278002A70D0A2691278002A3A
:1025A0006CD0E2681278002A68D0606AE9880088F6
:1025B000401880B20128B4D9A06AE9880088401880
:1025C00080B20128ADD9206AE9880088411889B213
:1025D000052906D8E16AEA880988891889B2052997
:1025E0005FD9E988EB8841188AB2E16A09888027B7
:1025F000CB189BB2484E9A4224D900212046FFF7BF
:1026000044FF2078F070606C018800290ED0226CA5
:10261000F37812785206520E9A4207D12A88891806
:1026200089B20A2902D2F1783943F1702A8801214E
:102630000904891A0180F078216C08707078401CB8
:102640007070F0BDEA888918EA8889B2801880B273
:10265000814226D900212046FFF717FF6078F070ED
:10266000606C0188002910D0226CF3781278520631
:10267000520E9A4209D12A88891800E016E089B2E0
:102680000A2902D2F1783943F1702A88012109041C
:10269000891A0180F078216C08703078401C307005
:1026A000F0BD01212046FFF7F0FEF0BDC9680142F0
:1026B000FBD0206BC068A18E0842F6D0E06800789D
:1026C00000280ED06069007800280AD1606AE98885
:1026D0000088401880B2012803D901212046FFF765
:1026E000D4FEA06900780028DFD0A0680078002818
:1026F000DBD1A06AE9880088401880B20128D0D8D0
:10270000F0BD0548001DDEE60348001DC0690078E5
:10271000002800D001207047080000209801002008
:102720007CB5002568460571012444718471C4712B
:102730002020F74E009069463046FDF7E6FF08205E
:1027400000906846C47169463046FDF7DEFF1020F0
:10275000009069463046FDF7D8FF4020009069465A
:102760003046FDF7D2FF68460471857180200090E5
:102770006846C57169463046FDF7C7FF802130467F
:10278000FEF745F868460471847130200090684671
:10279000E04CC57169462046FDF7B7FF1021204681
:1027A000FEF733F820212046FEF72FF8DA4881683B
:1027B000DA4A11408160D74840308168FF22120414
:1027C000914381608168D24311438160D048403099
:1027D0008168D34A11408160D2488168D24A114051
:1027E00081608168FF221202114381607CBDCF4865
:1027F000017A002901D0032100E0CD4941837047CF
:10280000CA48017A002901D10621C175704710B567
:102810000121C848FEF765F9FFF7E9FF10BDC3487D
:102820000021C1738173704770B5C04C01202072C4
:1028300001F0C6FB0025A57502F092FA03F074FDC5
:102840008021B348FDF7E3FFFFF7F4FDE573E57280
:102850002575E571A573FFF75DFB70BD7047B34942
:10286000487B002801D0401E4873704710B5AF491F
:10287000C87C002806D0401E0006000EC87401D196
:10288000FFF7DDFA10BD70B5A84C207A002803D1FF
:10289000FFF7ECFFFFF7E3FF20219D48FDF77EFFE8
:1028A000002802D02078002801D0FFF7A0FF207A6E
:1028B00000280BD1FFF79BFFE07D002806D0401ECB
:1028C0000006000EE07501D1FFF7B9FA608B002514
:1028D000002817D0401E0004000C608312D19648D7
:1028E0008570207A00280BD0E07B002803D0FFF70A
:1028F00096FF01F065FBFFF79DFDFFF70BFB01E085
:10290000FFF792FF207A00280ED0A07B03280BD17E
:10291000E07B002808D0401E0006000EE07303D1C3
:10292000A573E57101F04CFB70BD704710B57F4891
:102930008178012904D100218170407801F00BFCDD
:1029400010BD10B505F0EBFE7C4A7D4B05F076FC22
:1029500005F098FE4B2180B20901884200D9084653
:1029600010BD10B57749487802076ED5F7221040A0
:102970004870488905F0D3FE0022734B05F0D2FE63
:102980000B22D24305F0F2FF05F06EFA6F49884240
:1029900001DB042010BD6E49884201DB092010BD17
:1029A0006C49884201DD0E2010BD6B49884201DD73
:1029B000132010BD6949884201DD162010BD684909
:1029C000884201DB182010BD6649884201DD1B20CA
:1029D00010BD6549884201DB1D2010BD6349884256
:1029E00001DB202010BD6249884201DB222010BD9E
:1029F0006049884201DD252010BD5F49884201DD24
:102A0000272010BD5D49884201DD2A2010BD5C49A8
:102A1000884201DB2C2010BD5A49884201DB2F205F
:102A200010BD5949884201DD312010BD5749884207
:102A300001DB342010BD5649884201DD362010BD2F
:102A40005449884202DD392010BD56E0524988427F
:102A500001DD3B20F8E75149884201DD3E20F3E7E4
:102A60004F49884201DD4020EEE74E49884201DBB4
:102A70004320E9E74C49884201DB4520E4E74B4924
:102A8000884201DB4820DFE74949884201DB4A20D0
:102A9000DAE74849884201DB4D20D5E746498842BC
:102AA00001DB4F20D0E74549884201DB5220CBE7CC
:102AB0004349884201DB5420C6E74249884201DD90
:102AC0005720C1E74049884201DB5920BCE73F4914
:102AD000884201DD5C20B7E73D49884201DB5E208A
:102AE000B2E73C49884201DD6120ADE73A498842BE
:102AF00001DB6320A8E76820A6E70C48807AA3E7FB
:102B000010B50A48007EC0079ED101F043F99BE74B
:102B10000018024000140240401002400F00FFFF66
:102B2000FF0F00F0401C02400F0000F0B00000203A
:102B3000E02E000000440040C00100209A999999BD
:102B40009999E93F2802002000000440F4FD144058
:102B5000C1CA1140B6F30D40AE470940022B0740F1
:102B60006DE7034010580140D122FB3F9CC4004058
:102B7000CDCCEC3F2B87E63F560EDD3F6666D63F59
:102B80007F6ACC3F4260C53F83C0BA3F46B6B33F81
:102B90008716A93F0E2DA23F14AE973F60E5903FE8
:102BA000B4C8863F4E62803FF2D26D3F6F12633FE2
:102BB000C520503F4260453F7D3F353FA8C62B3F73
:102BC0001B2F1D3F6ABC143F9EEF073F1283003F3F
:102BD000FA7EEA3E2DB2DD3E713DCA3E10B57F2140
:102BE000FE48C9054163002141718172407801F0BE
:102BF000B2FA29E710B5F94901200872FFF7EEFF94
:102C000001F0D2F9FFF710FE1EE770B5FFF7A9FE3D
:102C1000F24C0025A072A07D002805D08021F0484C
:102C2000FDF7E9FD002800D1A572A07D01280CD197
:102C3000A07A002809D00126552807D37F20657186
:102C4000C00560636672FFF7D5FF70BD4B2802D3E5
:102C50006179002907D03C28F7D860790028F4D0A2
:102C6000FFF7BCFF70BD6671DE4CE578284605F0C5
:102C700056FDDD4ADD4B05F055FD05F003FD000670
:102C8000000EE07000D1E670E57070BD10B501F087
:102C90007FF8FFF735FF01F08DFCD048C17A00299D
:102CA00001D001214174CFE610B5D1494878C20660
:102CB00020D5EF2210404870888905F030FDCD4ABC
:102CC000CD4B05F02FFD0B22D24305F04FFE05F052
:102CD000CBF8CA4906F0B0F9C94905F0A1FE812137
:102CE000C905884201DC4842AEE60121C94305F02E
:102CF0008FFFA9E60020A7E610B501F049F8B94C0E
:102D0000283CFFF7D1FF4100090E02D16188142948
:102D1000F7D300216180FF22D205D04203D3AF4A0E
:102D20000123137051728FE610B5AC4AB54C53783D
:102D3000A04206DB0420002901D1042B00D35070EF
:102D400082E6B14CA04205DB03200029F7D1032B1A
:102D5000F5D279E6AD4CA04205DD02200029EED186
:102D6000022BECD270E6AA4CA04205DB0120002920
:102D7000E5D1002BE3D167E60020E0E7F1B5974D00
:102D800084B00020E8630498A97D006800900129C0
:102D900016D1A04801789348002907D0C07A0228AC
:102DA00001D908287ED39C48009984E08B4AC079D9
:102DB0009A49946B012804D0022802D0002844D0FC
:102DC0007CE0009806F038F905F000FE0646019117
:102DD0000F46208805F0A3FC0022914B05F0A2FCD1
:102DE00032463B4605F02AFA02460B4600200146D1
:102DF00005F0F4F905F038F803906088019F05F0BC
:102E00008EFC0022864B05F08DFC32463B4605F0D9
:102E100015FA07460291039805F0D8FD3A46029B41
:102E200005F0DCF905F020F80290A088019F05F07C
:102E300076FC00227A4B05F075FC32463B4605F0E5
:102E4000FDF904460E46029828E0009806F0F4F8D2
:102E500005F0BCFD06460F46208A05F060FC002206
:102E6000704B05F05FFC3B46324605F0E7F9024641
:102E70000B460020014605F0B1F904F0F5FF019082
:102E8000608A05F04CFC0022664B05F04BFC324694
:102E90003B4605F0D3F904460E46019805F096FD31
:102EA000224600E005E0334605F098F904F0DCFF27
:102EB00003E05D48009905F0B3FDE86368790028F8
:102EC000E86B08D005F082FD474A484B05F02AFC24
:102ED00004F0CAFFE86305F079FD544A544B05F04D
:102EE00021FC04460E46009805F070FD224633464C
:102EF00005F074F904F0B8FF04990860A862E8626C
:102F000005B0F0BD3AE731B5344C607D617B0843D4
:102F100015D12078002802D0042060700CE06846AB
:102F2000FFF72CFF00210098FFF7FEFE41490098B3
:102F3000884201DA012060722A496078887138BDC0
:102F4000F1B534483C4D00780024244900281CD0B9
:102F500008790022401CC0B208710A2813D9214FF9
:102F600008460271503FA600B959284606F0BCF841
:102F700000D2BD59641C0A2CF5DB00981749056086
:102F800001208871F8BD8A71F8BD0120F9E770B59C
:102F9000124CE07A002864D1FFF786FEFF21C905B4
:102FA00000250126C84202D32670657204E0410064
:102FB000090E56D0606225700848A6712430FFF7CC
:102FC000BFFF217C074B8A00503B491C606AC9B295
:102FD000985021740A2900D325742FE0B0000020F6
:102FE00000180240C00100209A9999999999E93FE7
:102FF000280200203333333333330B400080A043A7
:1030000000004C429A997940000070406666664024
:103010000000604054010020000020410000964460
:1030200000001E40000024400000F0407B14AE472A
:10303000E17AA43F9A9959400000A040A179002963
:103040000FD02062A062E062E0616178042901D9BA
:1030500004216170CDB2FFF756FF6078A84200D01E
:10306000A67070BDFE4928204873704770B5FC4DAE
:10307000E878002831D0C821FA4C207800282BD0DD
:103080006088491C401C80B26080884227D205F0CD
:10309000BBFDA16805F0D0FF264605468E36308977
:1030A00005F0B2FD294605F081FF05F069FD80B20B
:1030B00001F096FF608805F0A7FD616805F0BCFF90
:1030C0000446F08805F0A0FD214605F06FFF05F0ED
:1030D00057FD80B201F070FF70BD1E21CCE70026C5
:1030E00026706680DF4C8434208901F079FFE08807
:1030F00001F062FFEE7070BDDA49DB4848310880AC
:10310000D8480021603081700522C27041712C23A3
:103110000371C171C18264234375062383710273F5
:103120004273C273CE484370C17281717F21C90559
:1031300001637047F8B50546C078002803D18021A7
:10314000CA48FDF762FBC7486030C07900280BD041
:1031500002283CD003283ED0012804D101F09FFF73
:10316000284602F0E3F9F8BD02F024F9BD4E3078AC
:10317000002826D0BA48C078002826D0C824B949EB
:103180002846843102F07AF900207080204605F04C
:103190003BFDB44C0746843425460A3D20892989E5
:1031A000401A05F029FD394605F03AFCB060E08888
:1031B000E988401A05F020FD394605F031FC7060C1
:1031C000F8BD284602F001F9F8BD1E24D7E72846CD
:1031D00002F0D2F9F8BD284604F04AFCF8BDF8B573
:1031E000A04C6034A078042838D19D4EC8274036C2
:1031F0007188304600780025002904D0491E090452
:10320000090C718009D0030005F0C3FE0BEA7DEACA
:10321000EAB9EAEABFEAEAC6EA00030005F0B9FE45
:103220000C4F1E07121F30421E46484C1E690320D9
:10323000307077807820E0828A486030FFF77AFF2C
:10324000012009E0042030707780F020E08285487A
:103250006030FFF76FFF022001F0FBFBF8BD052097
:1032600030707780032001F0F4FB01F0C3FB5520A0
:103270002071032060717B486030FFF75BFFF8BD71
:103280000620307077801920207176486030FFF773
:1032900051FF042001F0DDFB01F0ACFB7048807AA7
:1032A000F072F8BD072030707580F8BD092000E08D
:1032B0000A203070022000E01E207080F8BDFFF769
:1032C0001BFD674C2062E062A0622178002910D1CA
:1032D00001F055FC6649A06A40186649884208D347
:1032E0000C2001F0B6FBFEF7A2FDA06A01F047FC3E
:1032F000FEE73078401C3070072001F0AAFB5848E8
:103300007580C572F8BD20215848FDF747FA00289E
:1033100002D1B079072806D020215448FDF73EFAA3
:1033200000281AD05CE03078401C30707780002094
:1033300001F08FFB64206075E070E5826571F571C6
:10334000357275724748B572B5716030FFF7F2FE9D
:10335000494805704948057042E0B079C04380078C
:1033600004D047A20221682001F0B9F8B0794007E3
:1033700036D443A20221082001F0B1F830E088B22F
:10338000C8282DD101F036FB2AE008203070778064
:10339000052001F05EFBDBE7F07A133815280CD32B
:1033A00000F002FE2E48F17A81720B2001F051FBF1
:1033B000FEF73DFD01F01EFBFEE72A483830458050
:1033C000A5707580357175713570B571FEF72FFD7B
:1033D0002948057029480570FFF78EFEFFF70AFCA3
:1033E000264C207800288DD03078401E052889D8BA
:1033F000207863274006400E11281AD17079401CAE
:10340000C0B27071632801D9777103E00A2801D234
:103410000A20707172790221682001F01EF8707A1A
:103420000A2802D2401C707203E0B07901210843DF
:10343000B07120784006400E212827D17079411EB6
:1034400071710A2801D80A207071727902216820EE
:1034500001F003F8B07A0A2814D2401CB07215E0CB
:10346000B000002060010020AF04000000180240FE
:10347000666696BF333313000A0000200B0000205D
:103480004E470000B07902210843B07120787128BE
:103490001AD13079401CC0B23071632801D937711C
:1034A00003E00A2801D20A20307132790221082073
:1034B00000F0D3FFF079052802D2401CF07103E040
:1034C000B17904200143B1712570F8BD70B5FFF7E3
:1034D0005EFDF84DF84E287A002816D102F0FFFE66
:1034E000FFF7C4FD687A002807D0287A002804D1A5
:1034F0002878002801D1FFF77DFBFFF786FB308895
:10350000C00701D1FFF76BFE308800F045FCB07AB0
:103510000024012802D1B472FFF7B5F9287A0028F7
:1035200019D1F07A012800D1F472307B012802D140
:103530003473FFF7FBF9707B01280CD17473288B6F
:10354000401C2883FFF7A2FBA87C002803D0288B0F
:103550000A2800D9AC7470BD10B503785418A34282
:1035600008D3012B06D0591AC9B20170914200D874
:10357000027010BDA342FBD910BD30B50478551AB6
:103580006D1CAC4209DA5A1C944203D8012901D0BF
:10359000591800E06118017030BD027030BD10B5DF
:1035A000C54C2834E278642A22D0014600236422E4
:1035B000E01CFFF7E2FFE2792046E1780C3011547D
:1035C0000C3800F0F3FE8021BC48FDF71EF9E079CD
:1035D00000280DD1214601206039087008467A3054
:1035E00002898E310A81C088C8802046FFF7A2FD7B
:1035F00010BD10B5B04C2834E278002A26D0014620
:103600000022E01CFFF7A8FFE2792046E1780C30A9
:1036100011540C3800F0CAFEE078A84A002816D0F1
:1036200080211046FDF7F1F8E07900280ED1A2497B
:1036300001203839087008467A3002898E310A81B3
:10364000C088C88008462E38FFF774FD10BD802161
:103650001046FDF7DCF8E7E7F0B5964885B0007A4C
:10366000002872D19349964FC87039780124924E40
:103670002836B278F079512929D03B783546297A15
:10368000712B8C46697AAD7A31D03A46127853065E
:10369000324615320492D21E0392123A12790292E5
:1036A0003246527D01923246977A5B0ED21912321F
:1036B0000092834F3246112BD28A3B7853D05B065F
:1036C0005B0E212B7BD03878052879D055E1002A74
:1036D000FCD1411CF171032803D30020F07102F0EA
:1036E00023FE75480021283000F0C8FF15E0002AAD
:1036F000ECD1744A002815D001281DD0022825D00D
:10370000F07A401CC0B2F072D178884201D3002018
:10371000F0726948283000F06FFF67482830FFF7E3
:1037200009FD0EE16046401CC0B23072117888423B
:1037300014D30020307211E0491CC8B27072517865
:1037400088420BD30020707208E018E16D1CE8B2CB
:10375000B0729178884201D30020B0725648283068
:1037600000F025FDD9E71B0600D50524002806D06A
:1037700001282AD002285BD0032868D0E1E0614606
:1037800000291ED03878000600D502240299552958
:1037900009D0192355222146301DFFF7EEFE464879
:1037A000283000F08BFE4449012038390870084663
:1037B0007A3002898E310A81C088C880ADE74DE039
:1037C000C6E02046FFF7EBFEBBE000290FD03878BB
:1037D000012918D0000600D50524019864289CD240
:1037E0000023642221460498FFF7C7FE7CE0387866
:1037F000000600D50A241019FF2180B26A3104F0B6
:1038000083FAF18280E0000600D50524F078642870
:1038100083D0002364222146F01CFFF7AEFE264829
:10382000F279F178343011540C3800F0BFFD74E7B0
:103830003878000600D508240398285CFF2891D02A
:103840000023FF2221460098FFF797FE71E02046F3
:10385000FFF7A5FEF078A04284D072E03B781B060B
:1038600000D50524002806D001282DD0022853D0E9
:10387000032863D065E0614600295FD038780006F0
:1038800000D502240299192908D019222146301D99
:10389000FFF762FE0848283000F010FE06490120BC
:1038A000383908707A3108460A8914300281C9888B
:1038B000C18032E7B00000209801002000180240CB
:1038C0000B0000200C010020002911D001291FD07D
:1038D0003878000600D5052401980028A7D00022DA
:1038E00021460498FFF738FE7C4800F009FD14E7F4
:1038F0003878000600D50A24A24203D2101BFF30FC
:10390000693000E0101BF082744800F075FC04E799
:103910002046FFF76EFE00E73878000600D5082441
:103920000398285C0028C4D0002221460098FFF7A5
:1039300013FE2946694800F0A9FCEEE62046FFF791
:1039400058FEFEF75DFF6648007A002815D016E0A5
:103950000420B07062490120887502F0E5FC01F096
:103960003BF85F48002140300170A02242803222A3
:1039700002714271817105B0F0BDFEF738FF584801
:103980000A21C174574900200870F4E770B5544CFF
:10399000207A00280DD00220A07300F021FB002522
:1039A0004E49A5750320887001214C4800F066FE41
:1039B000257370BD4A48817B022905D1017A00290F
:1039C00002D003218173C173704710B5FFF712F95C
:1039D00010BD884201D9401A00E0081A80B2704731
:1039E00010B504464048814201DA404815E00846D7
:1039F00004F0ECFF3E4A3F4B04F0FDFB14223E4B2B
:103A000004F090FE00223D4B04F000FC384A3C4B91
:103A1000524204F087FE04F027FA206010BD3A48B5
:103A200038490162394901603649491E01627047CF
:103A30003548344901623549491C01603149491E04
:103A4000016270471CB50120694608710020887129
:103A50002021009169462E4CC8712046FCF755FE86
:103A600020212046FCF7D3FE1CBD1CB50120694671
:103A7000087100208871022100916946254CC871A7
:103A80002046FCF742FE02212046FCF7C0FE1CBD8A
:103A90001CB5012069460871002088711021009131
:103AA00069461B4CC8712046FCF72FFE10212046AA
:103AB000FCF7ADFE1CBD1CB5012069460871002055
:103AC0008871402100916946114CC8712046FCF76D
:103AD0001CFE40212046FCF79AFE1CBDC0010020C0
:103AE000B00000200B000020CDCC84403333F33FE6
:103AF0009A99999999991040000034400000F03F3C
:103B00006666FE3F9966AA55400002400000695A69
:103B1000001C02400010024070B50446EF4DC00783
:103B200004D00F2206212846FCF79FFEA00704D5EB
:103B30000F2203212846FCF798FE600704D50F22C8
:103B400004212846FCF791FEE54D200704D50F22FD
:103B500002212846FCF789FEE00604D50F22032146
:103B60002846FCF782FEA00604D50F220521284630
:103B7000FCF77BFE600604D50F2206212846FCF7E1
:103B800074FE70BD08B503204002FDF7FFFA18204F
:103B900069460870012048708870C8706846FDF753
:103BA000FAFA08BD01460020CA0704D1401C4908A2
:103BB000C0B20828F8D3704700B5FFF7F3FF000242
:103BC00000BD30B589B00446FFF7F6FF83B200228E
:103BD0000F200002049001200192C0020392009283
:103BE00006930292102C1ED02021BE4D0591079005
:103BF00005A92846FCF7EEFA69462846FCF7FBFAC9
:103C00002046FFF789FFFFF7BDFF01222146284626
:103C1000FCF7A9FB01212846FCF707FB2846FCF727
:103C200028FB09B030BD6021DFE770B588B00446DD
:103C3000FFF7C2FFAC4B81B2187800280AD01C7580
:103C40002046FFF7AFFF8000C018A849816100201F
:103C500008B070BD187D0122A04318751C700020AB
:103C6000920200920F22039012020190029001250D
:103C700004926020ED0205AE23C69A4E05A9304697
:103C8000FCF7A8FA69463046FCF7B5FA2046FFF77C
:103C900043FF21463046FCF792FB01222146304685
:103CA000FCF7FDFAFFF76EFF01213046FCF763FBDE
:103CB00029463046FCF783FB012229463046FCF7B3
:103CC00052FB01213046FCF760FB01213046FCF736
:103CD000EEFA00213046FCF7EAFA01213046FCF703
:103CE000A4FA3046FCF7C5FA0120B1E770B588B0F8
:103CF000054601208002009000210F200002049060
:103D000001240391019102916020E40205AA13C2EB
:103D1000744E05A93046FCF75DFA69463046FCF75B
:103D20006AFA2846FFF7F8FE29463046FCF747FBBB
:103D3000012229463046FCF7B2FAFFF723FF0121A2
:103D40003046FCF718FB21463046FCF738FB0122D1
:103D500021463046FCF707FB01213046FCF715FBF6
:103D600001213046FCF7A3FA00213046FCF79FFA08
:103D700001213046FCF759FA3046FCF77AFA67E73A
:103D800000B5FFF70FFF5A4940004018408800BDBA
:103D900010204AE7082048E730B4534B1A7D002A28
:103DA00010D00021012420468840024206D08C40D9
:103DB0008900C918E0B2896930BC0847491CC9B2FA
:103DC0000829F0D330BC7047F8B5464F012138467A
:103DD000FCF7EEFA012846D002213846FCF7E8FA53
:103DE000012842D004213846FCF7E2FA01283ED0EF
:103DF00008213846FCF7DCFA01283AD01021384671
:103E0000FCF7D6FA012836D020213846FCF7D0FA44
:103E1000012832D040213846FCF7CAFA01282ED0BA
:103E200080213846FCF7C4FA01282AD0BC15214667
:103E30003846FCF7BDFA012825D0640021463846F3
:103E4000FCF7B6FA01281ED0640021463846FCF77C
:103E5000AFFA012817D0640021463846FCF7A8FACB
:103E6000012815D034E001210EE002210CE00421EC
:103E70000AE0082108E0102106E0202104E04021AA
:103E800002E0802100E021463846FCF798FA1FE066
:103E900021463846FCF793FA3846FCF780FA124D73
:103EA0000609297800240846E040C00703D1641CB5
:103EB000E4B2082CF7D300223846FCF7F0F9600092
:103EC0004019868068782978084368700020287037
:103ED00000213846FCF7A9F9F8BD0000001802409F
:103EE000001C0240002C0040280200202B3C000057
:103EF000F80100207FB5BC2000900F20174D012451
:103F00000290019469462846FCF762FA03204002B9
:103F1000FDF73CF91C206A46107300215173917320
:103F2000D47303A8FDF737F901212846FCF76FFA8F
:103F300001212846FCF75AFA20212846FCF75FFAAF
:103F40007FBD10B501210548FCF761FA10BD10B521
:103F50000248FCF75EFAFEF75AFC10BD002800404C
:103F600010B50221F748FCF750FC10BD10B504460F
:103F7000B031C8B201F029FF2009103001F025FF4F
:103F80002007000F01F021FF10BD70B51546002479
:103F9000FFF7ECFF002D284601F020FF2146641CAE
:103FA000E4B28329F6D370BD10B500240022214667
:103FB0001046FFF7EAFF641CE4B2082CF6D310BDEC
:103FC00010B5FFF7F1FFAE2001F0FFFE8D2001F0EC
:103FD000FCFE102001F0F9FE052000F028FE10BDC7
:103FE00070B5D94C0025658060881428FCD965809F
:103FF000AE2001F0EAFE8D2001F0E7FE142001F072
:10400000E4FEAF2001F0E1FE60881428FCD9658051
:1040100070BDF8B515460E460746FFF7A7FFCB491A
:10402000002468014518285D01F0D8FE641CE4B244
:10403000102CF8D3761CF1B23846FFF797FF002416
:104040002819007C01F0CAFE641CE4B2102CF7D3DE
:10405000F8BDF7B5203A009800240F46D5B27F2866
:1040600003D900208F1CFFB200903946FFF77EFF76
:10407000B74E2D012819305C01F0B0FE641CE4B28B
:10408000082CF7D37F1CF9B20098FFF76FFF0024CC
:1040900028198019007A01F0A1FE641CE4B2082CF2
:1040A000F6D3FEBD10B5040008D0642C20D0202229
:1040B00000213620FFF7CDFF39221FE0202200210A
:1040C0003620FFF7C6FF202200213E20FFF7C1FF68
:1040D000202200214620FFF7BCFF202200214E2095
:1040E000FFF7B7FF202200215620FFF7B2FF10BDD7
:1040F000312200213620FFF7ACFF302200213E2084
:10410000FFF7A7FF0A21204603F0FEFD0A463032E2
:1041100000214620FFF79DFF192200214E20FFF7C6
:1041200078FF10BD8B488D4A03788B48002B0178AF
:1041300010780AD0002807D10120002903D088492F
:104140008978032900D1107070470028FCD000291D
:10415000FAD10020F7E710B50024042800D9042084
:10416000030004F016FF070507090B0D0F111200DD
:104170000B240AE00D2408E00F2406E0112404E0DB
:10418000132402E0152400E0172476480078002864
:1041900000D01A24224600216020FFF73AFF621C5B
:1041A00000217020FFF735FFFFF7BCFF10BDF8B509
:1041B0000546C07902281ED86B4980000F46303F63
:1041C000085800242E46083638600EE0396863002F
:1041D000C85C5918925D4978A24201D13E2200E0A4
:1041E0002022FFF736FF641CE4B25F48EA792C38DE
:1041F000805CA042EAD8F8BD10B504462022022116
:104200004A20FFF726FFE07DA17D000208436428D5
:1042100022D3FF216931884202D3A175080AE075D3
:10422000E07DA17D00020843642103F06DFD303084
:10423000C2B202215220FFF70CFFE07DA17D0002F7
:1042400008430A280AD30A2103F05EFD0A2103F07D
:104250005BFD0A46303202E02022EAE720220221FA
:104260005A20FFF7F6FEE07DA17D000208430A21F7
:1042700003F04AFD0A46303202216220FFF7E9FED0
:104280003D2202216A20FFF7E4FE10BD70B5401800
:10429000847C4800801CC5B2202229464A20FFF7B2
:1042A000D8FE642C06D36421204603F02DFD303067
:1042B000C2B200E0202229465220FFF7CAFE0A2C93
:1042C00009D30A21204603F01FFD0A2103F01CFD3B
:1042D0000A46303200E0202229465A20FFF7B9FE74
:1042E0000A21204603F010FD0A463032294662209A
:1042F000FFF7AFFE202229466A20FFF7AAFE70BD15
:1043000010B50446202206214A20FFF7A2FE607D58
:10431000642805D3642103F0F7FC3030C2B200E01A
:10432000202206215220FFF794FE607D0A281DD32B
:104330000A2103F0E9FC0A2103F0E6FC0A463032C8
:1043400015E00000001C0240980100202B9800009E
:104350007B920000BB000020B8000020B7000020C6
:10436000C0010020B00000203801002020220621DA
:104370005A20FFF76EFE607D0A2103F0C5FC0A4655
:10438000303206216220FFF764FE252206216A20D2
:10439000FFF75FFE10BDC079022803D0012803D0CB
:1043A00003207047002070470420704770B5044612
:1043B000FFF7F1FF0546014620224A20FFF749FE9C
:1043C000E07864280DD36420E07031222946522021
:1043D000FFF73FFE302229465A20FFF73AFE3022EF
:1043E0001BE0202229465220FFF733FEE0780A28FE
:1043F00008D30A2103F088FC0A2103F085FC0A4651
:10440000303200E0202229465A20FFF722FEE078D1
:104410000A2103F079FC0A46303229466220FFF770
:1044200018FE252229466A20FFF713FE70BD0346B9
:10443000012000E058430A46491EC9B2002AF9D1BA
:10444000704710B501240A2801D2204610BD0A2168
:1044500003F05AFC641CE4B2F5E7F7B50746002602
:104460000298FFF7EEFF0546002423E0281B401EBC
:10447000C1B20A20FFF7DBFF0146029803F044FCBB
:104480000A2103F041FC002E05D1681E844202DAA5
:10449000002906D001263031E000C019CAB2C0B2EE
:1044A00003E0E000C019C0B220220199FFF7D1FD5E
:1044B000641CE4B2AC42D9D32846FEBD10B50279E3
:1044C0006420424306214A20FFF7C7FFC0004A305C
:1044D000C0B24B220621FFF7BCFD10BD7047F8B5F6
:1044E00017460E46044600250CE031462046FFF7ED
:1044F000B0FD0834E4B2782C02D90024B61CF6B220
:104500006D1CEDB27A5D002AEFD1F8BDFFB581B028
:1045100004461E46039804F033FB82B220460299FB
:10452000FFF79BFFC0000019F700C5B2002E2DD089
:104530002E2228460299FFF78CFD012419E021461E
:104540000A20FFF774FF04F05FFB039904F074FD89
:1045500004F016FB80B20A2103F0D6FBE0000A4605
:104560004019C01E3032C0B20299FFF772FD641CC0
:10457000E4B2B442E3D97819401DC0B20A9A029954
:10458000FFF767FD022E0DD905B0F0BD28460A9A47
:104590000299FFF75EFD28460830C0B2202202993A
:1045A000FFF757FD78190D30C0B2F8A20299FFF756
:1045B00096FFE9E710B5F648007800280FD0F54CD3
:1045C000207800280CD00B2200216020FFF721FD6D
:1045D0000C2200217020FFF71CFD0020207010BD70
:1045E0001C2200216020FFF714FD1D2200217020F5
:1045F000FFF70FFD0120F1E710B5C47AE649A000EE
:104600000A5806211A20FFF76AFF641CE4B20A2C3C
:1046100009D30A21204603F077FB0A2103F074FB3B
:104620000A46303200E0202200213520FFF711FD3C
:104630000A21204603F068FB0A46303200213D2063
:10464000FFF707FD10BD70B5164605460024FFF7BD
:104650008DFC002001F0C2FB2819641CE4B2B042BA
:10466000F7D970BD10B5452200213520FFF7EBFFCB
:10467000452201213520FFF7E6FF10BD70B5054644
:10468000002902D0FFF790FC01E0FFF7EBFFA879CB
:10469000FFF761FDA878002815D0012812D128461F
:1046A000FFF779FE014602223220FFF7B2FC2846CE
:1046B000FFF77CFE032206213220FFF7AAFC2846E2
:1046C000FFF7FCFE70BDB4482946283040680C3125
:1046D0000478E879415CE970002806D0012829D0E7
:1046E000022866D0032824D190E0ACA20021052046
:1046F000FFF7F5FE022203213220FFF78AFC28464D
:10470000FFF754FE722205212046FFF79CFF70221E
:1047100006211A20FFF797FF702207211A20FFF7C2
:1047200092FF032206213220FFF773FC2846FFF791
:10473000C5FE8FE09BA200210520FFF7D0FE264694
:104740001036F2B204212046FFF77DFFF2B20521B8
:104750002046FFF778FF022204213220FFF759FCA0
:104760002846FFF723FE1036F2B202212046FFF75B
:104770006AFFF2B203212046FFF765FF48220221BB
:104780003620FFF766FC2846FFF736FDF2B2062119
:104790002046FFF758FFF2B207212046FFF753FFEC
:1047A000532206213620FFF754FC2846FFF7A8FDC8
:1047B00050E07EA200210520FFF791FE5222022147
:1047C0003620FFF746FC00212846FFF75FFD26460E
:1047D0002036F2B204212046FFF735FFF2B2052160
:1047E0002046FFF730FF472204213620FFF731FC37
:1047F00001212846FFF74AFD422206213620FFF715
:1048000028FC02212846FFF741FD23E069A2002190
:104810000520FFF764FE722202212046FFF713FFF6
:10482000722203212046FFF70EFF72220421204648
:10483000FFF709FF022203213220FFF7EAFB284697
:10484000FFF7B4FD722205212046FFF7FCFE284643
:10485000FFF7D2FE2846FFF7AAFC70BD10B5FFF7A0
:104860007FFB564C02212046FBF7CFFF0A2000F0C9
:10487000DEF902212046FBF7CAFF0A2000F0D7F933
:1048800002212046FBF7C1FF0A2000F0D0F9AE203C
:1048900001F09BFAD52001F098FA802001F095FAFA
:1048A000A82001F092FA3F2001F08FFAD32001F006
:1048B0008CFA002001F089FA402001F086FAAD2040
:1048C00001F083FA8B2001F080FAA02001F07DFA3C
:1048D000C02001F07AFADA2001F077FA122001F014
:1048E00074FA812001F071FAFF2001F06EFAD920EC
:1048F00001F06BFA1F2001F068FADB2001F065FA85
:10490000402001F062FA332001F05FFAA62001F0A6
:104910005CFAFFF749FBAF2001F057FA2848002264
:10492000428041881429FCD942802648007800281A
:1049300003D101212448FFF7A1FE10BDF8B51E46A2
:1049400017460C460546FFF711FB384601F046FABC
:10495000641CE1B22846FFF709FB304601F03EFA3D
:10496000F8BD70B5164612090D460446092A01D84D
:10497000303200E03732FFF76CFB3207120F083499
:10498000092A23D8E0B22946303222E02000000074
:10499000B5000020FC0000201001002043435420FB
:1049A00020000000485349202000000052474220C8
:1049B000200000005343454E45000000001C02400B
:1049C00098010020B8000020C0010020E0B2294674
:1049D0003732FFF73EFB70BD10B5FFF7E5FA82A254
:1049E00002210820FFF77BFD83A204210820FFF7A6
:1049F00076FD10BD10B5834C0A21207803F084F9B0
:104A00003030C2B200210220FFF723FB0A212078B8
:104A100003F07AF90A46303200210A20FFF719FB29
:104A20003D2200211220FFF714FB10BDFFB581B01D
:104A30001D4616460746002408E02001C019325DD5
:104A4000C0B20299FFF7E5FA641CE4B2AC42F4D3B9
:104A50009AE510B5030004F09CFA0D080D13171B1E
:104A60001F252B3C5C80868C3B00FFF79DFA0423BE
:104A7000654A02E0644A0423121D0421202025E037
:104A8000614A04230832F8E75F4A04230C32F4E752
:104A90005D4A04231032F0E7FFF786FA5A4A0423EE
:104AA0001432EAE7FFF780FA574A04231832E4E7A2
:104AB000FFF77AFA544A06232D3204211020FFF71B
:104AC000B5FF514A0223921E06211020FFF7AEFFC8
:104AD00010BDFFF769FA4C4A072333320221102038
:104AE000FFF7A4FF484A0223921E04211020FFF77B
:104AF0009DFF454A0423143219463020FFF796FFE4
:104B0000414A0523283206211020FFF78FFF3FA2DC
:104B10001EE0FFF749FA3C4A07233A3202211020EF
:104B2000FFF784FF384A0223921E04211020FFF76A
:104B30007DFF354A0423183219463020FFF776FFEF
:104B4000314A0523283206211020FFF76FFF30A2DB
:104B500006216020FFF7C3FC10BDFFF725FA2A4AA3
:104B600004231C3289E7FFF71FFA274A0423203267
:104B700083E7FFF719FA244A042324327DE710B5AE
:104B8000044603F0FDFF3030C2B202215820FFF787
:104B900060FA2E2202216020FFF75BFA1D492046B1
:104BA00004F04AFA03F0ECFFC0B20A2103F0ACF8BB
:104BB0000A46303202216520FFF74BFA164920469B
:104BC00004F03AFA03F0DCFF80B20A2103F09CF80B
:104BD0000A46303202216D20FFF73BFA56220221AD
:104BE0007520FFF736FA10BD53573A323032312D67
:104BF00031322D303200000048573A564552303796
:104C000000000000BA0000203A9200003A6D410016
:104C10003A754100000020410000C842002805D03C
:104C20000022491E02D30270401CFAE77047E623B7
:104C3000002207E0002101E0491C89B29942FBD320
:104C4000521C92B28242F5D37047000010B5014663
:104C50005148FCF734F9514B51491878002802D1DA
:104C60004A88C82AFAD30020187010BDF8B54A4FF8
:104C70000D46064601213846FCF726F9002404E0DB
:104C8000305DFFF7E3FF641CE4B2AC42F8D30021CF
:104C90003846FCF719F9F8BD70477CB50124684621
:104CA000047100258571042000906846C4713D4E52
:104CB000447169463046FBF728FD684604718571EA
:104CC000022000906846C471447169463046FBF783
:104CD0001CFD684601948571402000906846C471AF
:104CE0004471314C69462046FBF70FFD0322022137
:104CF0003046FBF7BAFD032204213046FBF7B5FD31
:104D0000032240212046FBF7B0FD00212248FCF79A
:104D1000DBF87CBDFEB5FFF7C0FF102168460180BF
:104D20000025458085800321C1801B4E69463046A1
:104D3000FCF7ADF805200002FCF728FA0A216846C6
:104D40000172012444728472C47202A8FCF723FA2F
:104D500001213046FCF7AAF8104884700570FEBDAA
:104D600010B500210C48FCF7A1F810BD10B50121C9
:104D70000948FCF79BF810BD0749084801E0CA68DC
:104D800042708A681206FAD48278002A01D1FF2282
:104D9000CA600121017070470008004044010020F2
:104DA0009801002000100240001C024010B5FE488F
:104DB00081680F22120491438160816801221204EC
:104DC0001143816081680F22120591438160FEF7D3
:104DD00039FEF6490020087010BD10B5F248816810
:104DE0000F2212069143816081680122120611434D
:104DF0008160EF488168F02291438160FEF735FEC3
:104E0000EC490020087010BD10B5E74881680F22FA
:104E1000120591438160816801221205114381606E
:104E200081680F22120491438160FEF731FEDF4951
:104E30000120087010BD10B5DD488168F022914353
:104E400081608168102211438160D74881680F22F8
:104E5000120691438160FEF72EFED64901200870AC
:104E600010BD10B5FFF7D0FFFFF7E5FF10BD1CB573
:104E7000002069460871C871CB4C6220403C00900C
:104E80002046FBF742FC1021009169462046FBF7C3
:104E90003CFC04200090C64869464038FBF735FCCE
:104EA0001CBD1CB50020694608710220C871BE4CAB
:104EB0006220403C00902046FBF727FC1021009127
:104EC00069462046FBF721FC04200090B84869465B
:104ED0004038FBF71AFC802000906946B648FBF783
:104EE00014FC1CBD10B5FFF7BCFFB14881680F2250
:104EF000120291438160816882151143816010BD67
:104F000010B5AA49044640000978000E02D00029D5
:104F100003D004E0012902D010BDFFF775FF7F2107
:104F2000C905204604F00CF90146A44A012001F00D
:104F3000B7F810BD10B504464000010E9D48027838
:104F400002D0002A03D004E0012A02D010BDFFF7EE
:104F500072FF9A4A2146022001F0A2F810BD10B556
:104F6000044643009148190E027802D1180E1043EE
:104F700008D1012A01D1FFF719FF904A21460120EB
:104F800001F08EF810BD70B504468A487F25ED0506
:104F90000278AC4202D1002A04D070BD012A01D1AE
:104FA000FFF71BFF2946204604F0CAF80146834A52
:104FB000022001F075F870BD10B504464B200001C9
:104FC000844200D30446204603F01EFE7C4903F0D1
:104FD00027FDFFF795FF7B48C4807B48048210BD06
:104FE00010B504464B200001844200D304462046FD
:104FF00003F00AFE724903F013FDFFF79BFF7148AF
:1050000004817148448210BD10B501466B4A0420EA
:1050100001F046F810BD10B504464B200001844253
:1050200000D30446204603F0EFFD654903F0F8FC89
:105030000146624A042001F033F862480480624865
:10504000048010BD10B504464B200001844200D3FB
:105050000446204603F0D8FD594903F0E1FC01461F
:105060007F20C00504F078F8FFF78DFF5548448095
:105070005548448010BD10B504464B2000018442C1
:1050800000D30446204603F0BFFD4D4903F0C8FCA1
:10509000FFF765FF4B4884804B48848010BD10B5F6
:1050A0004A4900200870FFF79BFF0020FFF784FFAC
:1050B00010BD70B50446FFF7F2FF208803F0A4FD91
:1050C000434D296803F0B8FF03F05AFD80B2FFF7A3
:1050D000A2FF608803F098FD296803F0ADFF03F09C
:1050E0004FFD80B2FFF7AEFFA08803F08DFD296869
:1050F00003F0A2FF03F044FD80B2FFF7BCFF70BDD8
:10510000F1B586B006980027C088009006983D4605
:10511000C4683E4680682F4903F08EFF03F030FDDF
:1051200000062D49800D08580290FF210098693132
:10513000884201D3002000907F200299C00581425F
:1051400000DB02907F20C005844200DB04463C2146
:10515000009802F0D9FD062102F0D6FD0846049120
:1051600003F04AFD0190009803F04EFD1B4903F047
:1051700057FC019903F0F0FF03907F20C0050299CE
:1051800003F0EAFF214603F057FF009002990398CD
:1051900003F052FF7F21C90503F0D2FF214603F03F
:1051A0004BFF01907F201BE0401C024005010020C6
:1051B000401002400601002000180240001000408C
:1051C00000009644DA010020140200206001002053
:1051D000E40000200000C84280A2000000007042ED
:1051E000C005039903F0B8FF029903F025FF7F2162
:1051F000C90503F0A5FF214603F01EFF04990B002B
:1052000003F0C7FE0604070B0F12161927460546C2
:1052100001E0019F2546009E0DE025460646009FC1
:1052200009E0009F019D01E0009D0746264602E03F
:10523000019E009D27462946384603F0B7FE3146B9
:1052400003F0B4FE01460290384603F0E9FB0190FA
:105250002846029903F0E4FB00903046029903F0DF
:10526000DFFB0546F648844217DAF64EF64F019802
:1052700003F0ACFB32463B4603F054FA02F0F4FD77
:1052800001907608F14F284603F0A0FB32463B46DA
:1052900003F048FA02F0E8FD05460099019803F092
:1052A00085FE294603F082FE07462146019803F059
:1052B000C3FE394603F0B4FB01902146009803F089
:1052C000BBFE394603F0ACFB06462146284603F0F8
:1052D000B3FE394603F0A4FB0746019803F076FBC2
:1052E000DB4ADC4B03F01EFA02F0BEFD04463046FA
:1052F00003F06CFBD64AD74B03F014FA02F0B4FD6E
:105300000546384603F062FBD14AD24B03F00AFA55
:1053100002F0AAFD06466000CF4F000E0DD02046D9
:1053200003F054FB3A46CD4B03F0FCF9CC4ACD4B8D
:1053300002F054FF02F098FD04466800000E0DD004
:10534000284603F043FB3A46C44B03F0EBF9C44A4A
:10535000C44B02F043FF02F087FD05467000000ECB
:105360000DD0304603F032FB3A46BC4B03F0DAF97D
:10537000BB4ABC4B02F032FF02F076FD0646BA4F44
:105380002046394603F058FE03F0FAFB06990880E0
:105390003946304603F050FE03F0F2FB0699888050
:1053A0003946284603F048FE03F0EAFB0699488098
:1053B00007B0F0BD10B50020FFF72DFE0020FFF76D
:1053C00041FE0020FFF757FE10BDF8B504460079F6
:1053D0008100A64809188039C88B8D8B002822D0FF
:1053E000E17800291FD0183886B2084603F00CFC7B
:1053F0009F4903F021FE9F4903F012FB9E4903F0F1
:10540000D5FD0746304603F0FFFB394603F014FE96
:105410009A4903F0CBFD9A49096803F00DFE03F0A9
:10542000AFFB80B200E00020FFF7C6FD002D21D0C9
:10543000E07800281ED0183DADB203F0E5FB8C49A2
:1054400003F0FAFD8B4903F0EBFA8B4903F0AEFD54
:105450000446284603F0D8FB214603F0EDFD8749BA
:1054600003F0A4FD8649096803F0E6FD03F088FB1C
:1054700080B200E00020FFF7B3FDF8BDFEB50546A1
:1054800000790C468100794809188039C88B8E8BC9
:105490007B4900280968009121D0E97800291ED0B5
:1054A000183880B20190084603F0AEFB704903F053
:1054B000C3FD704903F0B4FA6F4903F077FD074666
:1054C000019803F0A1FB394603F0B6FD6B4903F0E8
:1054D0006DFD009903F0B0FD03F052FB00E00020E9
:1054E000E080002E1FD0E87800281CD0183EB6B20D
:1054F00003F08AFB5E4903F09FFD5E4903F090FADA
:105500005D4903F053FD0546304603F07DFB294617
:1055100003F092FD594903F049FD009903F08CFD19
:1055200003F02EFB00E000202081FEBD70B5054693
:10553000C07D544EA97D000234680843E080687D38
:1055400003F062FB504903F06BFAA060E878002892
:105550000AD003F059FB464903F06EFD454903F0BC
:105560005FFA454903F022FDE0602046FFF7C8FDE1
:105570003068FFF79EFD70BDF8B505464149807C57
:10558000424F00260C68002819D003F0C8F83A46AC
:105590003F4B03F0C7F800223E4B02F04FFE2E4A6D
:1055A0002E4B03F0BFF82E4A2E4B02F017FE0022BE
:1055B000394B03F0B7F803F065F8208000E026804F
:1055C000E87C002819D003F0AAF83A46304B03F0E3
:1055D000A9F800222F4B02F031FE1F4A1F4B03F0A7
:1055E000A1F81F4A1F4B02F0F9FD00222A4B03F0DD
:1055F00099F803F047F8608000E06680287D002875
:1056000019D003F08CF83A46214B03F08BF80022B6
:10561000204B02F013FE104A104B03F083F8104A9F
:10562000104B02F0DBFD00221B4B03F07BF803F074
:1056300029F8A08000E0A6802046FFF73AFDF8BDDB
:10564000CDCCCC3ECDCCCCCCCCCCEC3F6666F23FC6
:10565000666666666666EE3FAE47E17A14AEEF3F79
:105660007B14AE47E17A843F000096448CA1000091
:105670000000C04200401C460AD7233D0000C04144
:10568000E4000020E80000200000C8421D5A643BEE
:10569000DF4FD53F00E06F4000C09240FD48826878
:1056A00020218A438260FB48403802688A430260B6
:1056B000C16B032292029143C1637047F54882682F
:1056C00020218A438260F348403802688A4302609E
:1056D00002680A43026042680A434260C16B0322C7
:1056E00092029143C1637047002800D0E6E7D5E7F6
:1056F00010B5E84C403C206820212046FBF785F897
:1057000010212046FBF781F800BF00BF00BF00BF9B
:1057100000BF20212046FBF77AF800BF00BF00BF82
:1057200000BF00BF10212046FBF771F810BD10B577
:10573000FFF7C4FFD74C2021403C2046FBF767F819
:1057400000BF00BF00BF00BF00BF10212046FBF715
:105750005EF800BF00BF00BF00BF00BF10212046A1
:10576000FBF753F800BF00BF00BF00BF00BF202100
:105770002046FBF74AF810BD10B50120FFF7B4FF33
:1057800000BF00BF00BF00BF00BF1021C14C403CA4
:105790002046FBF73CF800BF00BF00BF00BF00BFC2
:1057A00020212046FBF733F800BF00BF00BF00BF39
:1057B00000BF10212046FBF728F800BF00BF00BF44
:1057C00000BF00BF10212046FBF721F810BD10B527
:1057D0000120FFF789FF00BF00BF00BF00BF00BF6F
:1057E0001021AC4C403C2046FBF711F800BF00BF35
:1057F00000BF00BF00BF20212046FBF706F800BF16
:1058000000BF00BF00BF00BF10212046FAF7FDFF18
:1058100000BF00BF00BF00BF00BF10212046FAF745
:10582000F6FF10BD70B59B4D0024403D2021284659
:10583000FAF7EBFF00BF00BF00BF00BF00BF00BF13
:105840000020FFF751FF00BF00BF00BF00BF00BF37
:1058500010212846FAF7D9FF07E0641CE4B2FA2CBD
:1058600003D9FFF764FF012070BD20212846FAF715
:1058700095FF0028F1D100BF00BF00BF00BF00BFEF
:1058800010212846FAF7C3FFFFF718FF002070BD6C
:1058900070B5804E0546403E10213046FAF7B7FFFE
:1058A0000024E80904D020213046FAF7AEFF03E0D7
:1058B00020213046FAF7ABFF6806050E00BF00BF97
:1058C00000BF00BF00BF10213046FAF79EFF00BFA7
:1058D00000BF00BF00BF00BF00BF00BF00BF00BFD0
:1058E00000BF00BF00BF00BF00BF00BF00BF00BFC0
:1058F00000BF00BF00BF00BF10213046FAF787FF8E
:10590000641CE4B2082CCCD370BDF8B50746002463
:105910002046FFF7E9FE5F4E0025403E6006040E7C
:1059200010213046FAF773FF00BF00BF00BF00BF71
:1059300000BF10213046FAF768FF00BF00BF00BF6C
:1059400000BF00BF20213046FAF728FF002801D011
:10595000641CE4B200BF00BF00BF00BF00BF102145
:105960003046FAF754FF6D1CEDB2082DD6D3002F48
:1059700003D0FFF701FF2046F8BDFFF728FFFAE745
:1059800070B50D46FFF7B4FE0024434E0DE0305DC8
:10599000FFF77EFFFFF746FF002804D0FFF7C7FEA2
:1059A0000020C04370BD641CE4B2AC42EFD3FFF7EB
:1059B000BEFE002070BDFFB581B01D460F4600241D
:1059C000FFF796FE344E08E0305DFFF761FFFFF70A
:1059D00029FF00280CD1641CE4B2BC42F4D3FFF7C9
:1059E00087FEF05DFFF754FFFFF71CFF002805D08E
:1059F000FFF79DFE0020C04305B0F0BD6F1E039C65
:105A000009E0BC4201D1002000E00120FFF77DFF4A
:105A10003055641CE4B2AC42F3D3FFF788FE00209B
:105A2000EAE71E4A50701C48D170012115300180F0
:105A30000021418070477FB5042069460881012418
:105A40004C811748009040208880A420154DC880C4
:105A50002846FAF72FFFA002FBF798FB0C206946B7
:105A60000873022048738C73CC7303A8FBF793FB75
:105A700003A8FCF7F7F801212846FAF778FF0A2176
:105A80000020FFF7CEFF05480321001DFFF7C6F8F1
:105A90007FBD0000401402406B020020470100203F
:105AA00010270000000C004030B5F94BF94C19707C
:105AB0009A700023E3800123521AA3800021153C31
:105AC00002E0455C6554491C9142FADB002BFDD194
:105AD00030BDF8B5F04CA189EE4FED4B153F18786D
