:020000040000FA
:10000000500B002089010000690A00006B0A000003
:1000100000000000000000000000000000000000E0
:10002000000000000000000000000000830A000043
:100030000000000000000000870A0000890A00009C
:10004000E51D0000E91D0000ED1D0000F11D000090
:100050000000000000000000970100009701000070
:100060009701000000000000254E000097010000ED
:10007000AB5D0000970100003B1C000097010000F1
:100080001720000000000000970100009701000009
:100090000000000097010000970100009701000098
:1000A000753E00009701000097010000000000006D
:1000B000FB3F00009701000097010000970100003E
:1000C00000F002F800F034F80CA030C8083824180A
:1000D0002D18A246671EAB4654465D46AC4201D180
:1000E00000F026F87E460F3E0FCCB646012633427E
:1000F00000D0FB1AA246AB463343184750A7000076
:1001000070A700000023002400250026103A01D328
:1001100078C1FBD8520700D330C100D50B607047BF
:100120001FB50098019908F00CFE1FBD10B510BD59
:1001300008F0B3FE1146FFF7F3FF02F031F808F0C4
:10014000CBFE03B4FFF7F2FF03BC08F02BFF000067
:1001500070B505460C46164602E00FCC0FC5103EA2
:10016000102EFAD2082E02D303CC03C5083E042E6B
:1001700007D301CC01C5361F03E021782970641C28
:100180006D1C761EF9D270BD06480047FEE7FEE7FB
:10019000FEE7FEE7FEE7FEE703480449044A054B95
:1001A00070470000C100000050030020500B0020E9
:1001B000500700205007002070B50122824D5403E3
:1001C0002146284600F016FE00222146284600F06F
:1001D00011FE70BD10B50268FF231B019A4318C9B8
:1001E0000968234311430B43036010BD00210160E4
:1001F00081604160704710B54268D30A14C9DB02C0
:1002000022430C681C432243426082686F4B1A40B1
:100210004B6889680B431343836010BD0021016064
:1002200041608160C160016170470029016802D0AE
:100230000122114301E0490849000160704730B5CF
:10024000046807252D02AC43046004680C43046075
:10025000816801242404A143816081681143816085
:100260008168FF2212029143816081681943816095
:1002700030BD0168022211430160704701460968E0
:100280000020890700D50120704701229202002931
:10029000416801D0114300E0914341607047002A5A
:1002A000826801D00A4300E08A43826070470122DD
:1002B000D2030029016801D0114300E0914301609D
:1002C0007047012292020029416801D0914300E069
:1002D000114341607047C06A80B2704700290ED058
:1002E000CA1FF93A09D0CA1FFF3AFA3A09D00322C5
:1002F0001202914207D18069704700697047C06857
:1003000070474069704701229202914201D1C06951
:10031000704705221202914201D1006A7047032200
:100320005202914203D007221202914201D1406A47
:1003300070470020704741630020704781630020B0
:100340007047002A426801D00A4300E08A434260B5
:100350000020704742681F235B019A4352095201F3
:100360000A4342607047002A426C01D00A4300E011
:100370008A43426470470122D2020029416801D0B9
:10038000114300E09143416070470122D2030029EC
:10039000416801D0114300E0914341607047006B18
:1003A00070470246D26C00200A4200D001207047FC
:1003B0000246126D00200A4200D001207047826C74
:1003C0000A4382647047000000000240FF00FEFF05
:1003D00010B5026810231A400B684C681B0289682C
:1003E0006401234311430B43036010BD1022002915
:1003F000016801D0114300E0914301607047026839
:1004000060239A43026002680A43026070474160B9
:1004100070470121C16070478B78002B036A01D0BF
:10042000134300E093430362CB78002B436A01D06F
:10043000134300E0934343620B79002B836A01D09E
:10044000134300E0934383624B78002BC36901D0D0
:10045000134300E09343C36109780029016901D087
:10046000114300E091430161704700008A49002078
:100470000968490700D50120704708B50020694682
:100480000870FFF7F3FF6946087008780128F8D074
:10049000087808BDF0B50746420AFFF7EEFF7E492F
:1004A00001257E4B7E4C402ACB60CC6006D94E693C
:1004B000403A520895402E434E6104E00E695208BE
:1004C00095402E430E61002809D1CB60CC600868AE
:1004D00002221043086000203860FFF7CEFFF0BD15
:1004E00030B5FFF7CAFF6C4A6C4CD4606C4DD560D8
:1004F0000021C9431161D460D560516100280BD13E
:10050000D460D56003201060FFF7B7FFD460D560DA
:100510001168090A0902116030BDF0B50E460746A0
:10052000FFF7ABFF5C4A5D4CD4605D4DD56011694F
:10053000012319431161002813D1D460D5601068DC
:10054000000A00021060D460D56010681843106083
:100550003E60FFF792FFD460D5601168090A090276
:100560001160F0BDF0B50E460746FFF786FF4A4A18
:100570004A4CD4604A4DD560116901231943116179
:10058000002813D1D460D5601068000A0002106002
:10059000D460D5601068184310603E80FFF76DFF8F
:1005A000D460D5601168090A09021160F0BDF0B588
:1005B0000E460746FFF761FF374A384CD460384D86
:1005C000D5601169012319431161002813D1D4604A
:1005D000D5601068000A00021060D460D560106811
:1005E000184310603E70FFF748FFD460D560116873
:1005F000090A09021160F0BD70B50C460546FFF707
:100600003CFF264E2449264B402D0BD3002808D111
:10061000002ACE60CB60486901D0204300E0A043AF
:10062000486170BD0028FCD1002ACE60CB6008690B
:1006300001D0204300E0A043086170BD1649174A6D
:10064000CA60174ACA60174A8A6170471249134A3A
:10065000CA60134ACA60134A8A6170470E4A0F4B38
:10066000D3600F4BD3600029116801D0014300E033
:10067000814311607047084A0146526800200A42CF
:1006800000D0012070470449044ACA60044ACA6085
:100690008A6882438A607047000402405A5A000008
:1006A000A5A500000100695A70B57549754C8842CE
:1006B00002D10122150604E0734988420BD10122C0
:1006C00055062946204600F095FB00222946204683
:1006D00000F090FB70BD6D49884202D10122950661
:1006E000EFE76B498842F5D10122D506E9E7644975
:1006F000002040318860644940318860634940315E
:1007000088606349403188607047F0B50022012756
:100710003B460C6893401C409C4232D1846C96004E
:100720000F25B540AC4384640C79012C04D0022C15
:1007300002D0002C0FD011E004689C4304600468D0
:100740001C43046044689C43446044688D79954030
:100750002C43446002E004689C430460C56B540071
:100760000326A640B543C563CD79A540C46B254398
:10077000C563046C9C430464036C4C79944023432C
:100780000364521C082AC3D3F0BDFF21016000217D
:100790000171012242718171C17170470246D268B4
:1007A00000200A4200D001207047C068C0B27047E4
:1007B000FF2201320029416B01D0114300E0914337
:1007C00041637047002A426B01D00A4300E08A432C
:1007D0004263704710220029816B01D0114300E071
:1007E000914381637047826B120912018263826BAD
:1007F0000A43826370470246926800200A4200D092
:10080000012070478068C0B27047C16270470163C1
:100810007047002A01D0C162704701637047816050
:10082000704782684A408260704710B5C36B4900C8
:1008300003248C40A343C363C36B8A401343C36345
:1008400010BD01238B40416C002A02D099434164C2
:1008500070471943FBE710B5836C0F249440920056
:10086000A34391401943816410BD10B54907C90ED7
:10087000836C8A400F248C40A3431343836410BDD0
:100880000010024000000240001402400018024024
:10089000001C02406D4910B588420AD16C4C0122FF
:1008A0000421204600F0A6FA00220421204600F090
:1008B000A1FA10BDF8B50D4604460968654A002046
:1008C000654F012691421BD8C800083007F081FF10
:1008D00002460B460020394607F00AFD00225F4B16
:1008E00007F0D6FC00225E4B07F0DFFC07F024FF88
:1008F00080B2042800D204202188FE2211401CE08E
:10090000584A914217D8C800083007F062FF0246E3
:100910000B460020394607F0EBFC00224F4B07F056
:10092000B7FC00224E4B07F0C0FC07F005FF80B279
:10093000042800D20420218831432180A08221880C
:10094000A8882A89104308432080A888442803D116
:10095000E888698908432081F8BD3E490160442147
:1009600081800021C18001810121418170474022A5
:100970000029018801D0114300E0914301807047B4
:1009800020220029018A05D0012319430182018810
:10099000114304E0490849000182018811400180A7
:1009A000704720220029018801D0114300E09143C3
:1009B0000180704710220029018801D0114300E016
:1009C00091430180704704220029018801D011431E
:1009D00000E09143018070470289FE2349081A40D4
:1009E00049001143018170470029018902D0012289
:1009F000114301E049084900018170478180704737
:100A00008088C0B27047002A02D00122114301E061
:100A1000490849008180704708B540180090006877
:100A200008BD04220429018802D091430180704747
:100A30001143FBE708220029018801D0114300E09F
:100A40009143018070478089C0B27047000C00401C
:100A500000000240A086010060E376410000E03F14
:100A60000000F03F801A0600704701F0E8F900F03E
:100A70000CF801F0E4F900F008F800F006F800F0D6
:100A800004F87047704770477047BFF34F8F0449B1
:100A90000248C860BFF34F8F00BFFDE70400FA05AE
:100AA00000ED00E03048006870474368022293433D
:100AB0000A681A4304239A434B6813433022934332
:100AC0008A681A4340239A43CB6813438022934396
:100AD0000A6949691A4301235B029A431143416041
:100AE00070470029416802D00122114301E0490802
:100AF00049004160704708220029416801D0114334
:100B000000E0914341607047FF22013200294168B3
:100B100001D0114300E091434160704701464968AC
:100B20000020C90300D50120704708B50022012329
:100B30001B04009242681A409A42FBD0416108BDF2
:100B400008B5002201231B04009242681A409A4211
:100B5000FBD0816008BD0246D26800200A4200D066
:100B6000012070470161704700440040BD48816822
:100B70004909490181608168490D490581607047D3
:100B8000B94ABA4B03660A438262591E016670472E
:100B9000B54AB64B03660A430263591E01667047A5
:100BA0001143B24A0266B04A1143C162AF49491EBD
:100BB000016670471143AD4A0266AB4A1143416377
:100BC000AA49491E0166704718B50021052424036F
:100BD00001231B030091816A009A1940521C009264
:100BE000A24201D09942F6D0994201D1012018BD0C
:100BF000002018BD18B5002200929C4A02669A4A4D
:100C00008918C162402205242403C16A009B114057
:100C10005B1C0093A34202D04029F6D001E040299A
:100C200005D00021914A521E0266084618BD0121D6
:100C3000F8E718B5002200928C4A02668A4A8918A1
:100C400001630524240301231B03016B009A19404F
:100C5000521C0092A24201D09942F6D0994201D191
:100C6000012100E00021814A521E0266084618BD9B
:100C700018B5002100917D49016640230524240315
:100C8000416B009A1940521C0092A24202D04029A6
:100C9000F6D001E0402905D00021744A521E0266B8
:100CA000084618BD0121F8E710B54B684A699B0258
:100CB0001A430B688C68DB02640223431A43CB6837
:100CC00009691B021A4309010A4367490A43674934
:100CD00001664263491E016610BD644A026600292E
:100CE00001D0634900E0604941636049491E0166E3
:100CF00070475E4A02668163511E01667047C36B8E
:100D00005B0E5B06C363C36B09060B43C363C16B16
:100D10001143C1637047C36B012252069343C363FF
:100D20000029C16B01D0114300E09143C1637047BA
:100D300030B5036A446B4C4D9BB2A4B22B432C4399
:100D400001290BD0022910D004290ED0FF2501352E
:100D5000A94211D1002A0ED02C430DE0002A01D067
:100D6000012104E05B085B0006E0002A01D00B4390
:100D700002E08B4300E0AC433C49016603624463FC
:100D8000491E016630BD384A1143384A0266416245
:100D9000511E01667047026907231B029A430A43EA
:100DA00002617047026901231B03002901D01A4325
:100DB00000E09A43026170470269120A12020A4374
:100DC00002617047006A4007400F7047016070473A
:100DD00041607047002A826801D00A4300E08A43DC
:100DE00082607047002AC26801D00A4300E08A434B
:100DF000C26070471D4B0366002A426C01D00A4353
:100E000000E08A4342641949491E01667047174A47
:100E10000266002902D01449491C00E0124981648D
:100E20001249491E01667047104B10B55B1E1943ED
:100E30005C1C0466002A826901D00A4300E08A43F0
:100E40008261036610BD0246D26900200A4200D0CA
:100E500001207047044A0A43044901660264491E9E
:100E600001667047000002400000695A9966AA5561
:100E70000008695A10B51C4C012210212046FFF7CA
:100E8000B9FF002210212046FFF7B4FF10BD0A88E9
:100E90004B881A438B88C9880B431A4302607047FA
:100EA0000021018041808180C1807047402200295B
:100EB000016801D0114300E0914301607047C160B7
:100EC0007047C068C0B270470029416801D0002156
:100ED00001E0012211434160704702469268002000
:100EE0000A4200D0012070470000024010B55B4C60
:100EF000012280212046FFF77DFF0022802120462D
:100F0000FFF778FF10BD564A02650029016802D03C
:100F10000122114301E04908490001605049491E7E
:100F200001657047002904D041680021C943416030
:100F300070470168002101607047002904D04168B2
:100F4000490849004160704701680122114301606E
:100F50007047826812091201826082680A438260C7
:100F60007047826830239A43826082680A438260B5
:100F700070478268C0239A43826082680A43826015
:100F80007047826803231B029A43826082680A4387
:100F90008260704710B5C368490003248C40A343A6
:100FA000C360C3688A401343C36010BD10B50369B2
:100FB000890007248C40A343036103698A401343DB
:100FC000036110BD02690F231B049A430261026989
:100FD0000A43026170470269012109058A430261DF
:100FE00002690A43026170470169012212059143B7
:100FF0000161704710B54369890007248C40A34301
:10100000436143698A401343436110BD42690F2322
:101010001B049A43426142690A4342617047104A85
:10102000026582690F4B92B2D218920892000A436D
:1010300082610B49491E01657047094A0265826950
:10104000084B92B2D2181023002901D01A4300E0B5
:101050009A4382610249491E0165704700000240BF
:101060009966AA550000695A454910B5884202D0D0
:10107000444988420AD1444C012240212046FFF7CE
:10108000B9FE002240212046FFF7B4FE10BD30B566
:1010900002680523DB011A4018C94D6823438C6898
:1010A0002C4323430C682343CC68096923430B4337
:1010B0001343036030BD0021FF2201328161826051
:1010C0004160D10001604021C160082141611021CF
:1010D0000161704780220029016801D0114300E0BE
:1010E000914301607047012252020029016801D03A
:1010F000114300E0914301607047202200290168FC
:1011000001D0114300E09143016070470268FF2362
:1011100001339A43026002680A4302607047026822
:101120000123DB029A4302600268C9430A4302605A
:1011300070470268D208D200026002680A43026067
:10114000704700684007400F7047416081617047F9
:101150004068704781607047806870470246D26877
:1011600000200A4200D00120704702461269002088
:101170000A4200D001207047C907C90F416170477A
:1011800000180040001900400000024022490843B6
:101190002249C860704770B5C2780F2301240178D6
:1011A000002A1AD01D4AD568520D1540521B120A4A
:1011B0000425AE1AD34045788278B5401A402A43B8
:1011C000174B12018900C9180A600078C106C90EC0
:1011D0008C4040098000134906E0C806C00E8440D8
:1011E00048091049800080314018046070BD704784
:1011F0000A4A0029116901D0014300E081431161CD
:101200007047042208490428086902D09043086105
:1012100070471043FBE700000000FA0500ED00E016
:1012200000E400E000E100E000E000E0704730B5DD
:101230000268FD4DFD4B92B2A84201D0984203D105
:101240007024A2434C882243A84201D0984203D183
:10125000F74C1440CA88224302608A88C2620A8816
:101260008262A84201D0984201D1097A016301212A
:10127000416130BD30B5026AEE4B1A400262026A2B
:1012800093B24268846992B2A4B27025AC43A408B8
:101290000D88A40025430224A3430C891C434B88DA
:1012A0002343E14CA04202D0E04CA0420DD10824DF
:1012B000A3434C891C4304239C438B882343DC4C6D
:1012C00022408C891443CA89224342608561C988BF
:1012D0004163036230BD70B5026AD64B0F3B1A40C2
:1012E0000262026A95B24268836992B2D24C9BB2A2
:1012F00023400C782406240C1C4320239D430B8997
:101300001B051E0C4B882E431B051B0CC64D33437F
:10131000A84202D0C54DA84215D18025AB434D89C6
:101320002D052D0C1D4340239D438B881B051B0C55
:101330002B43C24D2A408D89AD042D0C1543CA891B
:101340009204120C2A4342608461C988816303625B
:1013500070BD30B5026AB74BFF3B1A400262026AA9
:1013600093B24268C46992B2A4B27025AC43A40897
:101370000D88A4002543B24C23400C7A2406240C8B
:101380001C438B781B061B0C2343A74CA04202D0A6
:10139000A64CA04215D1AB4C23408C7A2406240CD9
:1013A0001C43A94B1C400B791B061B0C2343A74C69
:1013B00022408C892405240C1443CA891205120C7E
:1013C00022434260C561C988C163036230BD30B544
:1013D000026A9F4B1A400262026A94B24268C36971
:1013E00092B2954D9BB22B400D782D062D0C1D43CE
:1013F000984B1C400B7A1B071B0C23438C7824074B
:10140000240C1C43884B984202D0884B984205D14B
:10141000914B1A408B899B051B0C1A434260C56196
:10142000C9880164046230BDC269844B1A40C2613C
:10143000C2690906090C0A43C2617047C2697D4B43
:101440000B3B1A40C261C2690A43C261704782699C
:101450007A4B1A40826182690906090C0A4382614B
:101460007047F0B5046A734D0F3D2C4004628469E7
:10147000A6B2046A794F1B073E401B0C3343120689
:10148000120C0D051A43684E2D0C1023A4B2B04265
:1014900002D0664EB04203D120218C432C4302E09F
:1014A000A025AC430C431C4382610462F0BD8269F9
:1014B000604B0B3B1A40826182690A43826170472C
:1014C00070B5046A5B4D2C4004628469A5B2046A5D
:1014D0001B05F3261B0CB54313432B43524D01222E
:1014E000A4B2A84202D0514DA84201D1022500E089
:1014F0000A25AC430C4314438361046270BDF8B504
:101500000C4605460888484E4988A2882389002849
:1015100022D0042828D008282ED0286A94464C4A85
:1015200010402862E86987B2286A0A07120C9646BA
:101530004A4A1B07174062461206120C17431B0C3F
:101540003B43B71480B2B54202D0384A95423DD1F0
:101550004049084071463BE02846FFF7B1FFE1886B
:101560002846FFF7A4FFF8BD2846FFF77AFFE18879
:101570002846FFF76CFFF8BD286A96462D4FFF3FBF
:1015800038402862E86987B2286A0A06120C944635
:10159000F32297431B051B0C724613433B43FF2763
:1015A000013780B2B54202D0204A954203D1244986
:1015B0000840614601E02A4A104008433843EB6185
:1015C0002862E1882846FFF739FFF8BD254A104018
:1015D00008433843EB612862E1882846FFF724FF7F
:1015E000F8BDF8B50C4649880026012507460029B4
:1015F00000D10226A288012A00D102252088238951
:101600000028384630D0FFF72CFFE1883846FFF736
:101610001EFF23892A4631463846FFF751FFE188ED
:101620003846FFF744FFF8BD00100040003C004082
:10163000FFFC0000FEFF0000FF8C0000FFF3000035
:10164000FFFD0000FFF70000FFFB0000FFCF0000E0
:10165000FFEF0000FFDF0000FFBF0000FF0C0000F5
:10166000FFF50000FF7D0000FFF72AFFE188384604
:10167000FFF71DFF23892A4631463846FFF7F1FE62
:10168000E1883846FFF7E3FECDE710B50A884B88BE
:10169000CC881A438B8823431A430B891A434B89FE
:1016A00089891A430A43426410BD0021C9438180DD
:1016B00000210180C18041800172704700210180BA
:1016C00041808180C180018141818181C1817047D8
:1016D00000210180418001228280C1800181704708
:1016E0000021018041808180C1800181418181810F
:1016F00070470029016802D00122114301E0F64A37
:101700001140016070470029416C03D00122D203CF
:10171000114301E04904490C41647047002AC26842
:1017200001D00A4302E0C94389B20A40C26070474F
:1017300041617047114381647047002AC26801D03B
:101740000A4302E0C94389B20A40C2607047816817
:10175000E14A921F1140816070478268702392B203
:101760009A430A438260704710B50446FFF7F5FFBD
:10177000A06807210843A06010BD70B516460D464D
:10178000044660290CD001223146FFF799FE294614
:101790002046FFF7E2FFA06807210843A06070BD64
:1017A00001223146FFF75DFEF1E710B584681B06A4
:1017B0001B0C1343E4B20B432343836010BD10B5ED
:1017C0000446FFF7F2FFA06880B2C108C9000720F5
:1017D0000143702081430143A16010BD10B5044650
:1017E000FFF7E3FFA068012189030843A06010BD53
:1017F0008162426170470268702392B29A430A4341
:101800000260704770B58468A5B28469066AA4B2A4
:10181000ED08ED000D43B149B6B20C40FF21023195
:101820000C4322218E431905090C11433143856075
:101830008461016270BD8269702392B29A430A4347
:10184000826170478269A64B92B209061A40090C60
:10185000114381617047C269702392B29A430A436F
:10186000C2617047C2699E4B92B209061A40090CC8
:101870001143C16170470029016802D080221143E1
:1018800002E0954A7F3A11400160704700294168A3
:1018900002D00422114302E08F4AD21E114041605F
:1018A00070470029416802D00822114302E08A4AA9
:1018B000D21F1140416070470029416802D00122C7
:1018C000114301E0844A1140416070478269082356
:1018D00092B29A430A43826170478269814B92B205
:1018E00009061A40090C114381617047C269082337
:1018F00092B29A430A43C2617047C269794B92B26D
:1019000009061A40090C1143C1617047826904231A
:1019100092B29A430A438261704782696F4B92B2D6
:10192000FD3B09061A40090C114381617047C269E9
:10193000042392B29A430A43C2617047C269674B5B
:1019400092B2FD3B09061A40090C1143C161704770
:101950008269802392B29A430A4382617047826906
:1019600009065204520C090C114381617047C26987
:10197000802392B29A430A43C2617047C269090642
:101980005204520C090C1143C1617047026A0223D0
:1019900092B29A430A4302627047026A082392B2E3
:1019A0009A430A4302627047026A202392B20905F1
:1019B0009A43090C114301627047026A802392B274
:1019C00009059A43090C114301627047026A464BAC
:1019D00092B209061A40090C114301627047026A6B
:1019E000404B92B209061A40090C1143016270473C
:1019F000026A3E4B92B209071A40090C1143016278
:101A0000704710B50123046A8B40DB439BB21C4036
:101A10000462036A8A4091B20B43036210BD10B5A1
:101A20000423046A8B40DB439BB21C400462036ABC
:101A30008A4091B20B43036210BD30B503461833A0
:101A40000124056A8C40E443A4B2254005620029C4
:101A500010D008290ED0091F0804400CC0180168D6
:101A600007231B039943016001681206120C1143FE
:101A7000016030BD4808C0180168702399430160B7
:101A80000168F4E70029016802D00222114302E054
:101A9000114A521E1140016070470029016802D0AE
:101AA0000422114302E00C4AD21E1140016070472B
:101AB0000029416802D08022114302E0064A7F3AA1
:101AC0001140416070470268034BDB1F1A400260FF
:101AD00002680A4302607047FEFF0000FCFC000041
:101AE000FF8F0000FFF70000FFFD0000FFDF000098
:101AF00042682D4B1A40426042680A434260704778
:101B00008268294B69331A40826082680A43826086
:101B100070478268244B103B1A40826082680A43F7
:101B20008260704741627047C1627047416370478D
:101B300081637047C16370470164704702681B4B43
:101B40001A40026002680A4302607047406B80B22C
:101B50007047806B80B27047C06B80B27047006C7A
:101B600080B27047406A80B27047806A80B2704726
:101B70000246126900200A4200D001207047C94382
:101B800089B201617047024613690020D2680B4098
:101B90000A40002B02D0002A00D001207047C94320
:101BA00089B20161704700008FFF0000FFFC000058
:101BB00030B589B0044600211020059040200490E3
:101BC000244807910691039102910191844223D107
:101BD00001A92046FFF75BFA1F4D20462946FFF773
:101BE000B4FA29462046FFF7B0FA07200002FFF7B3
:101BF000CDFA0E20694608700320487088700120D5
:101C0000C8706846FFF7C7FA684600F02BF8012154
:101C10002046FFF772FA0AE005200591079001A916
:101C20002046FFF734FA00212046FFF78EFA012103
:101C30002046FFF74FFA09B030BD10B50121054825
:101C4000FFF79AFA0549C888401CC880044901205A
:101C5000086010BD0018004040A2FFFF980100205E
:101C60000000002010B50278407894079308E20E37
:101C70000021921D002802D0401E90400146032002
:101C80009040C2435B489B001818036813400360F0
:101C900002680A43026010BDFEB503267602304694
:101CA000FFF774FA00256846057201244472C47275
:101CB00002A8FFF770FA02A8FFF7D4FF3046FFF73B
:101CC00065FA684604724472C47202A8FFF763FAA8
:101CD0003046FFF75BFA0221684601724472C47213
:101CE00002A8FFF758FA05200002FFF74FFA032178
:101CF000684601724472C47202A8FFF74CFA684643
:101D000004708570C57005714470402269463A4878
:101D1000FEF782FBFEBD10B5044600F092FD60693F
:101D2000C00705D0A069C00702D0E069012107E023
:101D30006069800707D5A069800704D5E0690221A2
:101D40000843E06110BD6069400711D5A0694007F4
:101D50000ED5E06904210843E06128488442F1D1AE
:101D6000274800780028EDD026491E20088010BDA5
:101D70006069000705D5A069000702D5E069082160
:101D8000DEE76069C00605D5A069C00602D5E06936
:101D90001021D5E76069184980060BD5A069800637
:101DA00008D5E06920221043E0618C42DFD100F0C9
:101DB00083FB10BD606940060BD5A069400608D5BD
:101DC000E06940221043E0618C42F2D100F071FBE7
:101DD00010BD60690006FBD5A0690006F8D5E06972
:101DE0008021ADE7084896E7084894E7024892E763
:101DF000024890E700E400E000180240001C0240A6
:101E0000B8000020CA000020001002400014024068
:101E100000687047008870470078704710B503204D
:101E2000FEF731FC7F204002FEF734FB10BD08B501
:101E3000002069460870012204F040F808BD70B522
:101E40001A250026284605F021FF044619212F48AF
:101E500005F00BFF01462D480176090A4176002C5A
:101E60000DD02B490170090A417001462A46002015
:101E700004F024F8204605F03AFF304670BD0120FA
:101E800070BDF1B51A250026284605F0FFFE0400B6
:101E90000DD001462A46002004F06EF820881C4927
:101EA000884206D0204605F022FF0120F8BD03201D
:101EB000F8BD617E207E0F02074300BF1921204636
:101EC00005F0D3FEB84204D0204605F010FF0220F2
:101ED000F8BD2A462146009805F02FFF204605F060
:101EE00006FF3046F8BD10B50848FFF7CAFF0028C6
:101EF00009D1064841780278080205491043884212
:101F000001D1002010BD012010BD0000C001002043
:101F10003A5A000010B500215E48FEF7E2FD5E4827
:101F2000016904221143016130BF10BD10B50021C9
:101F30005848FEF7D6FD58480169042291430161D3
:101F400030BF10BD10B5554C00280ED0544B0128A1
:101F500012D002281BD0032818D10522062151488F
:101F6000FEF783FC032109020DE0012204214E4803
:101F7000FEF77BFC002106E0052203211846FEF750
:101F800074FCFF2101312046FEF7FBFF10BD052246
:101F900006211846FEF769FC01214902F3E7F0B576
:101FA00089B0022630200024059003963002394F74
:101FB000089004940694079403A93846FEF775FD2B
:101FC00001256846057184710096C47145716946A2
:101FD0003348FEF79AFB05200002FFF7D7F81021DF
:101FE0006846017245728572C57202A8FFF7D3F880
:101FF0002E4C38462146FEF7A3FD21463846FEF713
:1020000094FD01213846FEF77FFD01213846FEF799
:1020100068FD09B0F0BD70B501211E48FEF7A2FDB4
:10202000234C2088401C20806088401C60802089D0
:10203000401C208120890A2105F0C0FE01250029CD
:1020400000D1A5722089142105F0B8FE002900D125
:10205000E5722089642105F0B1FE002900D12573C5
:102060002089C82105F0AAFE002902D1657300204D
:102070002081608819218901884208D3BFF34F8FDE
:1020800005490C48C860BFF34F8F00BFFDE70A4801
:10209000057070BD0044004000ED00E0001C0040F1
:1020A000001C024000180240001402403FFF0000E4
:1020B000980100200400FA0504000020F8B5354E10
:1020C00007460122324D002411463046FEF730FE0D
:1020D00031483B0006F0B7FF050406080A0C0D0066
:1020E000048806E0448804E0848802E0C48800E0B4
:1020F00004892A492005000D054326484030016225
:10210000B562491E0162F8BD70B5224C0646204DED
:10211000012204212046FEF70BFE002E11D01E489E
:102120001430FFF777FEC005C00D054319481B4961
:10213000403001622563491E0162206BC004FCD55A
:1021400070BD15481030ECE71149144A014311489D
:10215000403002620F4A51621049491E01627047C5
:1021600010B50020FFF7AAFF0120FFF7CDFF0948B7
:102170000A494030016207490A6A054B85331A4310
:102180000A620649491E01620120FFF7DDFF10BD0A
:102190000000695A00000240A00000189966AA5584
:1021A00000216648C9438160C160FFF7D9FF644CD4
:1021B00001202070FFF7F3FE01F08CFC00F0CAFA5A
:1021C000604D68882828FCD300266E8001F079FCD9
:1021D00000F0D6FFFFF760FD5B48FFF7E9FC5C49C4
:1021E0005A4808805B495A4803F040FF02F0D0FE8D
:1021F000002002F037FF002002F048FF00F011FB42
:102200006E8068881428FCD36E80267000F0A8FDCC
:10221000514F38606E80022450480078002810D159
:102220004F48396881420CDA68883C28FCD36E80BC
:1022300000F096FD38606E802046641EE4B20028EF
:10224000EAD1484839680160FFF74DFE464F002843
:102250000AD1F87DB97D00020843FF216931884227
:1022600002D8787D642801D900F08AFF3F48012414
:1022700004703A4801783E48002904D139490A6877
:1022800037498A4231DB3B490E7004703648F97990
:102290000C30085CF87000280AD080213648FEF720
:1022A000B4FA40213448FEF779FA002805D007E057
:1022B00080213148FEF7ABFAF3E730480521017081
:1022C000F879002807D12E480681C6802D48047071
:1022D0002D480681C680244800F070FF1F48007812
:1022E000002805D00420B87102E022490C70067065
:1022F00002F00AFB2548047025481E4C0670207821
:10230000002804D001F0B3FB207800280CD100F0A5
:10231000BEF800F010FA19480078002804D0B87808
:10232000042801D001F0E3F968880028ECD068881F
:10233000401E688001F015F9E6E700000000024049
:10234000C50000209801002000180040AF040000E4
:10235000A801002000100040D0000020B0000020A4
:102360009A995940DC000020C0010020B3000020F1
:10237000C6000020B8000020001802400B0000201A
:10238000DA01002060010020EE010020C2000020E0
:10239000C4000020ED4903788A789A438A70C268A5
:1023A0000021118040680178890889000170704718
:1023B000E749098801221204511AC2681180017884
:1023C000E2488278114381707047E04A017893783F
:1023D000194210D00169C968838A19420BD041683B
:1023E0000978CB0706D0890704D4017F002901D1E1
:1023F000017AD170CEE7704770B40169C968828AEA
:1024000011421ED1D14C0178A27811422AD0C16864
:102410000B88002B26D04168CD4D0A78D60712D004
:1024200092070ED42A889A18438B92B29A4208D9FE
:10243000427AE2700A7802231A430A70C0680021C7
:10244000018070BC70472D885B19058B9BB2AB4235
:10245000F7D901231A430A70017F0029F1D0007ACD
:10246000E070EEE770BCA3E7B8494C3148680278E9
:10247000920892000270C968002008807047416885
:102480000978890702D5B149007AC8707047AF480A
:1024900000B54C30FFF799FFAC484C30FFF7ACFF6C
:1024A000AA486C30FFF791FFA8486C30FFF7A4FFF3
:1024B00000BDA6484C307BE7A4486C3078E7C36A7F
:1024C00000221A80836A00291A80036A1A80436AEC
:1024D0001A8043691A7083681A7043681A70036916
:1024E0001A7083691A70C3681A70C3691A7003D0AE
:1024F000416C0A80006C02707047F0B50446C369F5
:10250000226B1E780120A18E914DD268002E0AD038
:102510000A42A16825D0097800292BD0E1680A7801
:10252000002A19D026E00A4207D11870E988226AE9
:10253000C943491C1180A1680870A16BC968A28FAA
:10254000114208D1E1690870E988E26AC943491C6F
:10255000118061690870F0BD0870E988626AC9433A
:1025600006E00A78002A05D10870E988226AC94382
:10257000491C1180A16BC968A28F114261690BD0FF
:102580000978002911D0A1690A78002A0DD10870B4
:10259000E888A16AC04306E00A78002A05D10870DD
:1025A000E888E16AC043401C0880A16BCA68A08F1C
:1025B00002427DD0226BD268A38E1A4278D0626923
:1025C0001278002A74D0A2681278002A70D0A2690A
:1025D0001278002A6CD0E2681278002A68D0606A0B
:1025E000E9880088401880B20128B4D9A06AE98837
:1025F0000088401880B20128ADD9206AE988008897
:10260000411889B2052906D8E16AEA88098889183B
:1026100089B205295FD9E988EB8841188AB2E16A55
:1026200009888027CB189BB2484E9A4224D90021B2
:102630002046FFF744FF2078F070606C0188002985
:102640000ED0226CF37812785206520E9A4207D1BD
:102650002A88891889B20A2902D2F1783943F1709F
:102660002A8801210904891A0180F078216C0870F8
:102670007078401C7070F0BDEA888918EA8889B2C9
:10268000801880B2814226D900212046FFF717FF2B
:102690006078F070606C0188002910D0226CF378AB
:1026A00012785206520E9A4209D12A88891800E0FF
:1026B00016E089B20A2902D2F1783943F1702A88EA
:1026C00001210904891A0180F078216C08703078A2
:1026D000401C3070F0BD01212046FFF7F0FEF0BD38
:1026E000C9680142FBD0206BC068A18E0842F6D0B9
:1026F000E068007800280ED06069007800280AD1D0
:10270000606AE9880088401880B2012803D9012155
:102710002046FFF7D4FEA06900780028DFD0A0682B
:1027200000780028DBD1A06AE9880088401880B2D0
:102730000128D0D8F0BD0548001DDEE60348001D85
:10274000C0690078002800D00120704708000020F0
:10275000980100207CB5002568460571012444716C
:102760008471C4714020FD4E009069463046FDF7EB
:10277000CCFF082000906846C47169463046FDF7DA
:10278000C4FF1020009069463046FDF7BEFF2020B0
:10279000009069463046FDF7B8FF684604718571C0
:1027A000802000906846C57169463046FDF7ADFF50
:1027B00080213046FEF72BF8684604718471302082
:1027C00000906846E64CC57169462046FDF79DFFBE
:1027D00010212046FEF719F820212046FEF715F8B3
:1027E000E0488168E04A11408160DD4840308168FE
:1027F000FF221204914381608168D24311438160BA
:10280000D64840308168D94A11408160D8488168F3
:10281000D84A114081608168FF2212021143816011
:102820007CBDD548017A002901D0032100E0D349BD
:1028300041837047D048017A002901D10621C17532
:10284000704710B50121CE48FEF74BF9FFF7E9FFBD
:1028500010BDC9480021C1738173704770B5C64C63
:102860000120207201F002FC0025A57502F0CEFACD
:1028700003F0B4FD8021B948FDF7C9FFFFF7F4FD6F
:10288000E573E5722575E571A573FFF743FB70BD30
:102890007047B949487B002801D0401E48737047F3
:1028A00010B5B549C87C002806D0401E0006000EB1
:1028B000C87401D1FFF7C3FA10BD70B5AE4C207AD1
:1028C000002803D1FFF7ECFFFFF7E3FF4021A34807
:1028D000FDF764FF002802D02078002801D0FFF720
:1028E000A0FF207A00280BD1FFF79BFFE07D002896
:1028F00006D0401E0006000EE07501D1FFF79FFADA
:10290000608B0025002817D0401E0004000C608357
:1029100012D19C488570207A00280BD0E07B0028DB
:1029200003D0FFF796FF01F0A1FBFFF79DFDFFF736
:10293000F1FA01E0FFF792FF207A00280ED0A07B89
:1029400003280BD1E07B002808D0401E0006000EB3
:10295000E07303D1A573E57101F088FB70BD70478A
:1029600010B585488178012904D100218170407813
:1029700001F047FC10BD10B58349487802076ED5B9
:10298000F72210404870488905F023FF00227F4B52
:1029900005F022FF0B22D24306F042F805F0BEFA02
:1029A0007B49884201DB042010BD7A49884201DB63
:1029B000092010BD7849884201DD0E2010BD7749FD
:1029C000884201DD132010BD7549884201DD1620C3
:1029D00010BD7449884201DB182010BD724988423D
:1029E00001DD1B2010BD7149884201DB1D2010BD97
:1029F0006F49884201DB202010BD6E49884201DB0F
:102A0000222010BD6C49884201DD252010BD6B4994
:102A1000884201DD272010BD6949884201DD2A2056
:102A200010BD6849884201DB2C2010BD66498842F0
:102A300001DB2F2010BD6549884201DD312010BD2A
:102A40006349884201DB342010BD6249884201DDC0
:102A5000362010BD6049884202DD392010BD56E0A5
:102A60005E49884201DD3B20F8E75D49884201DD8F
:102A70003E20F3E75B49884201DD4020EEE75A49FA
:102A8000884201DB4320E9E75849884201DB4520C1
:102A9000E4E75749884201DB4820DFE7554988428F
:102AA00001DB4A20DAE75449884201DB4D20D5E7B3
:102AB0005249884201DB4F20D0E75149884201DB6F
:102AC0005220CBE74F49884201DB5420C6E74E49EC
:102AD000884201DD5720C1E74C49884201DB59207B
:102AE000BCE74B49884201DD5C20B7E74949884291
:102AF00001DB5E20B2E74849884201DD6120ADE795
:102B00004649884201DB6320A8E76820A6E71A4807
:102B1000807AA3E710B51848007EC0079ED101F067
:102B20008FF99BE710B57F211348C9054163002148
:102B300041718172407801F064FB8FE710B505F0B8
:102B400048FE374A374B05F0D3FB05F0F5FD4B2126
:102B500080B20901884281D908467FE70018024007
:102B600000140240401002400F00FFFFFF0F00F072
:102B7000401C02400F0000F0B0000020E02E0000DA
:102B800000440040C0010020280200200000044052
:102B9000F4FD1440C1CA1140B6F30D40AE470940E0
:102BA000022B07406DE7034010580140D122FB3F44
:102BB0009CC40040CDCCEC3F2B87E63F560EDD3F5A
:102BC0006666D63F7F6ACC3F4260C53F83C0BA3F4E
:102BD00046B6B33F8716A93F0E2DA23F14AE973FCE
:102BE00060E5903FB4C8863F4E62803FF2D26D3FB1
:102BF0006F12633FC520503F4260453F7D3F353FE8
:102C0000A8C62B3F1B2F1D3F6ABC143F9EEF073FFA
:102C10001283003FFA7EEA3E2DB2DD3E713DCA3E90
:102C20009A9999999999E93F70B5FE4DE88806F00F
:102C300045F8FD4C616B06F059FA05F0FBFF80B2D8
:102C400002F010FA288906F039F8616B06F04EFAA6
:102C500005F0F0FF80B202F019FA70BD10B5F2492C
:102C600001200872FFF75EFF01F0F4F9FFF7F6FDAF
:102C7000F4E670B5FFF77FFEEB4C0025A072A07D57
:102C8000002805D08021E948FDF7B5FD002800D1D6
:102C9000A572A07D01280CD1A07A002809D07F263A
:102CA0000121F605552805D3657166636172FFF74A
:102CB000D5FF70BD4B2802D36279002A16D03C287C
:102CC000F7D860790028F4D0FFF72CFFA07D012809
:102CD000EFD16663D34CE088FFF730FFE0802089B6
:102CE000FFF72CFF2081FFF79FFF70BD6171D04877
:102CF0006063F8E710B501F0A1F8FFF70BFF01F0F2
:102D0000AFFCC948C17A002901D001214174A5E670
:102D100010B5C8494878C20620D5EF221040487047
:102D2000888905F056FDC44AC44B05F055FD0B22B9
:102D3000D24305F075FE05F0F1F8C14906F0D6F969
:102D4000C04905F0C7FE8121C905884201DC48421F
:102D500084E60121C94305F0B5FF7FE600207DE64A
:102D600010B501F06BF8AF4C423CFFF7D1FF4100CA
:102D7000090E02D161881429F7D300216180FF2256
:102D8000D205D04203D3A84A01231370517265E6DD
:102D900010B5A54AAC4C5378A04206DB04200029AC
:102DA00001D1042B00D3507058E6A84CA04205DB9B
:102DB00003200029F7D1032BF5D24FE6A44CA04203
:102DC00005DD02200029EED1022BECD246E6A14C13
:102DD000A04205DB01200029E5D1002BE3D13DE62F
:102DE0000020E0E7F1B5904D84B00020E86304983E
:102DF000A97D00680090012917D19748017889487A
:102E00001A38002907D0C07A022801D908287DD3B2
:102E10009248009984E0844AC0799149946B0128D2
:102E200004D0022802D0002844D07CE0009806F0AC
:102E30005DF905F025FE064601910F46208805F054
:102E4000C8FC0022874B05F0C7FC32463B4605F024
:102E50004FFA02460B460020014605F019FA05F02C
:102E60005DF803906088019F05F0B3FC00227D4B64
:102E700005F0B2FC32463B4605F03AFA07460291AD
:102E8000039805F0FDFD3A46029B05F001FA05F0B6
:102E900045F80290A088019F05F09BFC0022714B31
:102EA00005F09AFC32463B4605F022FA04460E46EF
:102EB000029828E0009806F019F905F0E1FD0646B1
:102EC0000F46208A05F085FC0022674B05F084FC44
:102ED0003B46324605F00CFA02460B4600200146FE
:102EE00005F0D6F905F01AF80190608A05F071FC3A
:102EF00000225D4B05F070FC32463B4605F0F8F9C8
:102F000004460E46019805F0BBFD00E006E02246AF
:102F1000334605F0BDF905F001F803E05348009988
:102F200005F0D8FDE86368790028E86B08D005F063
:102F3000A7FD4F4A4F4B05F04FFC04F0EFFFE8634D
:102F400005F09EFD4C4A4D4B05F046FC04460E46EE
:102F5000009805F095FD2246334605F099F904F0F6
:102F6000DDFF04990860A862E86205B0F0BD39E7AA
:102F700031B52D4C607D617B084319D12078002844
:102F800002D0042060700FE06846FFF72BFF00219D
:102F90000098FFF7FDFE3A480099814204DAA07CD0
:102FA000002801D1012060721E4960781A398871A9
:102FB00038BDF1B52848334D007800241A4900285F
:102FC0001CD008790022401CC0B208710A2813D90D
:102FD000144F084602716A3FA600B959284606F008
:102FE000DDF800D2BD59641C0A2CF5DB00980E49AF
:102FF000056001208871F8BD8A71F8BD0120F9E7EC
:1030000070B5094CE07A00286CD1FFF781FEFF21F2
:10301000C90500250126C84239D32078002800D1EF
:10302000A67031E0DA010020B00000200018024054
:10303000CDCC4C3F280200203333333333330B40A5
:103040000080A04300004C429A99794000007040F3
:103050006666664000006040540100200000204188
:103060000000964400001E40000024400000F04094
:103070009A9999999999E93F7B14AE47E17AA43FCF
:103080009A9959400000A0402670657208E04100FE
:10309000090E27D060622078002800D0A670257025
:1030A000A671FE48FFF785FF217CFD4B8A00491C75
:1030B000606AC9B2985021740A2900D32574A17995
:1030C00000290FD02062A062E062E06161780429EB
:1030D00001D904216170CDB2FFF74AFF6078A842A0
:1030E00000D0A67070BDED49282024394873704780
:1030F00070B5EA4D243DE878002832D0C821E84C6C
:10310000103C207800282BD06088491C401C80B2DD
:103110006080884227D205F0D1FDA16805F0E6FF66
:10312000264605468E36308905F0C8FD294605F04D
:1031300097FF05F07FFD80B201F0A8FF608805F0E1
:10314000BDFD616805F0D2FF0446F08805F0B6FDCC
:10315000214605F085FF05F06DFD80B201F082FF8C
:1031600070BD1E21CBE7002626706680CC4C7434DF
:10317000208901F08BFFE08801F074FFEE7070BDD4
:10318000C749C84838310880C5480021503081708F
:10319000C170417137220271C1716422C2824275CD
:1031A0000622827101734173C173BC482438427096
:1031B000C17281717F21C90501637047F8B5054669
:1031C000C078002803D18021B748FDF71EFBB44822
:1031D0005030C07900280BD002283ED0032840D0C0
:1031E000012804D101F0B1FF284602F0F5F9F8BD3D
:1031F00002F036F9AA4E103E3078002827D0A748B2
:103200002438C078002826D0C824A549284674311F
:1032100002F08AF900207080204605F04FFDA04C96
:103220000746743425460A3D20892989401A05F04D
:103230003DFD394605F04EFCB060E088E988401A53
:1032400005F034FD394605F045FC7060F8BD2846B0
:1032500002F011F9F8BD1E24D7E7284602F0E2F982
:10326000F8BD284604F05EFCF8BDF8B58C4C50342F
:10327000A078042838D1894EC8271C36718830467A
:1032800000780025002904D0491E0904090C71802A
:1032900009D0030005F0D7FE0BEE80EEEEBCEEEE9B
:1032A000C2EEEEC9EE00030005F0CDFE0C501E0785
:1032B000121F30431E47494D1E6B0320307077802C
:1032C0007820E08276485030FFF778FF012009E04F
:1032D000042030707780F020E08271485030FFF792
:1032E0006DFF022001F00BFCF8BD052030707780E7
:1032F000032001F004FC01F0D3FB552020710320D2
:10330000607167485030FFF759FFF8BD06203070F4
:1033100077801920207162485030FFF74FFF04205A
:1033200001F0EDFB01F0BCFB5C482438807AF072C0
:10333000F8BD072030707580F8BD092000E00A2034
:103340003070022000E01E207080F8BDFFF708FDFD
:10335000524C243C2062E062A0622178002910D106
:1033600001F063FC5149A06A40185149884208D3D2
:103370000C2001F0C4FBFEF75AFDA06A01F055FCD9
:10338000FEE73078401C3070072001F0B8FB43485E
:1033900075802438C572F8BD40214348FDF7FEF919
:1033A000002802D1B079072806D040213E48FDF719
:1033B000F5F900281AD05DE03078401C3070778035
:1033C000002001F09CFB64206075E070E58265716F
:1033D000F571357275723248B572B5715030FFF7BC
:1033E000EDFE344805703448057043E0B079C043C1
:1033F000800704D031A20221682001F0C6F8B0791C
:10340000400737D42DA20221082001F0BEF831E098
:1034100088B2C8282ED101F043FB2BE00820307081
:103420007780052001F06BFBDBE7F07A1338152875
:103430000DD300F00FFE1948F17A243881720B2069
:1034400001F05DFBFEF7F3FC01F02AFBFEE71448F8
:1034500028304580A5707580357175713570B571EE
:10346000FEF7E5FC1348057013480570FFF788FE6A
:10347000FFF7F4FB104C207800288CD03078401EE9
:10348000052888D8207863274006400E11282DD1C2
:103490007079401CC0B27071632811E0D400002024
:1034A00070010020AF04000000180240666696BF5D
:1034B000333313000A0000200B0000204E470000A9
:1034C00001D9777103E00A2801D20A20707172795C
:1034D0000221682001F017F8707A0A2802D2401CF5
:1034E000707203E0B07901210843B0712078400682
:1034F000400E212815D17079411E71710A2801D81A
:103500000A20707172790221682000F0FCFFB07A05
:103510000A2802D2401CB07203E0B07902210843AD
:10352000B071207871281AD13079401CC0B2307146
:10353000632801D9377103E00A2801D20A203071CB
:1035400032790221082000F0DEFFF079052802D24E
:10355000401CF07103E0B17904200143B171257082
:10356000F8BD70B5FFF74CFDFD4DFE4E287A0028E2
:1035700016D102F00EFFFFF7BBFD687A002807D0D6
:10358000287A002804D12878002801D1FFF766FBAB
:10359000FFF76FFB3088C00701D1FFF766FE308868
:1035A00000F050FCB07A0024012802D1B472FFF779
:1035B00084F9287A002819D1F07A012800D1F47210
:1035C000307B012802D13473FFF7CAF9707B0128E0
:1035D0000CD17473288B401C2883FFF78BFBA87CCD
:1035E000002803D0288B032800D9AC7470BD10B517
:1035F00003785418A34208D3012B06D0591AC9B234
:103600000170914200D8027010BDA342FBD910BDD9
:1036100030B50478551A6D1CAC4209DA5A1C944234
:1036200003D8012901D0591800E06118017030BD9C
:10363000027030BD10B5CB4C2834E278642A22D019
:10364000014600236422E01CFFF7E2FFE2792046F6
:10365000E1780C3011540C3800F0FEFE8021C24895
:10366000FDF7D3F8E07900280DD12146012060391B
:10367000087008467A3002898E310A81C088C88075
:103680002046FFF79BFD10BD10B5B64C2834E278FC
:10369000002A26D001460022E01CFFF7A8FFE279AD
:1036A0002046E1780C3011540C3800F0D5FEE0785B
:1036B000AD4A002816D080211046FDF7A6F8E07923
:1036C00000280ED1A74901203839087008467A3001
:1036D00002898E310A81C088C88008462E38FFF7DB
:1036E0006DFD10BD80211046FDF791F8E7E7F0B5BC
:1036F0009B4885B0007A002875D199499B4FC870C6
:1037000039780124974E2836B278F07951292CD097
:103710003B783546297A712B8C46697AAD7A34D05C
:103720003A4612785306324615320492D21E03925C
:10373000123A127902923246527D01923246977ABB
:103740005B0ED21912320092884F3246112BD28A68
:103750003B7856D05B065B0E212B6FD038787228F1
:103760006DD0387805286BD059E1002AFCD1411C76
:10377000F171032803D30020F07102F02FFE794885
:103780000021283000F0D0FF15E0002AECD1784A63
:10379000002815D001281DD0022825D0F07A401C21
:1037A000C0B2F072D178884201D30020F0726D4827
:1037B000283000F077FF6B482830FFF7FFFC07E167
:1037C0006046401CC0B230721178884214D3002089
:1037D000307211E0491CC8B27072517888420BD324
:1037E0000020707208E01CE16D1CE8B2B0729178A4
:1037F000884201D30020B0725A48283000F02DFDD5
:10380000D9E71B0600D50524002806D001281CD0C6
:1038100002284DD003285AD0DAE06146002910D0A2
:103820003878000600D502240299552976D019234C
:1038300055222146301DFFF7EBFE6BE04EE0CEE057
:10384000D8E02046FFF7F6FEC2E000290FD0387816
:10385000012918D0000600D5052401986428AAD2B1
:103860000023642221460498FFF7D2FE72E03878E4
:10387000000600D50A241019FF2180B26A3104F035
:103880009DFAF18287E0000600D50524F0786428CF
:1038900091D0002364222146F01CFFF7B9FE314885
:1038A000F279F178343011540C3800F0D5FD82E70C
:1038B0003878000600D509240398285CFF289FD09B
:1038C0000023FF2221460098FFF7A2FE78E0204661
:1038D000FFF7B0FEF078A04292D079E03B781B066B
:1038E00000D50524002806D0012823D002285AD06C
:1038F00003286AD06CE06146002966D0387800065B
:1039000000D502240299192908D019222146301D18
:10391000FFF76DFE1348283000F026FE1149012004
:10392000383908707A3108460A8914300281C9880A
:10393000C18040E700291DD0012930D03878000629
:1039400000D5052401980028B1D000222146049812
:10395000FFF74DFE0348283000F028FD2BE700005C
:10396000B000002098010020001802400B00002049
:103970000C0100203878000600D50A24002A05D062
:10398000A24206D2101BFF30693003E0FF206930ED
:1039900000E0101BF0827A4800F084FC0BE7204620
:1039A000FFF772FE07E73878000600D50A2403986F
:1039B000285C0028BDD0002221460098FFF717FEA2
:1039C00029466F4800F0B8FCF5E62046FFF75CFE9C
:1039D000FEF730FF6B48007A002820D021E0FEF788
:1039E00026FABFF34F8F69496748C860BFF34F8F0E
:1039F00000BFFDE70420B07062490120887502F025
:103A0000EDFC01F03FF85F48002140300170A0223A
:103A10004280322202714271817105B0F0BDFEF721
:103A200000FF58480A21C174594900200870F4E782
:103A300070B5544C207A00280DD00220A07300F0FD
:103A400025FB00254E49A5750320887001214C48AF
:103A500000F06AFE257370BD4A48817B022905D1BA
:103A6000017A002902D003218173C173704710B518
:103A7000FFF7F4F810BD884201D9401A00E0081A97
:103A800080B2704710B504464248814201DA42488C
:103A900015E0084604F0F4FF404A414B04F005FCF1
:103AA0001422404B04F098FE00223F4B04F008FC27
:103AB0003A4A3E4B524204F08FFE04F02FFA206047
:103AC00010BD3C483A4901623B4901603849491EF2
:103AD000016270473748364901623749491C016025
:103AE0003349491E016270471CB5012069460871BF
:103AF00000208871202100916946304CC871204611
:103B0000FCF703FE20212046FCF781FE1CBD1CB5FE
:103B100001206946087100208871022100916946E0
:103B2000274CC8712046FCF7F0FD02212046FCF727
:103B30006EFE1CBD1CB5012069460871002088710D
:103B40001021009169461D4CC8712046FCF7DDFD2F
:103B500010212046FCF75BFE1CBD1CB50120694608
:103B6000087100208871402100916946134CC8718A
:103B70002046FCF7CAFD40212046FCF748FE1CBD4C
:103B8000C0010020B00000200400FA0500ED00E0B4
:103B90000B000020CDCC84403333F33F9A999999A0
:103BA00099991040000034400000F03F6666FE3FE7
:103BB0009966AA55400002400000695A001C024064
:103BC0000010024070B50446EF4DC00704D00F222C
:103BD00006212846FCF749FEA00704D50F22032141
:103BE0002846FCF742FE600704D50F220421284630
:103BF000FCF73BFEE54D200704D50F2202212846A5
:103C0000FCF733FEE00604D50F2203212846FCF71B
:103C10002CFEA00604D50F2205212846FCF725FE20
:103C2000600604D50F2206212846FCF71EFE70BD53
:103C300008B503204002FDF7A9FA1820694608706C
:103C4000012048708870C8706846FDF7A4FA08BD66
:103C500001460020CA0704D1401C4908C0B2082808
:103C6000F8D3704700B5FFF7F3FF000200BD30B591
:103C700089B00446FFF7F6FF83B200220F2000024E
:103C8000049001200192C0020392009206930292D6
:103C9000102C1ED02021BE4D0591079005A9284665
:103CA000FCF798FA69462846FCF7A5FA2046FFF784
:103CB00089FFFFF7BDFF012221462846FCF753FB91
:103CC00001212846FCF7B1FA2846FCF7D2FA09B0E0
:103CD00030BD6021DFE770B588B00446FFF7C2FF52
:103CE000AC4B81B2187800280AD01C752046FFF72B
:103CF000AFFF8000C018A8498161002008B070BDE6
:103D0000187D0122A04318751C70002092020092B9
:103D10000F2203901202019002900125049260206C
:103D2000ED0205AE23C69A4E05A93046FCF752FABD
:103D300069463046FCF75FFA2046FFF743FF21460D
:103D40003046FCF73CFB012221463046FCF7A7FA3F
:103D5000FFF76EFF01213046FCF70DFB2946304688
:103D6000FCF72DFB012229463046FCF7FCFA012125
:103D70003046FCF70AFB01213046FCF798FA002197
:103D80003046FCF794FA01213046FCF74EFA3046F3
:103D9000FCF76FFA0120B1E770B588B00546012045
:103DA0008002009000210F20000204900124039162
:103DB000019102916020E40205AA13C2744E05A984
:103DC0003046FCF707FA69463046FCF714FA2846F5
:103DD000FFF7F8FE29463046FCF7F1FA01222946A2
:103DE0003046FCF75CFAFFF723FF01213046FCF771
:103DF000C2FA21463046FCF7E2FA0122214630465B
:103E0000FCF7B1FA01213046FCF7BFFA0121304638
:103E1000FCF74DFA00213046FCF749FA0121304603
:103E2000FCF703FA3046FCF724FA67E700B5FFF722
:103E30000FFF5A4940004018408800BD10204AE753
:103E4000082048E730B4534B1A7D002A10D00021D7
:103E5000012420468840024206D08C408900C918BF
:103E6000E0B2896930BC0847491CC9B20829F0D3BF
:103E700030BC7047F8B5464F01213846FCF798FA38
:103E8000012846D002213846FCF792FA012842D098
:103E900004213846FCF78CFA01283ED00821384628
:103EA000FCF786FA01283AD010213846FCF780FA50
:103EB000012836D020213846FCF77AFA012832D082
:103EC00040213846FCF774FA01282ED0802138466C
:103ED000FCF76EFA01282AD0BC1521463846FCF7BB
:103EE00067FA012825D0640021463846FCF760FABD
:103EF00001281ED0640021463846FCF759FA0128F3
:103F000017D0640021463846FCF752FA012815D034
:103F100034E001210EE002210CE004210AE0082136
:103F200008E0102106E0202104E0402102E0802189
:103F300000E021463846FCF742FA1FE021463846A9
:103F4000FCF73DFA3846FCF72AFA124D06092978A3
:103F500000240846E040C00703D1641CE4B2082CEA
:103F6000F7D300223846FCF79AF9600040198680A2
:103F70006878297808436870002028700021384646
:103F8000FCF753F9F8BD000000180240001C024085
:103F9000002C004028020020D73C0000F80100203F
:103FA0007FB5BC2000900F20174D01240290019492
:103FB00069462846FCF70CFA03204002FDF7E6F8B4
:103FC0001C206A461073002151739173D47303A8A7
:103FD000FDF7E1F801212846FCF719FA01212846EE
:103FE000FCF704FA20212846FCF709FA7FBD10B53A
:103FF00001210548FCF70BFA10BD10B50248FCF78B
:1040000008FAFEF71EFC10BD0028004010B5022182
:10401000F748FCF7FAFB10BD10B50446B031C8B242
:1040200001F02DFF2009103001F029FF2007000FBB
:1040300001F025FF10BD70B515460024FFF7ECFF19
:10404000002D284601F024FF2146641CE4B2832998
:10405000F6D370BD10B50024002221461046FFF7AC
:10406000EAFF641CE4B2082CF6D310BD10B5FFF7CC
:10407000F1FFAE2001F003FF8D2001F000FF1020C2
:1040800001F0FDFE052000F028FE10BD70B5D94CF2
:104090000025658060881428FCD96580AE2001F079
:1040A000EEFE8D2001F0EBFE142001F0E8FEAF20C3
:1040B00001F0E5FE60881428FCD9658070BDF8B574
:1040C00015460E460746FFF7A7FFCB4900246801B7
:1040D0004518285D01F0DCFE641CE4B2102CF8D316
:1040E000761CF1B23846FFF797FF00242819007CB0
:1040F00001F0CEFE641CE4B2102CF7D3F8BDF7B586
:10410000203A009800240F46D5B27F2803D900201A
:104110008F1CFFB200903946FFF77EFFB74E2D018E
:104120002819305C01F0B4FE641CE4B2082CF7D30B
:104130007F1CF9B20098FFF76FFF0024281980193F
:10414000007A01F0A5FE641CE4B2082CF6D3FEBD93
:1041500010B5040008D0642C20D020220021362085
:10416000FFF7CDFF39221FE0202200213620FFF784
:10417000C6FF202200213E20FFF7C1FF20220021A0
:104180004620FFF7BCFF202200214E20FFF7B7FF9B
:10419000202200215620FFF7B2FF10BD312200215E
:1041A0003620FFF7ACFF302200213E20FFF7A7FFAB
:1041B0000A21204603F002FE0A4630320021462042
:1041C000FFF79DFF192200214E20FFF778FF10BD59
:1041D0008B488D4A03788B48002B017810780AD0E1
:1041E000002807D10120002903D0884989780329B4
:1041F00000D1107070470028FCD00029FAD10020AF
:10420000F7E710B50024042800D90420030004F0C7
:104210001AFF070507090B0D0F1112000B240AE006
:104220000D2408E00F2406E0112404E0132402E02A
:10423000152400E0172476480078002800D01A24BE
:10424000224600216020FFF73AFF621C0021702007
:10425000FFF735FFFFF7BCFF10BDF8B50546C07985
:1042600002281ED86B4980000F46303F08580024B2
:104270002E46083638600EE039686300C85C59186D
:10428000925D4978A24201D13E2200E02022FFF750
:1042900036FF641CE4B25F48EA792C38805CA042A7
:1042A000EAD8F8BD10B50446202202214A20FFF7C3
:1042B00026FFE07DA17D00020843642822D3FF2170
:1042C0006931884202D3A175080AE075E07DA17DBD
:1042D00000020843642103F071FD3030C2B20221B4
:1042E0005220FFF70CFFE07DA17D000208430A2861
:1042F0000AD30A2103F062FD0A2103F05FFD0A469A
:10430000303202E02022EAE7202202215A20FFF781
:10431000F6FEE07DA17D000208430A2103F04EFD78
:104320000A46303202216220FFF7E9FE3D220221D7
:104330006A20FFF7E4FE10BD70B54018847C480089
:10434000801CC5B2202229464A20FFF7D8FE642CE3
:1043500006D36421204603F031FD3030C2B200E0C4
:10436000202229465220FFF7CAFE0A2C09D30A212F
:10437000204603F023FD0A2103F020FD0A463032D7
:1043800000E0202229465A20FFF7B9FE0A212046E4
:1043900003F014FD0A46303229466220FFF7AFFED3
:1043A000202229466A20FFF7AAFE70BD10B50446F8
:1043B000202206214A20FFF7A2FE607D642805D353
:1043C000642103F0FBFC3030C2B200E02022062161
:1043D0005220FFF794FE607D0A281DD30A2103F0C6
:1043E000EDFC0A2103F0EAFC0A46303215E0000039
:1043F000001C024098010020DF9800002F9300006D
:10440000BB000020B8000020B7000020C001002041
:10441000B000002038010020202206215A20FFF79A
:104420006EFE607D0A2103F0C9FC0A463032062187
:104430006220FFF764FE252206216A20FFF75FFE57
:1044400010BDC079022803D0012803D00320704793
:10445000002070470420704770B50446FFF7F1FF55
:104460000546014620224A20FFF749FEE0786428ED
:104470000DD36420E070312229465220FFF73FFE21
:10448000302229465A20FFF73AFE30221BE0202234
:1044900029465220FFF733FEE0780A2808D30A2184
:1044A00003F08CFC0A2103F089FC0A46303200E05C
:1044B000202229465A20FFF722FEE0780A2103F045
:1044C0007DFC0A46303229466220FFF718FE25227D
:1044D00029466A20FFF713FE70BD0346012000E065
:1044E00058430A46491EC9B2002AF9D1704710B58F
:1044F00001240A2801D2204610BD0A2103F05EFCE7
:10450000641CE4B2F5E7F7B5074600260298FFF70A
:10451000EEFF0546002423E0281B401EC1B20A20FE
:10452000FFF7DBFF0146029803F048FC0A2103F085
:1045300045FC002E05D1681E844202DA002906D00F
:1045400001263031E000C019CAB2C0B203E0E00079
:10455000C019C0B220220199FFF7D1FD641CE4B25A
:10456000AC42D9D32846FEBD10B50279642042433F
:1045700006214A20FFF7C7FFC0004A30C0B24B22D5
:104580000621FFF7BCFD10BD7047F8B517460E4673
:10459000044600250CE031462046FFF7B0FD083404
:1045A000E4B2782C02D90024B61CF6B26D1CEDB230
:1045B0007A5D002AEFD1F8BDFFB581B004461E46F2
:1045C000039804F037FB82B220460299FFF79BFF65
:1045D000C0000019F700C5B2002E2DD02E222846AB
:1045E0000299FFF78CFD012419E021460A20FFF70C
:1045F00074FF04F063FB039904F078FD04F01AFBE8
:1046000080B20A2103F0DAFBE0000A464019C01E1E
:104610003032C0B20299FFF772FD641CE4B2B442BA
:10462000E3D97819401DC0B20A9A0299FFF767FDD5
:10463000022E0DD905B0F0BD28460A9A0299FFF75F
:104640005EFD28460830C0B220220299FFF757FDD0
:1046500078190D30C0B2F8A20299FFF796FFE9E78A
:1046600010B5F648007800280FD0F54C20780028C7
:104670000CD00B2200216020FFF721FD0C2200212D
:104680007020FFF71CFD0020207010BD1C220021AF
:104690006020FFF714FD1D2200217020FFF70FFDA1
:1046A0000120F1E710B5C47AE649A0000A580621B6
:1046B0001A20FFF76AFF641CE4B20A2C09D30A210E
:1046C000204603F07BFB0A2103F078FB0A463032D8
:1046D00000E0202200213620FFF711FD0A212046AC
:1046E00003F06CFB0A46303200213E20FFF707FD45
:1046F00010BD70B5164605460024FFF78DFC00205E
:1047000001F0C6FB2819641CE4B2B042F7D970BDB1
:1047100010B5462200213620FFF7EBFF462201218B
:104720003620FFF7E6FF10BD70B50546002902D020
:10473000FFF790FC01E0FFF7EBFFA879FFF761FDC1
:10474000A878002815D0012812D12846FFF779FE55
:10475000014602223220FFF7B2FC2846FFF77CFE1A
:10476000032206213220FFF7AAFC2846FFF7FCFEB1
:1047700070BDB4482946283040680C310478E87987
:10478000415CE970002806D0012829D0022866D0B3
:10479000032824D190E0ACA200210620FFF7F5FE0B
:1047A000022203213220FFF78AFC2846FFF754FE3D
:1047B000722205212046FFF79CFF702206211A2055
:1047C000FFF797FF702207211A20FFF792FF0322BD
:1047D00006213220FFF773FC2846FFF7C5FE8FE065
:1047E0009BA200210620FFF7D0FE26461036F2B22B
:1047F00004212046FFF77DFFF2B205212046FFF796
:1048000078FF022204213220FFF759FC2846FFF7E7
:1048100023FE1036F2B202212046FFF76AFFF2B201
:1048200003212046FFF765FF482202213620FFF7CB
:1048300066FC2846FFF736FDF2B206212046FFF758
:1048400058FFF2B207212046FFF753FF53220621FB
:104850003620FFF754FC2846FFF7A8FD50E07EA263
:1048600000210620FFF791FE522202213620FFF799
:1048700046FC00212846FFF75FFD26462036F2B2AF
:1048800004212046FFF735FFF2B205212046FFF74D
:1048900030FF472204213620FFF731FC0121284652
:1048A000FFF74AFD422206213620FFF728FC0221AD
:1048B0002846FFF741FD23E069A200210620FFF70B
:1048C00064FE722202212046FFF713FF72220321A9
:1048D0002046FFF70EFF722204212046FFF709FF52
:1048E000022203213220FFF7EAFB2846FFF7B4FD3E
:1048F000722205212046FFF7FCFE2846FFF7D2FE74
:104900002846FFF7AAFC70BD10B5FFF77FFB564C99
:1049100002212046FBF779FF0A2000F0DEF9022190
:104920002046FBF774FF0A2000F0D7F90221204649
:10493000FBF76BFF0A2000F0D0F9AE2001F09FFAE0
:10494000D52001F09CFA802001F099FAA82001F00E
:1049500096FA3F2001F093FAD32001F090FA00205C
:1049600001F08DFA402001F08AFAAD2001F087FABB
:104970008B2001F084FAA02001F081FAC02001F020
:104980007EFADA2001F07BFA122001F078FA812019
:1049900001F075FAFF2001F072FAD92001F06FFAE8
:1049A0001F2001F06CFADB2001F069FA402001F0D1
:1049B00066FA332001F063FAA62001F060FAFFF7EF
:1049C00049FBAF2001F05BFA284800224280418871
:1049D0001429FCD9428026480078002803D10121FF
:1049E0002448FFF7A1FE10BDF8B51E4617460C4639
:1049F0000546FFF711FB384601F04AFA641CE1B2A4
:104A00002846FFF709FB304601F042FAF8BD70B5C1
:104A1000164612090D460446092A01D8303200E034
:104A20003732FFF76CFB3207120F0834092A23D8FC
:104A3000E0B22946303222E020000000B50000201C
:104A4000FC000020100100204343542020000000FF
:104A50004853492020000000524742202000000017
:104A60005343454E45000000001C024098010020C1
:104A7000B8000020C0010020E0B229463732FFF71D
:104A80003EFB70BD10B5FFF7E5FA82A202210820B7
:104A9000FFF77BFD83A204210820FFF776FD10BD00
:104AA00010B5834C0A21207803F088F93030C2B267
:104AB00000210220FFF723FB0A21207803F07EF972
:104AC0000A46303200210A20FFF719FB3D2200215F
:104AD0001220FFF714FB10BDFFB581B01D4616462E
:104AE0000746002408E02001C019325DC0B20299D7
:104AF000FFF7E5FA641CE4B2AC42F4D39AE510B5D2
:104B0000030004F0A0FA0D080D13171B1F252B3C02
:104B10005C80868C3B00FFF79DFA0423654A02E027
:104B2000644A0423121D0421202025E0614A042345
:104B30000832F8E75F4A04230C32F4E75D4A0423A5
:104B40001032F0E7FFF786FA5A4A04231432EAE7F4
:104B5000FFF780FA574A04231832E4E7FFF77AFA9E
:104B6000544A06232D3204211020FFF7B5FF514A85
:104B70000223921E06211020FFF7AEFF10BDFFF7A3
:104B800069FA4C4A0723333202211020FFF7A4FFB1
:104B9000484A0223921E04211020FFF79DFF454A38
:104BA0000423143219463020FFF796FF414A0523AB
:104BB000283206211020FFF78FFF3FA21EE0FFF7EB
:104BC00049FA3C4A07233A3202211020FFF784FFBA
:104BD000384A0223921E04211020FFF77DFF354A38
:104BE0000423183219463020FFF776FF314A052397
:104BF000283206211020FFF76FFF30A20621602027
:104C0000FFF7C3FC10BDFFF725FA2A4A04231C3224
:104C100089E7FFF71FFA274A0423203283E7FFF7CB
:104C200019FA244A042324327DE710B5044604F01F
:104C300001F83030C2B202215820FFF760FA2E226C
:104C400002216020FFF75BFA1D49204604F04EFA6E
:104C500003F0F0FFC0B20A2103F0B0F80A46303288
:104C600002216520FFF74BFA1649204604F03EFA70
:104C700003F0E0FF80B20A2103F0A0F80A463032C8
:104C800002216D20FFF73BFA562202217520FFF723
:104C900036FA10BD53573A323032312D31322D3180
:104CA0003400000048573A564552303700000000A3
:104CB000BA000020EE9200003A6D41003A754100C2
:104CC000000020410000C842002805D00022491EF3
:104CD00002D30270401CFAE77047E623002207E087
:104CE000002101E0491C89B29942FBD3521C92B2C7
:104CF0008242F5D37047000010B501465148FCF7D9
:104D0000DEF8514B51491878002802D14A88C82A48
:104D1000FAD30020187010BDF8B54A4F0D4606466C
:104D200001213846FCF7D0F8002404E0305DFFF79D
:104D3000E3FF641CE4B2AC42F8D300213846FCF730
:104D4000C3F8F8BD70477CB501246846047100259E
:104D50008571042000906846C4713D4E44716946D7
:104D60003046FBF7D2FC6846047185710220009042
:104D70006846C471447169463046FBF7C6FC684614
:104D800001948571402000906846C4714471314C93
:104D900069462046FBF7B9FC032202213046FBF7A7
:104DA00064FD032204213046FBF75FFD032240210E
:104DB0002046FBF75AFD00212248FCF785F87CBD10
:104DC000FEB5FFF7C0FF1021684601800025458031
:104DD00085800321C1801B4E69463046FCF757F899
:104DE00005200002FCF7D2F90A216846017201246D
:104DF00044728472C47202A8FCF7CDF901213046D6
:104E0000FCF754F8104884700570FEBD10B5002101
:104E10000C48FCF74BF810BD10B501210948FCF710
:104E200045F810BD0749084801E0CA6842708A6821
:104E30001206FAD48278002A01D1FF22CA60012129
:104E400001707047000800404401002098010020D4
:104E500000100240001C024010B5FE4881680F227D
:104E60001204914381608168012212041143816020
:104E700081680F22120591438160FEF735FEF649E5
:104E80000020087010BD10B5F24881680F2212068C
:104E90009143816081680122120611438160EF48CD
:104EA0008168F02291438160FEF731FEEC490020D9
:104EB000087010BD10B5E74881680F2212059143B4
:104EC00081608168012212051143816081680F228F
:104ED000120491438160FEF72DFEDF490120087026
:104EE00010BD10B5DD488168F02291438160816872
:104EF000102211438160D74881680F221206914326
:104F00008160FEF72AFED6490120087010BD10B559
:104F1000FFF7D0FFFFF7E5FF10BD1CB50020694685
:104F20000871C871CB4C6220403C00902046FBF7D2
:104F3000ECFB1021009169462046FBF7E6FB0420BC
:104F40000090C64869464038FBF7DFFB1CBD1CB526
:104F50000020694608710220C871BE4C6220403CA6
:104F600000902046FBF7D1FB1021009169462046B6
:104F7000FBF7CBFB04200090B84869464038FBF7AC
:104F8000C4FB802000906946B648FBF7BEFB1CBD01
:104F900010B5FFF7BCFFB14881680F2212029143A0
:104FA0008160816882151143816010BD10B5AA49E6
:104FB000044640000978000E02D0002903D004E026
:104FC000012902D010BDFFF775FF7F21C9052046DA
:104FD00004F010F90146A44A012001F0BBF810BD0D
:104FE00010B504464000010E9D48027802D0002A08
:104FF00003D004E0012A02D010BDFFF772FF9A4AE5
:105000002146022001F0A6F810BD10B50446430069
:105010009148190E027802D1180E104308D1012AC6
:1050200001D1FFF719FF904A2146012001F092F8C3
:1050300010BD70B504468A487F25ED050278AC4264
:1050400002D1002A04D070BD012A01D1FFF71BFF55
:105050002946204604F0CEF80146834A022001F09A
:1050600079F870BD10B504464B200001844200D38E
:105070000446204603F022FE7C4903F02BFDFFF797
:1050800095FF7B48C4807B48048210BD10B5044660
:105090004B200001844200D30446204603F00EFE5C
:1050A000724903F017FDFFF79BFF714804817148B7
:1050B000448210BD10B501466B4A042001F04AF845
:1050C00010BD10B504464B200001844200D30446B5
:1050D000204603F0F3FD654903F0FCFC0146624AFB
:1050E000042001F037F8624804806248048010BD53
:1050F00010B504464B200001844200D304462046EC
:1051000003F0DCFD594903F0E5FC01467F20C005B2
:1051100004F07CF8FFF78DFF5548448055484480E3
:1051200010BD10B504464B200001844200D3044654
:10513000204603F0C3FD4D4903F0CCFCFFF765FFAB
:105140004B4884804B48848010BD10B54A490020EC
:105150000870FFF79BFF0020FFF784FF10BD70B5BC
:105160000446FFF7F2FF208803F0A8FD434D2968AD
:1051700003F0BCFF03F05EFD80B2FFF7A2FF608882
:1051800003F09CFD296803F0B1FF03F053FD80B2EA
:10519000FFF7AEFFA08803F091FD296803F0A6FF9A
:1051A00003F048FD80B2FFF7BCFF70BDF1B586B0DB
:1051B00006980027C088009006983D46C4683E4681
:1051C00080682F4903F092FF03F034FD00062D495B
:1051D000800D08580290FF2100986931884201D360
:1051E000002000907F200299C005814200DB0290E0
:1051F0007F20C005844200DB04463C21009802F079
:10520000DDFD062102F0DAFD0846049103F04EFDB3
:105210000190009803F052FD1B4903F05BFC0199DB
:1052200003F0F4FF03907F20C005029903F0EEFF26
:10523000214603F05BFF00900299039803F056FFAC
:105240007F21C90503F0D6FF214603F04FFF0190EF
:105250007F201BE0401C024005010020401002405E
:105260000601002000180240001000400000964493
:10527000DA0100201402002060010020E400002078
:105280000000C84234A3000000007042C00503992A
:1052900003F0BCFF029903F029FF7F21C90503F049
:1052A000A9FF214603F022FF04990B0003F0CBFE77
:1052B0000604070B0F1216192746054601E0019F49
:1052C0002546009E0DE025460646009F09E0009F0A
:1052D000019D01E0009D0746264602E0019E009DDB
:1052E00027462946384603F0BBFE314603F0B8FE98
:1052F00001460290384603F0EDFB019028460299E2
:1053000003F0E8FB00903046029903F0E3FB05460A
:10531000F748844217DAF74EF74F019803F0B0FBD5
:1053200032463B4603F058FA02F0F8FD0190760849
:10533000F24F284603F0A4FB32463B4603F04CFAFA
:1053400002F0ECFD05460099019803F089FE29461C
:1053500003F086FE07462146019803F0C7FE394652
:1053600003F0B8FB01902146009803F0BFFE3946D8
:1053700003F0B0FB06462146284603F0B7FE394647
:1053800003F0A8FB0746019803F07AFBDC4ADD4BEB
:1053900003F022FA02F0C2FD0446304603F070FB2F
:1053A000D74AD84B03F018FA02F0B8FD0546384644
:1053B00003F066FBD24AD34B03F00EFA02F0AEFDC7
:1053C00006466000D04F000E0DD0204603F058FB7B
:1053D0003A46CE4B03F000FACD4ACE4B02F058FFCE
:1053E00002F09CFD04466800000E0DD0284603F034
:1053F00047FB3A46C54B03F0EFF9C54AC54B02F0EF
:1054000047FF02F08BFD05467000000E0DD03046C0
:1054100003F036FB3A46BD4B03F0DEF9BC4ABD4B08
:1054200002F036FF02F07AFD0646BB4F20463946B1
:1054300003F05CFE03F0FEFB069908803946304617
:1054400003F054FE03F0F6FB06998880394628469F
:1054500003F04CFE03F0EEFB0699488007B0F0BD68
:1054600010B50020FFF72DFE0020FFF741FE0020C1
:10547000FFF757FE10BDF8B5044600798100A74834
:1054800009188039C88B8D8B002822D0E17800293B
:105490001FD0183886B2084603F010FCA04903F06C
:1054A00025FEA04903F016FB9F4903F0D9FD0746EE
:1054B000304603F003FC394603F018FE9B4903F025
:1054C000CFFD9B49096803F011FE03F0B3FB80B2E6
:1054D00000E00020FFF7C6FD002D21D0E078002875
:1054E0001ED0183DADB203F0E9FB8D4903F0FEFD7F
:1054F0008C4903F0EFFA8C4903F0B2FD04462846CC
:1055000003F0DCFB214603F0F1FD884903F0A8FD20
:105510008749096803F0EAFD03F08CFB80B200E0E4
:105520000020FFF7B3FDF8BDFEB5054600790C4637
:1055300081007A4809188039C88B8E8B7C490028F5
:105540000968009121D0E97800291ED0183880B26E
:105550000190084603F0B2FB714903F0C7FD7149A1
:1055600003F0B8FA704903F07BFD0746019803F099
:10557000A5FB394603F0BAFD6C4903F071FD0099B3
:1055800003F0B4FD03F056FB00E00020E080002EA5
:105590001FD0E87800281CD0183EB6B203F08EFB6E
:1055A0005F4903F0A3FD5F4903F094FA5E4903F0FD
:1055B00057FD0546304603F081FB294603F096FD72
:1055C0005A4903F04DFD009903F090FD03F032FBC2
:1055D00000E000202081FEBD70B50546C07D554E1F
:1055E000A97D000234680843E080687D03F066FB13
:1055F000514903F06FFAA060E87800280AD003F060
:105600005DFB474903F072FD464903F063FA4649E2
:1056100003F026FDE0602046FFF7C8FD3068FFF785
:105620009EFD70BDF8B505464249807C434F00267B
:105630000C68002819D003F0CCF83A46404B03F030
:10564000CBF800223F4B02F053FE2F4A2F4B03F0C2
:10565000C3F82F4A2F4B02F01BFE00223A4B03F0F7
:10566000BBF803F069F8208000E02680E87C002881
:1056700019D003F0AEF83A46314B03F0ADF80022F2
:10568000304B02F035FE204A204B03F0A5F8204AAB
:10569000204B02F0FDFD00222B4B03F09DF803F0A0
:1056A0004BF8608000E06680287D00281AD003F067
:1056B00090F8134A254B524203F08EF80022214BFA
:1056C00002F016FE104A114B03F086F8104A114BF7
:1056D00002F0DEFD00221C4B03F07EF803F02CF8F4
:1056E000A08000E0A6802046FFF739FDF8BD00004D
:1056F000CDCCCC3ECDCCCCCCCCCCEC3F6666F23F16
:10570000666666666666EE3FAE47E17A14AEEF3FC8
:105710007B14AE47E17A843F0000964440A200002B
:105720000000C04200401C460AD7233D0000C04193
:10573000E4000020E80000200000C8423433333386
:105740003333E33F00E06F4000C092409999E13F5E
:10575000FD48826820218A438260FB484038026805
:105760008A430260C16B032292029143C163704776
:10577000F548826820218A438260F34840380268F5
:105780008A43026002680A43026042680A43426038
:10579000C16B032292029143C1637047002800D07D
:1057A000E6E7D5E710B5E84C403C206820212046CC
:1057B000FBF72BF810212046FBF727F800BF00BFAE
:1057C00000BF00BF00BF20212046FBF720F800BF2C
:1057D00000BF00BF00BF00BF10212046FBF717F835
:1057E00010BD10B5FFF7C4FFD74C2021403C204628
:1057F000FBF70DF800BF00BF00BF00BF00BF1021C6
:105800002046FBF704F800BF00BF00BF00BF00BF89
:1058100010212046FAF7F9FF00BF00BF00BF00BF0C
:1058200000BF20212046FAF7F0FF10BD10B501207F
:10583000FFF7B4FF00BF00BF00BF00BF00BF1021D3
:10584000C14C403C2046FAF7E2FF00BF00BF00BF5A
:1058500000BF00BF20212046FAF7D9FF00BF00BFDC
:1058600000BF00BF00BF10212046FAF7CEFF00BFE7
:1058700000BF00BF00BF00BF10212046FAF7C7FFDE
:1058800010BD10B50120FFF789FF00BF00BF00BFAA
:1058900000BF00BF1021AC4C403C2046FAF7B7FFD8
:1058A00000BF00BF00BF00BF00BF20212046FAF7A5
:1058B000ACFF00BF00BF00BF00BF00BF10212046EB
:1058C000FAF7A3FF00BF00BF00BF00BF00BF102159
:1058D0002046FAF79CFF10BD70B59B4D0024403D5B
:1058E00020212846FAF791FF00BF00BF00BF00BF8C
:1058F00000BF00BF0020FFF751FF00BF00BF00BF87
:1059000000BF00BF10212846FAF77FFF07E0641CA4
:10591000E4B2FA2C03D9FFF764FF012070BD202107
:105920002846FAF73BFF0028F1D100BF00BF00BFB7
:1059300000BF00BF10212846FAF769FFFFF718FFE4
:10594000002070BD70B5804E0546403E10213046A7
:10595000FAF75DFF0024E80904D020213046FAF769
:1059600054FF03E020213046FAF751FF6806050E88
:1059700000BF00BF00BF00BF00BF10213046FAF7D4
:1059800044FF00BF00BF00BF00BF00BF00BF00BF9B
:1059900000BF00BF00BF00BF00BF00BF00BF00BF0F
:1059A00000BF00BF00BF00BF00BF00BF10213046D6
:1059B000FAF72DFF641CE4B2082CCCD370BDF8B507
:1059C000074600242046FFF7E9FE5F4E0025403ED3
:1059D0006006040E10213046FAF719FF00BF00BF21
:1059E00000BF00BF00BF10213046FAF70EFF00BF16
:1059F00000BF00BF00BF00BF20213046FAF7CEFE37
:105A0000002801D0641CE4B200BF00BF00BF00BF8B
:105A100000BF10213046FAF7FAFE6D1CEDB2082DDA
:105A2000D6D3002F03D0FFF701FF2046F8BDFFF7C4
:105A300028FFFAE770B50D46FFF7B4FE0024434E89
:105A40000DE0305DFFF77EFFFFF746FF002804D032
:105A5000FFF7C7FE0020C04370BD641CE4B2AC4237
:105A6000EFD3FFF7BEFE002070BDFFB581B01D462D
:105A70000F460024FFF796FE344E08E0305DFFF736
:105A800061FFFFF729FF00280CD1641CE4B2BC427F
:105A9000F4D3FFF787FEF05DFFF754FFFFF71CFF1D
:105AA000002805D0FFF79DFE0020C04305B0F0BDE3
:105AB0006F1E039C09E0BC4201D1002000E00120E0
:105AC000FFF77DFF3055641CE4B2AC42F3D3FFF71F
:105AD00088FE0020EAE71E4A50701C48D170012160
